:020000040800F2
:1000000058280020450100088517000875160008CB
:1000100081170008DB090008ED2D00080000000032
:100020000000000000000000000000004D1D00085E
:10003000B912000800000000E1190008A12600081C
:100040005F0100085F0100085F0100085F01000810
:100050005F0100085F0100085F010008211300082C
:100060005F0100085F0100085F0100085F010008F0
:100070005F0100085F0100085F0100085F010008E0
:100080005F0100085F0100085F0100085F010008D0
:10009000A92D00085F0100085F0100085F0100084A
:1000A0005F0100085F0100085F0100085F010008B0
:1000B000052700085F0100085F0100085F010008D4
:1000C0005F0100085F0100085F0100085F01000890
:1000D0005F010008952900085F0100085F01000822
:1000E0005F0100085F010008A92B00085F010008FC
:1000F0005F0100085F0100085F0100085F01000860
:100100005F0100085F0100085F0100085F0100084F
:100110005F0100085F0100085F0100085F0100083F
:100120005F0100085F0100085F0100085F0100082F
:10013000DFF80CD000F026FA004800479939000893
:10014000582800200648804706480047FEE7FEE79B
:10015000FEE7FEE7FEE7FEE7FEE7FEE7FEE7FEE777
:10016000A52600083101000810B5002200E0521C4D
:10017000835C8C5CA34201D1002BF8D1D8B2E1B2F0
:10018000401A10BD30B50B46014600202022012444
:1001900009E021FA02F59D4205D303FA02F5491B55
:1001A00004FA02F52844151EA2F10102F1DC30BD6B
:1001B0002DE9F05F0546002092469B46884606469C
:1001C000814640241BE0284641464746224600F02F
:1001D000FAF953465A46C01A914110D311461846AF
:1001E000224600F0E1F92D1A67EB01084F4622463E
:1001F0000120002100F0D8F917EB00094E41201E24
:10020000A4F10104DFDC484631462A464346BDE8F6
:10021000F09F2DE9FE4F804681EA0300C00F0C4697
:10022000009021F0004123F00045B8EB0200A94105
:1002300005D24046214690461C460B46024623F016
:100240000040104347D0270DC7F30A00C3F30A51FB
:100250000290401A019040286BDAC3F3130040F477
:10026000801B0098924620B10023D2EB030A63EB77
:100270000B0B01985946C0F14002504600F094F92A
:1002800006460D4650465946019A00F0ACF910EB6F
:1002900008006141002487EA115284EAE7731A4397
:1002A00040D0009A62B3019A012A4FEA075215DC46
:1002B000001B61EB02014FF0004202EA0752CDE958
:1002C0000042001C41F5801132462B4600F0ACF98B
:1002D00003B0BDE8F08F40462146F9E7001B61EB13
:1002E0000201001C41F5801300185B412018A2F5A3
:1002F000001747EB030140EAD570B6196D4111E0D4
:100300006D084FEA360645EAC0754FEA0752001BF2
:1003100061EB0201001C41F5801149084FEA3000F1
:100320000019514132462B4603B0BDE8F04F00F0B2
:100330006CB90098012240000023D0EB020263EB6D
:10034000E073009821464FEAE074B8EB000061EBDF
:100350000401E9E783F000435BE781F0004158E7DF
:100360002DE9FE4F81EA030404F0004421F000412E
:1003700000944FF0000B23F0004350EA01045ED0DC
:1003800052EA03045BD0C3F30A54C1F30A552C4468
:10039000A4F2F3340194A0FB0254C1F3130141F41D
:1003A0008011C3F3130343F4801301FB024400FBE9
:1003B000034E840A970A44EA815447EA8357A4FB10
:1003C000076802958D0A05FB07854FEA932C04FB0D
:1003D0000C542705029D4FEA065847EA1637B5EB3D
:1003E00008056EEB070C870E920E47EA811742EA6A
:1003F0008312A7FB0201B6EB0B0164EB00042B0D8B
:1004000043EA0C335E1844EB1C50DA465146E7FBD6
:100410000201C5F313044FEA0B3343EA14534FEAC6
:100420000432019C43EA0603A4F10C040294009CEC
:10043000CDE900B400F0F8F803B0BDE8F08F00207B
:100440000146F9E72DE9F04D81EA030404F0004B81
:1004500021F0004514464FF0000A23F0004150EA15
:10046000050220D054EA01021DD0C5F30A57024606
:10047000C5F31303C1F31300C1F30A5640F480150A
:1004800043F48013A7EB0608101BD64608F2FD388C
:1004900073EB050002D308F1010801E092185B41FB
:1004A000B8F1000F03DA00200146BDE8F08D00200E
:1004B0004FF48011064684460EE0171B73EB0507C8
:1004C00005D3121B63EB050306434CEA010C4908F4
:1004D0004FEA300092185B4150EA0107EDD152EA31
:1004E000030012D082EA040083EA0501084305D024
:1004F000101BAB4106D20122002306E000224FF080
:10050000004302E06FF0010253101AEB06004CEBBF
:10051000085110EB0A0041EB0B01BDE8F04D00F073
:1005200074B8C1F30A52C1F3130140F2FF3341F42E
:1005300080119A4202DA00200146704740F23343AC
:100540009A42A2F2334202DC524200F03CB800F080
:100550002BB8000030B5041E71F1000404DB4FF02D
:100560000044404264EB0101141E73F1000405DBFA
:100570001C464FF00043524263EB0403994208BF0C
:10058000904230BD064C074D06E0E06840F00103A4
:1005900094E8070098471034AC42F6D3FFF7CCFD3F
:1005A000643E0008843E0008202A04DB203A00FA5A
:1005B00002F1002070479140C2F1200320FA03F3BA
:1005C000194390407047202A04DB203A21FA02F0B8
:1005D0000021704721FA02F3D040C2F1200291407D
:1005E000084319467047202A06DBCB17203A41FA08
:1005F00002F043EAE07306E041FA02F3D040C2F1B0
:100600002002914008431946704710B5141E73F13B
:10061000000408DA401C41F1000192185B411A43C2
:1006200001D120F0010010BD2DE9F04D92469B460E
:1006300011B1B1FA81F202E0B0FA80F220329046B4
:10064000FFF7B2FF04460F4640EA0A0041EA0B01F9
:1006500053465A46084313D0114653EA010019D0B5
:10066000C8F140025046FFF7AEFF05460E46504621
:1006700059464246FFF798FF084305D0012004E0A1
:1006800020463946BDE8F08D0020054346EAE07675
:100690002C4337430A986305E40AA0EB08000022C4
:1006A000FD0A44EA47540A3002D500200146E9E732
:1006B000010510196941DDE9084500196941BDE8E6
:1006C000F04DA2E770B58C1810F8015B15F0070328
:1006D00001D110F8013B2A1106D110F8012B03E0DB
:1006E00010F8016B01F8016B5B1EF9D12B0705D4E3
:1006F0000023521E0DD401F8013BFAE710F8013B2C
:10070000CB1A921C03E013F8015B01F8015B521E47
:10071000F9D5A142D8D3002070BD000008B5012151
:10072000084601F0CDF901214FF4017001F0E8F91C
:100730001C20ADF8000000208DF803006946024837
:1007400000F0CEFE08BD00000008014010B5FFF724
:10075000E5FF00F001F810BD00B591B03A4800F097
:10076000DDFA3A4801903A480290002003900320B5
:1007700004900020059080200690400007908000A3
:1007800008902020099000020A9000200B9001A9F7
:100790002D4800F069FB01212B4800F0B3FA00203E
:1007A0000C9001208DF834008DF835004FF4602056
:1007B0000E9000200F9003208DF840000CA92348D4
:1007C0004C3800F071F84FF4404001F06DF900230F
:1007D000012202211D484C3800F08EF8002302222D
:1007E00003211A484C3800F087F800230322042123
:1007F00016484C3800F080F8012114484C3800F0BD
:1008000034F8012111484C3800F024F80F484C38D6
:1008100000F0CEF800BF0D484C3800F03BF800283F
:10082000F9D10A484C3800F0D3F800BF07484C38DB
:1008300000F026F80028F9D1012104484C3800F0D6
:10084000BCF811B000BD0000080002404C2401407B
:100850000E00002021B1826842F00102826003E0B4
:10086000826822F001028260704721B1826842F4FE
:100870008072826003E0826822F480728260704736
:10088000014600208A6802F004020AB1012000E05B
:1008900000207047014600208A6802F008020AB171
:1008A000012000E00020704730B502460020002300
:1008B00050680F4C20400D790C6844EA0524204311
:1008C000506090680B4C2040D1E902542C434D7984
:1008D00044EA450420439060D06A20F470000C7C08
:1008E000641EE4B2234340EA0350D06230BD0000EE
:1008F000FFFEF0FFFDF7F1FFF0B504460D460020C6
:100900000021092D11DDE068A5F10A0606EB460776
:10091000072606FA07F18843A5F10A0606EB460604
:1009200003FA06F10843E0600CE0206905EB450797
:10093000072606FA07F1884305EB450603FA06F198
:1009400008432061072A0FDA606B561E06EB860704
:100950001F2606FA07F18843561E06EB860605FA9F
:1009600006F10843606322E00D2A0FDA206BD61FE0
:1009700006EB86071F2606FA07F18843D61F06EB0B
:10098000860605FA06F10843206310E0E06AA2F14A
:100990000D0606EB86071F2606FA07F18843A2F12B
:1009A0000D0606EB860605FA06F10843E062F0BD87
:1009B000816841F008018160704721B1826842F48A
:1009C000A002826003E0826822F4A0028260704785
:1009D000816841F004018160704700BFFEE7014675
:1009E000CAB20B1243EA02207047000008B500208B
:1009F000009022E19748008800F00F0096490870A7
:100A00000846007800287CD1944800689449088002
:100A10000846008800F0300092490880904800881D
:100A200000F440508E4908808C4909684BF6BF722B
:100A300001EA020080F4005080F0200040F4004100
:100A400041F08001854A11608248008800F0100062
:100A500090BB1046006848F60F71084011460860C8
:100A600000F00AFE7D4909684BF6BF7201EA0200F8
:100A70007B49098801F4805109B180F4805078499C
:100A8000098801F4005109B180F4005075490988C2
:100A900001F0100109B180F010007249098801F0DD
:100AA000200109B180F0200081B241F4004141F001
:100AB00080016A4A116008BDFFE76848006880B29B
:100AC0000090BDF8000000F40060B0B36348006817
:100AD000C0F30E0048F68F7108406049086001F0CD
:100AE000B7FA5E4909684BF6BF7201EA02005C4939
:100AF000098801F4805109B180F48050584909886F
:100B000000E056E001F4005109B180F4005055496D
:100B1000098801F0100109B180F0100051490988DD
:100B200001F0200109B180F0200081B241F40041C0
:100B300041F08001494A1160BDE7FFE7BDF80000C0
:100B400000F40040002878D044480068C0F30E004C
:100B500048F68F7108404149086000F005FF3F49A1
:100B600009684BF6BF7201EA02003D49098801F4A9
:100B7000805109B180F480503949098801F400514D
:100B800009B180F400503749098801F0100109B11A
:100B900080F010003349098801F0200109B180F08C
:100BA000200081B241F4004141F080012B4A1160E4
:100BB00081E7294800782C4901EB8000D0F8000C2F
:100BC00080B20090BDF8000000F40040C0B122489F
:100BD000007801EB8000D0F8000CC0F30E0048F65E
:100BE0008F7108401C4909781F4A02EB8101C1F846
:100BF000000C19490978491E1C4A52F82100804707
:100C0000BDF8000000F08000B8B113480078164924
:100C100001EB8000D0F8000C48F60F7108400E4937
:100C20000978114A02EB8101C1F8000C0A490978E0
:100C3000491E0F4A52F82100804708484430006896
:100C400080B20449088000F4004000287FF4D2AE4E
:100C500000BF30E75800002040010020005C004049
:100C60005401002056010020005000408000002068
:100C7000640000200B4A02EB8001D1F8001C01F453
:100C8000804171B102EB8001D1F8001C48F68F72EF
:100C900011404CF280021143024B03EB8002C2F878
:100CA000001C7047005000400B4A02EB8001D1F855
:100CB000001C01F0400171B102EB8001D1F8001C71
:100CC00048F68F72114048F2C0021143024B03EB09
:100CD0008002C2F8001C704700500040084A02EB36
:100CE0008001D1F8001C48F68F62114048F2800262
:100CF0001143034B03EB8002C2F8001C7047000055
:100D00000050004021B1026842F00102026004E09C
:100D100002684FF6FE731A400260704701684FF692
:100D2000FE72114001600021016041608160C1607C
:100D30004B49884208D14A490839496841F00F01B6
:100D4000474A083A51608AE045491431884208D13F
:100D500043490839496841F0F001414A083A516075
:100D60007DE03F492831884208D13D49083949682A
:100D700041F470613A4A083A516070E038493C31B8
:100D8000884208D136490839496841F47041344AEB
:100D9000083A516063E032495031884208D1304905
:100DA0000839496841F470212D4A083A516056E0EB
:100DB0002B496431884208D129490839496841F4EE
:100DC0007001274A083A516049E025497831884244
:100DD00008D123490839496841F07061204A083A2E
:100DE00051603CE01F49884206D1011F096841F06B
:100DF0000F01021F116032E01A491431884208D1F4
:100E00001849091F096841F0F001164A121F1160C4
:100E100025E014492831884208D11249091F096880
:100E200041F470610F4A121F116018E00D493C3106
:100E3000884208D10B49091F096841F47041094AE9
:100E4000121F11600BE007495031884207D1054954
:100E5000091F096841F47021024A121F116070478E
:100E6000080002400804024010B50022026847F65C
:100E7000F0739A430C6A8B6823430C6923434C69D3
:100E800023438C692343CC6923434C6A23438C6AF4
:100E900023431A430260CB6843600B6883604B684E
:100EA000C36010BD2DE9F0472848006800F1100527
:100EB0002E8826480068077AD6B9042F18D124480E
:100EC000007801280FD100212248006880B2801CE0
:100ED000214A42F8101030202049088000BF00202D
:100EE0001B49087003E0072710201C49088027E0F1
:100EF000AC88A64201D8042000E002200746B44294
:100F000000D93446A0B2A96888478046002000F086
:100F100087FB8146A2B24946404601F069FFA1B273
:100F2000002000F0C7FF2888001B28806888204424
:100F3000688030200949088000020949088000BF04
:100F4000024909680F72BDE8F087000044010020E3
:100F50003E010020505C004000600040560100202F
:100F6000540100202DE9F0412848006800F11004E8
:100F70002688A068C0B1BEB1A588B54200D9354663
:100F8000A8B2A168884707462088401B2080608857
:100F900028446080002000F033FB8046AAB241461E
:100FA000384600F009FD00BF208850B14FF4405092
:100FB000174908800021084600F07CFF30201549C1
:100FC00008802088A188884204DB03200F49096833
:100FD000087218E02088002804DD05200B49096804
:100FE000087210E0208870B9062008490968087264
:100FF00000210948006880B2801C084A42F810109D
:10100000302004490880BDE8F08100004401002040
:101010005401002056010020505C00400060004058
:101020002DE9F84F9B48006845780027BA46062D01
:101030001BD198480068007800F07F00002813D189
:10104000944909688878012803D193490968CF69D0
:101050000AE0022803D1904909680F6A04E00328D6
:1010600002D18D4909684F6A94E0002D64D1894806
:101070000068408800285FD186480068C088022840
:101080005AD1844800680079002855D18148006809
:10109000007800F07F0028B97E480068808808B991
:1010A0007E4F77E07B480068007800F07F000128E1
:1010B00010D1784909684879774909688A69002117
:1010C0009047002866D173480068807A002861D074
:1010D000724F5FE06F480068007800F07F000228E0
:1010E00058D16C480068407900F00F0669480068E4
:1010F000407900F0700967480068407900F080008E
:1011000038B1674901EB8600D0F8000C00F03008D8
:1011100006E0634901EB8600D0F8000C00F440586B
:1011200060480078B04235D9B9F1000F32D1B8F13A
:10113000000F2FD0594F2DE0082D07D155480068DA
:10114000007800F07F0028BB574F23E00A2D21D103
:1011500050480068007800F07F0001281AD14D48FF
:101160000068807AB0B14B480068408890B949481F
:101170000068007970B947480068C088012809D123
:10118000444909684879444909688A6900219047B7
:1011900000B9464F57B13F480068A0F812A03D483B
:1011A000006887610020B84700240FE0394A1268C0
:1011B0005078394A1268116988470446032C05D1D2
:1011C0000920344909680872BDE8F88F3148006881
:1011D000008A4FF6FF71884204D109202D49096821
:1011E0000872F1E7022C03D02A480068008A20B96F
:1011F0000820284909680872E6E726480068007850
:1012000000F08000E0B323480068C08800902148C7
:101210000068008A0099884204D91E49009809682C
:10122000088223E01B480068008A1A490968C988B7
:1012300088421BDA17480068008A1749096891F844
:101240002C10884203DA0020194908700EE011487A
:101250000068008A1049096891F82C1090FBF1F29F
:1012600001FB120010B90120114908700A480068FA
:1012700090F82C10074800688182FFF713FE07E002
:10128000FFE7032003490968087200030949088041
:1012900000BF99E74401002048010020F122000826
:1012A00000500040A800002075220008C522000858
:1012B0003E010020540100207047000010B50024BA
:1012C0000F480078012819D140210E4801F082FD15
:1012D00084B2002C0FDD2246C0210A4801F088FDAF
:1012E0002146012000F0E6FD012000F011FE002063
:1012F0000549086002E000200149087010BD0000A7
:1013000050000020982300205400002010B503480E
:1013100002F0DCFB032000F0A3FD10BDD823002069
:1013200010B5022000F046F838B1002000F026F891
:10133000022000F003F802F019FD10BD0149086019
:1013400070470000140401401CB5044602200090C0
:1013500000208DF804008DF8054001208DF806006E
:10136000684600F03BF800208DF80600684600F063
:1013700035F8014804701CBD0A00002010B5014674
:1013800001290AD107200122824043099B0003F171
:10139000E023C3F8002100BF08E0072001228240BB
:1013A000034B440943F8242000BF00BF10BD0000D8
:1013B00080E100E0014600200022074B1B6803EAA1
:1013C0000102054B14331B680B4013B10AB1012015
:1013D00000E0002070470000000401400021234984
:1013E0008279002A3AD00A46126803689A430B466B
:1013F0001A600A1D126803689A430B1D1A6002796D
:1014000011440A6803681A430A60184A08321268CD
:1014100003689A43154B08331A601A1D1268036853
:101420009A43124B0C331A604279102A0ED11A1FBC
:10143000126803681A430D4B08331A601A1D1268AC
:1014400003681A43094B0C331A600DE007494279CF
:1014500011440A6803681A430A6005E002791144DE
:101460000A6803689A430A6070470000000401405C
:1014700008B500F089F90121092000F041FB0121A4
:10148000084600F00DF80220ADF8000004208DF8A9
:1014900003006946014800F023F808BD000C014034
:1014A00030B500228B071C0F0F2303FA04F20B4BFD
:1014B0008C1053F824309343084C8D1044F8253099
:1014C00023468C1053F824308C07240F00FA04F4C0
:1014D0002343024C8D1044F8253030BD08000140F4
:1014E0002DE9F041024600250026002000230024BB
:1014F000002791F803C00CF00F0591F803C00CF021
:10150000100CBCF1000F03D091F802C04CEA0505A5
:1015100091F800C0BCF1000F31D0146800202BE01E
:101520004FF0010C0CFA00F3B1F800C00CEA03060E
:101530009E4220D183004FF00F0C0CFA03F7BC43FE
:1015400005FA03FC4CEA040491F803C0BCF1280F2F
:1015500006D14FF0010C0CFA00FCC2F814C00AE0EE
:1015600091F803C0BCF1480F05D14FF0010C0CFA03
:1015700000FCC2F810C0401C0828D1D31460B1F898
:1015800000C0BCF1FF0F34DD546800202EE000F1F4
:10159000080C4FF0010808FA0CF3B1F800C00CEA8F
:1015A00003069E4221D183004FF00F0C0CFA03F783
:1015B000BC4305FA03FC4CEA040491F803C0BCF1F7
:1015C000280F05D100F1080C08FA0CF8C2F81480B5
:1015D00091F803C0BCF1480F07D100F1080C4FF09F
:1015E000010808FA0CF8C2F81080401C0828CED375
:1015F0005460BDE8F08141617047016170470000AF
:1016000001460548006880B200EBC100001D034A96
:1016100032F8100080B27047505C0040006000401B
:1016200001460548006880B200EBC100034A32F869
:10163000100080B270470000505C00400060004025
:1016400070B50A480468001D0568001D066834442A
:1016500054B108220649204600F046F80422044905
:101660001031284600F040F870BD0000E8F7FF1F79
:101670002A00002000BFFEE710B518480068047A71
:10168000022C01D0042C05D1FFF70CFC1348006894
:10169000047A1CE0062C19D110480068407805280F
:1016A0000ED10E480068007800F07F0040B90B4969
:1016B0000968C87800F054FB09490968086A80473E
:1016C0000849096888688047082400E0082403491D
:1016D00009680C7200F086F910BD0000440100207A
:1016E000500100204801002030B50B46002100BF0A
:1016F00016E00A24B4EB107F05D9302404EB1074F3
:1017000003F8114005E0412404EB10740A3C03F88F
:101710001140000100254C00641C1D554C1CE1B219
:101720009142E6DB30BD000008B50121102000F039
:10173000E7F94FF40050ADF8000010208DF80300D9
:1017400003208DF8020069460448FFF7C9FE4FF4F4
:1017500000510248FFF74FFF08BD00000010014094
:101760000548817A19B10521044A116002E001217E
:10177000024A116070470000382400203001002028
:1017800000BFFEE77047704708B507208DF80000DE
:1017900002208DF8010000208DF8020001208DF854
:1017A0000300684600F002F808BD000070B5002193
:1017B00000230F22C47804B3154C246804F4E064B9
:1017C000C4F5E064210AC1F10403CA40447804FA74
:1017D00003F184781440214309010E4C0678A15589
:1017E000047804F01F050124AC4005786D11AD00AC
:1017F00005F1E025C5F8004109E0047804F01F0573
:101800000124AC40044D0678761145F8264070BDA1
:101810000CED00E000E400E080E100E0024901435B
:10182000024A1160704700000000FA050CED00E06C
:1018300070B502264748006844784648006800783A
:1018400000F07F00002844D1092C03D100F0D0FD26
:1018500006465FE0052C14D13E480068C0787F281A
:101860000BDC3C480068807838B93A4800688088CA
:1018700018B938480068807A08B1082565E0002664
:1018800048E0032C0ED133480068C078012807D106
:1018900030480068808818B900F0CEFD064639E06F
:1018A000022637E0012C35D12A480068C07801288B
:1018B0000DD128480068808848B926480068407AD9
:1018C00000F0200018B100F01FFC064622E00226BE
:1018D00020E020480068007800F07F00012805D152
:1018E0000B2C17D100F024FE064613E019480068BF
:1018F000007800F07F0002280BD1012C03D100F00A
:1019000003FC064606E0032C04D100F0A9FD0646C0
:1019100000E002264EB1E0B20F4A126851698847D2
:101920000646032E01D109250FE00EB108250CE073
:10193000062500210948006880B2801C084A42F848
:10194000101030200749088000BF024909680D7255
:1019500070BD00004401002048010020505C0040A0
:10196000006000405601002010B511480068047A5C
:10197000022C01D0042C01D1082412E0032C01D048
:10198000052C05D1FFF7EEFA09480068047A08E053
:10199000072C05D107490968C8688047082400E07A
:1019A0000824034909680C7200F01CF810BD0000FF
:1019B0004401002048010020F0B5561C7510074E68
:1019C00006EB41042B4605E034F8047B20F8017B4C
:1019D000401C5B1E002BF7D1F0BD000000600040F2
:1019E0007047000010B50D4890F82C10002000F052
:1019F000F1F90B480068007A082805D1400209492E
:101A0000088010200849088005480068007A0928E5
:101A100001D1012010BD0020FCE70000AC00002037
:101A200044010020540100205601002010B501207F
:101A300001F0C0F801240B48046000200A49088026
:101A400008460088074908600020091D08604FF417
:101A5000E0500549088008460088024908600020D7
:101A600010BD0000405C00404E010020F0B5034670
:101A700000200EE05C68651C5D6027780546401C10
:101A80004F55DC681D682C445D68AC4201D8DC68A9
:101A90005C605C689D68AC4204D0904202D21C68D5
:101AA0008442E7D8F0BD000001460020034A506898
:101AB00020F440400843506070470000001002408E
:101AC00029B1064A52690243044B5A6104E0034AB1
:101AD00052698243014B5A61704700000010024076
:101AE00029B1064AD2690243044BDA6104E0034A91
:101AF000D2698243014BDA61704700000010024056
:101B000029B1064A92690243044B9A6104E0034AF0
:101B100092698243014B9A617047000000100240B5
:101B200030B500210022002400232D4D6D6805F002
:101B30000C0121B1042905D0082923D105E0294D44
:101B4000056022E0274D05601FE0254D6D6805F416
:101B50007012234D6D6805F48034022505EB924226
:101B60001CB9214D554305600BE01D4D6D6805F412
:101B700000351DB11C4D5543056002E0194D55431C
:101B8000056002E0174D056000BF00BF144D6D6891
:101B900005F0F0010909154D6B5C0568DD404560F5
:101BA0000F4D6D6805F4E061090A104D6B5C4568E6
:101BB000DD4085600A4D6D6805F46051C90A0B4D22
:101BC0006B5C4568DD40C560054D6D6805F44041BE
:101BD000890B074D6B5CC568B5FBF3F5056130BD3E
:101BE0000010024000127A0000093D00140000209D
:101BF0002400002070B50546072D01D02E48057041
:101C00002D48007808284ED2DFE800F004111A2091
:101C10002B384E4F2948006828B900F053F80620A9
:101C20002549087002E005202349087041E000F0D2
:101C300049F804202049087001202049086038E054
:101C400002201D4948700320087032E01A4840788D
:101C5000401E194948700846407808B904200870A9
:101C600027E01748006884B244F010041448046068
:101C70000520114908700A2048701AE00E48407883
:101C8000401E0D4948700846407858B90C48006815
:101C900084B224F010040A48046006200870002072
:101CA0000649086005E000BF00BF06200249087031
:101CB00000BF00BF70BD00003501002038010020CA
:101CC000405C004010B50748006884B224F004046A
:101CD00004480460FFF744FD4FF43F4001490860A9
:101CE00010BD0000405C004010B50024134800689F
:101CF000052822D112480078F8B912490868411C19
:101D0000104A1160052818D10020114608604021B2
:101D10000D4801F05FF884B2002C0EDD2246C02190
:101D2000094801F065F82146012000F0C3F80120C0
:101D300000F0EEF801200249087010BD30010020CB
:101D4000500000205400002098230020704700001D
:101D50004FF6F8710140014A11607047505C004035
:101D600030B501460F4B1A78002014E003060E4CE4
:101D700004EB9353D3F8003C48F68F74234048F2A9
:101D800080042343C4B223430406074D05EB945457
:101D9000C4F8003C401C9042E8D341F08003034C5F
:101DA000236030BDA8000020005000404C5C004083
:101DB00010B54A105300054A126892B202EBC002F5
:101DC000121D034C44F8123010BD0000505C00405E
:101DD0000060004010B502460F48006880B200EB7A
:101DE000C200801D0D4C04EB40033E290BDD481161
:101DF00001F01F040CB9441EA0B24FF4004444EAA1
:101E000080241C6007E0481001F001040CB1441C60
:101E1000A0B284021C6010BD505C00400060004015
:101E200030B50E4C04EB8003D3F8003C4BF68F74B6
:101E300003EA040201F480530BB182F4805201F4EE
:101E400000530BB182F4005242F4004343F080038C
:101E5000024D05EB8004C4F8003C30BD005000404A
:101E600010B50B4B03EB8002D2F8002C4BF68F73AE
:101E700002EA030181F4805181F4005141F40042EF
:101E800042F08002024C04EB8003C3F8002C10BD2A
:101E90000050004010B54A105200044B1B689BB222
:101EA00003EBC003024C44F8132010BD505C00400B
:101EB00000600040044A126892B202EBC002921C19
:101EC000024B43F812107047505C00400060004025
:101ED00030B50E4C04EB8003D3F8003C48F6BF74D9
:101EE00003EA040201F010030BB182F0100201F0CA
:101EF00020030BB182F0200242F4004343F0800340
:101F0000024D05EB8004C4F8003C30BD0050004099
:101F100010B50B4B03EB8002D2F8002C48F6BF73D0
:101F200002EA030181F0100181F0200141F4004236
:101F300042F08002024C04EB8003C3F8002C10BD79
:101F40000050004010B5074B03EB8002D2F8002C84
:101F500048F68F131A400A43024C04EB8003C3F87F
:101F6000002C10BD0050004010B500F001F810BD6D
:101F70000CB50020019000903348006840F4803098
:101F80003149086000BF3048006800F4003000901C
:101F90000198401C0190009818B90198B0F5A06F05
:101FA000F1D12948006800F4003010B10120009000
:101FB00001E0002000900098012843D123480068E8
:101FC00040F01000214908600846006820F0030036
:101FD00008600846006840F0020008601A4840683F
:101FE000194948600846406848600846406840F41F
:101FF000806048600846406820F47C1048600846CD
:10200000406840F4E81048600846006840F080707E
:10201000086000BF0C48006800F000700028F9D08C
:102020000948406820F003000749486008464068B6
:1020300040F00200486000BF0348406800F00C0018
:102040000828F9D10CBD0000001002400020024019
:1020500038B501242948006880B2001D284931F8AC
:10206000100080B201EB4000009026480068007A22
:10207000092832D000980078224909680870009831
:10208000401C0090009800781E490968487000982C
:10209000401C0090009800EB44000090009931F83B
:1020A000020B0091FEF79BFC1649096848800098D6
:1020B00000EB44000090009931F8020B0091FEF70C
:1020C0008EFC104909688880009800EB440000905D
:1020D000009800880B490968C880012009490968EF
:1020E000087208480068C08810B9FFF7A1FB01E03A
:1020F000FEF796FFFFF776FC38BD0000505C00400D
:1021000000600040440100202DE9F0475448006879
:10211000007800F07F08B8F1000F0AD1504800683D
:10212000407A00F0DF004E49096848720020BDE89F
:10213000F087B8F1020F7CD149480068408818B98F
:1021400047480068007908B10220F0E7DFF81491F1
:1021500043480068477927F080052C4640480068CE
:10216000407900F0800038B13F4901EB8400D0F89D
:10217000000C00F0300606E03B4901EB8400D0F88B
:10218000000C00F4405699F80000A84204D91EB192
:1021900033480068807A08B90220C8E707F0800059
:1021A00080B1314901EB8400D0F8000C00F0300020
:1021B00010284BD1E0B2FEF777FDE0B23021FFF7F7
:1021C00087FE43E0284901EB8400D0F8000C00F4BE
:1021D0004050B0F5805F39D1E4B9244A92F82C1010
:1021E000E0B2FFF7F7FD204A02EB8401D1F8001CB2
:1021F0004BF68F7201EA020080F4805080F40050A8
:1022000040F4004141F08001174B03EB8402C2F817
:10221000001C1BE0E0B2FEF72DFD134A02EB840127
:10222000D1F8001C4BF68F7201EA020080F4805056
:1022300000E011E080F4005040F4004141F08001E2
:10224000094B03EB8402C2F8001C00BF084909686F
:102250004869804700206AE700BF022067E7000066
:1022600044010020A800002000500040AC000020E5
:102270005001002010B504462CB901200649096818
:102280000882002010BD0549096808688047024897
:1022900000680A30F6E700004401002050010020E9
:1022A00010B5024606480068438A32B98888C01AC9
:1022B000034C24682082002010BD08681844FBE706
:1022C0004401002010B504462CB9012006490968D4
:1022D0000882002010BD05490968886880470248C7
:1022E00000680C30F6E70000440100205001002097
:1022F00010B504462CB9022039490968088200202B
:1023000010BD00203749088035480068007800F08B
:102310007F0018BB32490968487A00F0200131B1CA
:102320003049097841F002012E4A117005E02D492B
:10233000097801F0FD012B4A117000F0400131B124
:102340002849097841F00101264A117005E0254924
:10235000097801F0FE01234A11703AE02048006834
:10236000007800F07F00012801D11E48C8E71C4812
:102370000068007800F07F00022828D1184A12680F
:10238000517901F00F0001F080027AB1164B03EB96
:102390008002D2F8002C02F03002102A16D1114A25
:1023A000127842F001020F4B1A700FE00E4B03EB54
:1023B0008002D2F8002C02F44052B2F5805F05D1C1
:1023C000084A127842F00102064B1A7001E0002020
:1023D00096E70649096808698047024890E70000C7
:1023E000440100203C01002000500040500100202A
:1023F00010B50E480068C0780D494978884213DC52
:102400000A480068807878B908480068808858B918
:1024100006480068C0780549096888720549096856
:1024200048688047002010BD0220FCE744010020DE
:10243000A80000205001002010B507480068407A2D
:1024400040F0200004490968487204490968C869D5
:102450008047002010BD00004401002050010020F2
:102460002DE9F0412E480068467926F080073C4669
:102470002B480068407900F0800038B1294901EB11
:102480008400D0F8000C00F0300506E0254901EB8F
:102490008400D0F8000C00F4405523480078A04296
:1024A00008D91F480068408820B91DB11C48006841
:1024B000807A10B90220BDE8F08106F08000A0B15A
:1024C000184A02EB8401D1F8001C48F6BF7201EAF9
:1024D000020080F0100040F4004141F08001114BF7
:1024E00003EB8402C2F8001C14E00E4A02EB8401E4
:1024F000D1F8001C4BF68F7201EA020080F4805084
:1025000040F4004141F08001064B03EB8402C2F825
:10251000001C00BF05490968886980470020CAE798
:102520004401002000500040A8000020500100207D
:1025300010B5174B1B68D978154B1B685879154B8C
:102540001B689A699047044611480068807AE8B190
:102550003CB90F480068007918B90D4800688078C8
:1025600008B1022010BD8CB90B490968C8688047C2
:1025700007480068407906490968C872044800683D
:10258000C0780349096808730020EBE70220E9E7F7
:1025900044010020480100205001002038B50021EE
:1025A000002200230093394B1B6898B200BF09E05A
:1025B000374C04EB8103D3F8003C9BB2354C44F814
:1025C0002130491C0829F3D340F480602F4B186058
:1025D00040F00100186020F00100186000BF2B4B94
:1025E0001B1D1B6803F48063002BF8D04FF6FF33EC
:1025F000264C241D2360002109E0264B53F821308E
:102600009BB2234D05EB8104C4F8003C491C08290A
:10261000F3D340F008001D4B18601B6898B240F0DF
:1026200004001A4B18601C4B1B6800931A4B1A6865
:1026300022F0030242F001021A60184B1B6843F0BB
:102640000403164C2360114B1B1D1B6803F48053BD
:102650002BB923461B6823F00403236014E04EF6D5
:10266000FF730A4C241D2360231F1B6898B220F0BF
:102670000800231F1860084C009B2360074B1B6851
:1026800023F00403054C236038BD0000405C00408B
:1026900000500040182400200070004010ED00E0C1
:1026A0007047000010B51348006840F00100114960
:1026B000086008464068104908400E4948600846CE
:1026C00000680E4908400B4908600846006820F47D
:1026D000802008600846406820F4FE0048604FF4FF
:1026E0001F008860FFF740FC4FF00060044908605D
:1026F00010BD0000001002400000FFF8FFFFF6FED2
:1027000008ED00E010B50121880700F07FF880B3E4
:102710000121880700F03FF8164800881649174A3B
:10272000128821F81200134841881548134A12886C
:1027300020F812100F4880881249104A128821F898
:1027400012000E490888411C0C4A118040F2FF31EA
:1027500088420ED100214FF0804000F01FF8002089
:102760000649088001200849087041030748FEF720
:1027700042FF10BD0E0000205C010020060000207A
:102780005C0900205C1100200800002000100140BE
:10279000CA4302827047CA430282704721B102884D
:1027A00042F00102028004E002884FF6FE731A40F4
:1027B000028070473EB5044601210846FFF790F9B4
:1027C0001148B0FBF4F0401E80B2ADF80400472081
:1027D000ADF800000020ADF80600ADF80200694633
:1027E0004FF0804000F03EF801218807FFF7D0FF4E
:1027F00001221146900700F01AF800214FF08040A6
:10280000FFF7CCFF3EBD000040420F0030B502464E
:10281000002000230024158A05EA0103958905EAB2
:10282000010413B10CB1012000E0002030BD1AB149
:1028300083890B43838102E083898B4383817047C3
:1028400008B51C208DF8000001208DF80100002043
:102850008DF8020001208DF803006846FEF7A6FF00
:1028600008BD0000002202881D4B98420ED01D4B6F
:1028700098420BD0B0F1804F08D01B4B984205D046
:102880001A4B984202D01A4B984204D14FF68F73DC
:102890001A404B881A43174B984207D0164B984260
:1028A00004D04FF6FF431A40CB881A4302808B882E
:1028B00083850B8803850A4B98420BD0094B9842BD
:1028C00008D00E4B984205D00D4B984202D00D4BCC
:1028D000984201D10B7A038601238382704700005E
:1028E000002C01400034014000040040000800407A
:1028F000000C004000100040001400400040014067
:10290000004401400048014000B585B0012144F277
:102910000400FFF7F5F84FF40070ADF81000182030
:102920008DF8130003208DF8120004A91748FEF754
:10293000D7FD4FF48060ADF8100004208DF813002F
:1029400004A91248FEF7CCFD4FF4E12000900020CE
:10295000ADF80400ADF80600ADF80800ADF80C00C5
:102960000C20ADF80A006946094800F09DF80122E4
:1029700040F22551064800F071F80121044800F0AA
:1029800037F800F0FDF805B000BD00000008014078
:102990000038014010B540F22551114800F034F8DC
:1029A000E0B10F48001D00880E4908700846017804
:1029B0000D4802780078401C0B4B18700B4881546E
:1029C00008480078202809D1002008491A461278C2
:1029D000885419460870054801F078F810BD0000C9
:1029E000003801400C0000200B0000205C19002082
:1029F00021B1828942F40052828104E082894DF63D
:102A0000FF731A408281704770B50246002400238C
:102A10000025002040F66A16B14200D100BFC1F384
:102A2000421501F01F03012606FA03F3012D02D11E
:102A30009689334006E0022D02D1168A334001E028
:102A4000968A33400C12012606FA04F416883440A4
:102A500013B10CB1012000E0002070BDF0B50346B9
:102A6000002400260025002040F66A17B94200D154
:102A700000BF1846C1F3421401F01F06012707FAF0
:102A800006F5012C01D10C3004E0022C01D11030EC
:102A900000E014301AB107682F43076002E00768AE
:102AA000AF430760F0BD00002DE9F04786B0054652
:102AB0000E460024A24600BFA1460027B08900B1FF
:102AC00000BF2F462C8A4CF6FF700440F088044368
:102AD0002C82AC894EF6F3100440B088318908434B
:102AE000718908430443AC81AC8A4FF6FF4004402F
:102AF000B0890443AC8201A8FFF712F81F4887424F
:102B000002D1DDF810A001E0DDF80CA0A88900F4E6
:102B1000004040B10AEBCA0000EB0A1031684900DE
:102B2000B0FBF1F807E00AEBCA0000EB0A103168CD
:102B30008900B0FBF1F86420B8FBF0F00401200933
:102B4000642101FB1089A88900F4004040B13220C3
:102B500000EBC900B0FBF1F000F00700044308E00F
:102B6000322000EB09106421B0FBF1F000F00F00FF
:102B700004432C8106B0BDE8F08700000038014016
:102B800008B525208DF8000000208DF801008DF893
:102B9000020001208DF803006846FEF707FE08BD1D
:102BA000C1F308028280704710B54FF48020FEF711
:102BB000C5FB10BD10B504462CB94FF400610548A3
:102BC000FEF719FD04E04FF400610248FEF715FD21
:102BD00010BD00000020014010B588B000246948F5
:102BE0000068694908800846008800F40070674959
:102BF0000988084050B14FF6FF50624908606448A8
:102C00000078401C62490870FFF76EF85E48008843
:102C100000F400405D490988084008B1FDF7E6FE70
:102C20005948008800F4806058490988084030B14C
:102C30004FF6FF305349086056494868804752486C
:102C4000008800F4005051490988084018B14DF639
:102C5000FF704C4908604C48008800F480504B4994
:102C60000988084030B14EF6FF70464908600020E0
:102C7000FEF7C0FF4448008800F40060434909881B
:102C8000084060B14448007810B1FFF787FC02E0CB
:102C90000220FEF7AFFF4FF2FF703A4908603A4852
:102CA000008800F48070394909880840002866D0FF
:102CB0004FF6FF6033490860081D006800F40040CB
:102CC000002856D035480068401C34490860084642
:102CD0000068032850D92B48001F006800F0080046
:102CE000002849D12748001F006880B22C4908609D
:102CF000002408E02B4901EB8400D0F8000C80B2DE
:102D00004DF82400641C082CF4D32548006840F0DA
:102D10000100234908600846006880B21949091F6C
:102D200008601F48006820F001001D49086008463F
:102D3000006880B21349091F086000BF114800688D
:102D400000F480600028F9D04FF6FF300D4908608C
:102D5000002408E05DF8240080B2124A02EB8401EE
:102D6000C1F8000C641C082CF4D300200B49086047
:102D700002E00020094908600720FEF73BFF08B089
:102D800010BD0000445C0040580000204E010020AF
:102D90005A000020AC000020340100205C0000201C
:102DA000600000200050004010B5FFF715FF10BD77
:102DB0000020064908604FF43F4005490880084656
:102DC00000880249091F086000207047445C0040E9
:102DD0004E01002070B504460D462A4621460248A1
:102DE000FEF744FE70BD00008819002000BFFEE71A
:102DF000F0B5144604F1010C4FEA6C07DFF824C06B
:102E00000CEB41033D460AE00678401C90F800C0F8
:102E100046EA0C2223F8022B9B1C401C6D1E002D41
:102E2000F2D1F0BD0060004070B504460025212CB1
:102E300008D112480068007800F07F0021280ED1E8
:102E40000F4D0CE0202C0AD10C480068007800F0EF
:102E50007F00212800D10B4D20200B4908700DB9AF
:102E6000022070BD054800688561002103480068A4
:102E700041820020A8470020F3E700004401002021
:102E8000B52E0008453000089C00002010B504460F
:102E900002492046FFF704FA10BD00000801002097
:102EA00010B5044602492046FFF7FAF910BD0000AC
:102EB00000010020014629B90820034A1268108247
:102EC000002070470148FCE744010020A0000020DA
:102ED00070B5054606480068C478042C01DD002062
:102EE00070BD044800EBC4012846FFF7D9F9F7E7A5
:102EF00044010020100100200246002901DD0220CB
:102F00007047012A01DD0220FAE70020F8E70000FF
:102F1000014608480068007800F07F00212807D1AA
:102F2000022901D100207047222901D10020FAE7AF
:102F30000220F8E74401002010B500203449096858
:102F400088723448C0793249096848720020304993
:102F50000968C872FEF7FCFE4FF400710020FEF70E
:102F6000F1FF10210020FEF7B3FF40210020FEF703
:102F70001FFF80210020FEF78DFF0020FDF7AEFE31
:102F8000254890F82C100020FEF724FF0020FEF7C3
:102F900067FF00210120FEF7D5FFC0210120FEF7C9
:102FA00079FF20210120FEF793FF00210120FEF789
:102FB00037FF4FF4C0610220FEF7C4FF4FF4807169
:102FC0000220FEF767FF00210220FEF729FF2021E3
:102FD0000220FEF77DFF00210320FEF7B3FF4FF430
:102FE00088710320FEF7E4FE40210320FEF7F2FE85
:102FF0004FF440510320FEF713FF00210320FEF79A
:1030000067FF0020FEF7ACFE01200449086010BDF8
:1030100044010020DE3D0008AC000020300100200B
:103020000348817A11B10521024A116070470000FE
:103030003824002030010020042001490860704736
:1030400030010020014629B90820034A1268108285
:10305000002070470148FCE744010020A000002048
:1030600003480078202802D10020014908707047E9
:103070009C0000207047000010B5FEF7E1FA002028
:10308000054909688872FEF7D1FCFFF791FE002020
:103090000249086010BD00004401002030010020FA
:1030A0000FB4054B10B503A9044A029800F0CAF802
:1030B00010BC5DF814FB00007539000858010020B1
:1030C00002E008C8121F08C1002AFAD170477047F1
:1030D000002001E001C1121F002AFBD1704700004F
:1030E0002DE9FF5FDDE90220010DDDF838B0024374
:1030F00018D044F61050A1F2FF3141430D140F983F
:10310000012820D0A5EB0B00401C5FEA000A4FF01D
:103110000004474EDFF81C91A046504616D5CAF170
:10312000000728E00F98012443A2012808D00021BD
:1031300000980F9BC0E90021C0E90243BDE8FF9F52
:103140006FEA0B01F4E7CBF10000DEE7074612E07F
:10315000F80707D02246334640464946FDF700F9B6
:10316000804689462246334610461946FDF7F8F850
:1031700004460E467F10002FEAD1DDE90201BAF1C4
:10318000000F42464B4602DAFDF7EAF801E0FDF790
:1031900059F904460E460022284BFDF7DBF903D807
:1031A0004FF0FF30014607E00022254B2046314614
:1031B000FDF72FF8FDF7B5F9102409E0002C0ADB24
:1031C0000A220023FCF7F4FF019B30321A55641EDB
:1031D00050EA0102F2D1641C019AC4F111031444B3
:1031E0000F9A012A03D0012208430DD10AE00843B7
:1031F00004D000204FF0110B0F9080E7A3EB0B05DC
:103200006D1E0DE05B4504DD4FF0000205F1010588
:1032100004E003DA4FF00002A5F10105002AECD02A
:1032200000980F99C0E90231C0E9004586E7000027
:10323000000024400000F03F300000000000F04398
:103240000000E03F2DE9FF4F95B09B4689460646BA
:1032500000250FE2252877D100242746F84A0121CE
:10326000059400E0044316F8013F203B01FA03F007
:103270001042F7D130782A2811D06FF02F03307820
:10328000A0F13002092A16D8059A44F0020402EB94
:10329000820203EB42021044761C0590EFE759F8D6
:1032A000042B0592002A03DA504244F4005405909E
:1032B00044F00204761C30782E2816D116F8010F3F
:1032C00044F004042A280DD06FF02F023078A0F1CA
:1032D0003003092B09D807EB870302EB4303C71818
:1032E000761CF3E759F8047B761C30786C280FD0F5
:1032F00006DC4C2817D068280DD06A2814D104E0C9
:10330000742810D07A280FD10DE044F400140AE09C
:1033100044F4801401E044F440147278824202D1F3
:1033200004F58014761C761C307866280BD013DCEC
:10333000582877D009DC002875D04528F6D04628D3
:10334000F4D047281AD19DE118E0632835D06428CD
:1033500079D0652812D195E1702873D008DC6728F0
:10336000F1D069286FD06E280DD06F2806D1B5E056
:1033700073282CD0752875D0782874D05A461799A0
:1033800090476D1C75E1C4F30250022809D0032850
:103390000DD0D9F8001004280DD00D6009F10409F2
:1033A00067E1D9F80010EA17C1E90052F6E7D9F849
:1033B00000100D80F2E70D70F0E719F8041B8DF88E
:1033C000001000208DF80100EA46012003E059F8C2
:1033D00004AB4FF0FF3061074FF0000102D40DE065
:1033E00008F101018846B9420FDA8045F8DB1AF886
:1033F00008100029F4D108E008F101018846814253
:10340000FADB1AF808100029F6D105985B46A0EB04
:10341000080721463846179A00F094FA284400EB32
:10342000080507E04DE029E10DE01AF8010B5A46C6
:1034300017999047B8F10108F7D25B462146384604
:10344000179A13E142E00A220092C4F302524FF0AD
:10345000000A022A08D059F804CB032A4FEAEC717B
:103460000AD00DE029E02AE009F1070121F0070266
:10347000F2E802C1914609E00FFA8CFC4FEAEC71C8
:10348000042A03D14FFA8CFC4FEAEC71002907DAC9
:103490000A460021DCF1000C61EB02012D2202E062
:1034A000220504D52B228DF80420012203E0E20737
:1034B00001D02022F7E7904659E00A2102E01022CD
:1034C0000DE010214FF0000A00910BE010224FF0A8
:1034D000000A44F004040827009203E008224FF099
:1034E000000A0092C4F30252022A05D059F804CB14
:1034F0000021032A08D009E009F1070121F00702A1
:10350000F2E802C1914605E01FFA8CFC042A01D1C1
:103510000CF0FF0C4FF00008220728D5702806D0C9
:10352000009B83F0100353EA0A0305D00EE040220B
:103530008DF80420012208E05CEA010206D0302266
:103540008DF804208DF8050002229046009B83F040
:10355000080353EA0A030AD15CEA010201D16207B7
:1035600005D530228DF804204FF001087F1E582821
:1035700004D034A003900EA802900DE036A0F9E725
:1035800053466046009AFCF713FE84460398825C1B
:103590000298401E029002705CEA0100F0D102988D
:1035A00006A9081A00F1200A600702D524F4803425
:1035B00000E00127574502DDA7EB0A0000E00020EC
:1035C00000EB0A01009005984144401A0590E00381
:1035D00006D45B462146179A059800F0B3F90544D6
:1035E000002706E001A85A46C05D179990476D1C58
:1035F0007F1C4745F6DBE0030CD55B462146179A56
:10360000059800F09FF9054404E030205A461799C8
:1036100090476D1C0099481E00900029F5DC08E0D9
:10362000029802995A460078491C029117999047CE
:103630006D1CBAF10001AAF1010AF1DC65E100009C
:103640000928010030313233343536373839616278
:10365000636465660000000030313233343536373C
:1036600038394142434445460000000000F058F913
:103670000544761C307800287FF4ECAD19B028465C
:10368000BDE8F08F620700D4062709F1070222F097
:10369000070CFCE80223E14603F000485FEA080C4F
:1036A00002D00FF2702C0DE05FEA045C02D50FF23D
:1036B000682C07E05FEAC47C02D00FF2602C01E0C6
:1036C000AFF2700C4FF0FF3823F00043CDF850C03C
:1036D00065280CD006DC452809D046281DD047288F
:1036E0003DD13DE0662818D067287ED138E0002122
:1036F000112F01DB112000E0781CCDE9000106A9A3
:103700000EA8FFF7EDFCDDE90F010E9A03910021F1
:10371000009207F1010A04914DE04FF0004000973C
:10372000CDE9011006A90EA8FFF7DAFCDDE90F02CA
:1037300003920E9B11990022DDF80CA000930492D5
:1037400011B9791C00EB010AB7EB0A0004D4C0F1EF
:10375000FF3007F1010A0490AAEB0700019044E052
:10376000012F00DA01270021112F01DD112000E0D7
:103770003846CDE9000106A90EA8FFF7B1FCDDE946
:103780000F010E9A0391002104910092BA4621077D
:103790000CD40399514500DA8A46BAF1010F05DDD0
:1037A000009AAAF10101515C302908D0B84202DA2E
:1037B00010F1040F06DA0121CDE9011015E0AAF19C
:1037C0000101E9E7002805DC049901440491AAEB12
:1037D000000102E0411C514500DD8A460499401A6F
:1037E000401C01904FF000400290200704D4019843
:1037F000504501DBCDF8048000208DF84F00029881
:103800000DF14F07B0F1004F25D02B200E900298FC
:103810004FF0020800280CDA404202902D200E9052
:1038200007E00A210298FCF7ADFC3031029007F85E
:10383000011DB8F10001A8F10108F2DC029800288E
:10384000EFD1791E0E980870307800F0200040F01B
:10385000450007F8020D12A8C01B00F107081498D4
:10386000007800B1012000EB0A01019801EBE07142
:1038700005984144401A401E0590E00306D45B467B
:103880002146179A059800F05DF8054414980078D1
:1038900018B15A46179990476D1CE00324D55B4632
:1038A0002146179A059800F04DF805441CE004984D
:1038B000002807DBDDE90301884203DD0098405C56
:1038C000179901E0179930205A469047049805F15E
:1038D0000105401C04900198401E019004D12E2047
:1038E0005A46179990476D1CBAF10001AAF1010AD6
:1038F000DDDC05E017F8010B5A46179990476D1C5F
:10390000B8F10001A8F10108F4DC5B462146179AE2
:103910000598ABE62D0000002B0000002000000001
:103920002DE9F041044600251E461746880404D4BC
:1039300005E039462020B0476D1C641EF9D52846A5
:10394000BDE8F0812DE9F041044600251E46904671
:10395000C80301D5302700E02027880404D505E0FE
:1039600041463846B0476D1C641EF9D52846BDE86F
:10397000F081000070B504460D46E1B20548FFF73E
:103980000FF900BF0348008800F080000028F9D03C
:10399000204670BD00380140FDF7C6FE4FF40051CF
:1039A0001D48FDF72AFE4FF4A060FDF737FFFEF734
:1039B00047FF1A480068FEF7FDFEFEF7A5FFFCF77B
:1039C000C5FEFDF755FD0020FDF7D8FC14A0FFF75C
:1039D00067FB4FF066321E4B1EA0FFF761FB0C2108
:1039E0001EA0FFF75DFB00F0C1F913E01D48007851
:1039F000012806D11C488388428801881BA0FFF754
:103A00004FFB20480078012804D100201D49087090
:103A100000F03EF9EAE7000000100140000000203D
:103A20000D0A2D2D2D2D2D2D2053696D706C654F98
:103A30007363696C6C6F677261706820466F722087
:103A400053544D3332202D2D2D2D2D2D0D0A0000D8
:103A500066660A4056433A25660D0A0041443A25F7
:103A6000640D0A00050000200E00002043313A25B5
:103A7000640D0A43323A25640D0A43333A25640D36
:103A80000A0000000800002010B54FF400510C4857
:103A9000FDF7B1FD0B48007880B90B48007810B9EC
:103AA00000F064F90AE008480078042803D10020F7
:103AB000FDF764FC02E00120FDF760FC10BD000092
:103AC00000100140050000200900002038B505461F
:103AD00028788DF8000068788DF8010000208DF8B6
:103AE0000200E8783038C4B25AA16846FCF73CFBC3
:103AF00000284AD100214FF08040FEF74FFE072CEE
:103B00003FD2DFE804F0040C151E262E3600642098
:103B10005149086008460068FEF74CFE31E04FF45A
:103B20007A704D49086008460068FEF743FE28E0B9
:103B300042F210704849086008460068FEF73AFEF5
:103B40001FE046484449086008460068FEF732FE18
:103B500017E043484049086008460068FEF72AFE1F
:103B60000FE040483C49086008460068FEF722FE26
:103B700007E03C483849086008460068FEF71AFE2E
:103B800000BF00BF00F0F2F862E037A16846FCF722
:103B9000EBFA40BB35480470012035490870052C0C
:103BA00020D2DFE804F003060D141B0000F0DEF85D
:103BB00018E00820FDF7C8FB0120FDF7DFFB11E04E
:103BC0000C20FDF7C1FB0120FDF7D8FB0AE0102017
:103BD000FDF7BAFB0120FDF7D1FB03E00020FDF764
:103BE000CDFB00BF34E023A16846FCF7BDFAA0B9C5
:103BF00021480470007801280CD10020FDF7BEFB9D
:103C000001201B49087000201C4908801CA0FFF7F8
:103C100047FA1DE000F0AAF81AE01BA16846FCF77D
:103C2000A3FA70B91448007890B900214FF0804091
:103C3000FEF7B4FD01200E49087000200F490880EE
:103C400006E012A16846FCF78FFA08B900F08EF87A
:103C500038BD00004653000000000020A08601008F
:103C600090D0030020A10700544D0000090000205F
:103C700004000020534D0000050000200600002035
:103C800046533A300D0A00004142000054470000FC
:103C900010B500244FF066321D4B1EA0FFF700FA4E
:103CA0000C211EA0FFF7FCF91E4801681EA0FFF7BB
:103CB000F7F94FF480611EA0FFF7F2F900201E49CA
:103CC000087000BF1D4830F814101DA0FFF7E8F978
:103CD0001D4830F814101DA0FFF7E2F91D4830F818
:103CE00014101DA0FFF7DCF9601C80B20446B0F58B
:103CF000806F06DA1048007818B919480078002853
:103D0000E0D018A0FFF7CCF9FFF7BEFE10BD000011
:103D100066660A4056433A25660D0A0041443A2534
:103D2000640D0A000000002046533A25640D0A0085
:103D30004E4D3A25640D0A00040000205C0100206D
:103D400043313A25640D0A005C09002043323A25CC
:103D5000640D0A005C11002043333A25640D0A000B
:103D600005000020464E3A4F4B0D0A0010B50120C9
:103D70000F49087000200F4908800F4800880F493C
:103D800008800D4840880E4908800B4880880D49FE
:103D9000088008480088401C0649088001218807DF
:103DA000FEF7FCFC4FF400510748FDF726FC10BD60
:103DB00004000020060000200E0000205C0100200E
:103DC0005C0900205C11002000100140120100027B
:103DD000020000408304405700020102030109026F
:103DE0004300020100C03209040000010202010088
:103DF0000524001001052401000104240202052409
:103E0000060001070582030800FF09040100020AF9
:103E10000000000705030240000007058102400082
:103E200000040309041803480069006B0065007270
:103E300000200073007500640069006F00260356BF
:103E400000690072007400750061006C002000437E
:103E5000004F004D00200050006F007200740020E1
:103E600000200000843E0008000000205C010000EB
:103E7000C4060008283F00085C010020FC26000062
:103E8000D03000080415A086012D0102030404109F
:103E90000C06070809020406082603561269127266
:103EA000127412751261126C12201243124F1A4DC5
:103EB0000812503A6F181A2002011613BD120C1C7A
:103EC000088717040B100D1314512AC2A012081AE8
:103ED00004071379301408392F1B0861081A750478
:103EE00013292E1B0811101AF9081AA1041A8D049F
:103EF0001AD10441324029441A21280916741A396A
:103F00001C13CC3D3308121ADE08324313213E3312
:103F100008041A250832181A3D08322622282A20B9
:083F2000084129920124000070
:0400000508000131BD
:00000001FF
