:020000040800F2
:1000000078280020450100088D0300088F030008B0
:1000100093030008970300089B03000800000000FA
:100020000000000000000000000000009F03000826
:10003000A103000800000000A3030008A5030008B6
:100040005F0100085F0100085F0100085F01000810
:100050005F0100085F0100085F0100085B04000801
:100060005F0100085F0100085F0100085F010008F0
:100070005F0100085F0100085F0100085F010008E0
:100080005F0100085F0100085F0100085F010008D0
:10009000353800085F0100085F0100085F010008B3
:1000A0005F0100085F0100085F0100085F010008B0
:1000B000A70300085F0100085F0100085F01000856
:1000C0005F0100085F0100085F0100085F01000890
:1000D0005F010008FD0500085F0100085F010008DE
:1000E0005F0100085F0100083D3800085F0100085B
:1000F0005F0100085F0100085F0100085F01000860
:100100005F0100085F0100085F0100085F0100084F
:100110005F0100085F0100085F0100085F0100083F
:100120005F0100085F0100085F0100085F0100082F
:10013000DFF80CD005F0BCFB0048004723020008A4
:10014000782800200648804706480047FEE7FEE77B
:10015000FEE7FEE7FEE7FEE7FEE7FEE7FEE7FEE777
:10016000DB3200083101000810B54FF400515A4845
:1001700001F045FA5948007880B95948007810B91B
:1001800000F049F90AE056480078042803D100201D
:1001900000F06FFC02E0012000F06BFC10BD10B518
:1001A00000244FF066324F4B4FA005F04DFC0C2160
:1001B0004FA005F049FC5048016850A005F044FCF0
:1001C0004FF480614FA005F03FFC00204F490870BC
:1001D00000BF4F4830F814104EA005F035FC4F48D2
:1001E00030F814104EA005F02FFC4F4830F81410D2
:1001F0004EA005F029FC601C80B20446B0F5806F6B
:1002000006DA4248007818B9344800780028E0D06F
:1002100048A005F019FC49A005F016FCFFF7A4FF63
:1002200010BD00F03DFC4FF400512B4801F0E5F902
:100230004FF4A06001F0AEFE00F04EFC2E480068C6
:1002400000F05BFC00F042FA00F0C6FB00F0E3FBBC
:10025000002000F00EFC3EA005F0F6FB4FF06632E9
:10026000204B21A005F0F0FB0C2121A005F0ECFBB8
:1002700000F0D1F81EE019480078012811D140485B
:100280000488214623A005F0DFFB3D484488214631
:1002900023A005F0D9FB3A488488214623A005F025
:1002A000D3FB38480078012804D100203549087074
:1002B000FFF775FFDFE770B504460D46E1B232483F
:1002C00001F078FB00BF3048008800F08000002873
:1002D000F9D0204670BD000000100140050000204C
:1002E0000900002066660A4056433A25660D0A005A
:1002F00041443A25640D0A000000002046533A2587
:10030000640D0A004E4D3A25640D0A0004000020D9
:100310007C01002043313A25640D0A007C0900204D
:1003200043323A25640D0A007C11002043333A25FC
:10033000640D0A00464E3A4F4B0D0A0053454E4499
:100340005F46494E49534845442121210D0A00008A
:100350000D0A2D2D2D2D2D2D2053696D706C654F9F
:100360007363696C6C6F677261706820466F72208E
:1003700053544D3332202D2D2D2D2D2D0D0A0000DF
:100380000E0000200800002000380140704700BF28
:10039000FEE700BFFEE700BFFEE700BFFEE77047D5
:1003A00070477047704710B50121880702F011FFB0
:1003B00080B30121880702F01DFFA3480088A349EC
:1003C000A34A128821F812009F484188A148A04AF8
:1003D000128820F812109C4880889F499C4A1288F5
:1003E00021F812009A490888411C994A118040F26C
:1003F000FF3188420ED100214FF0804002F020FCF6
:1004000000209349088001209449087041039448D2
:1004100001F0F5F810BD10B50120924908700020D8
:100420008B49088088480088884908808648408829
:1004300088490880844880888749088084480088E3
:10044000401C834908800121880702F0F9FB4FF422
:100450000051834801F0D1F810BD10B5022001F021
:10046000A5FF38B1002000F004FB022001F0AFFF2F
:10047000FFF7D1FF10BD38B5054628788DF800008C
:1004800068788DF8010000208DF80200E878303897
:10049000C4B275A1684604F0FDFF00284AD10021CE
:1004A0004FF0804002F0CCFB072C3FD2DFE804F095
:1004B000040C151E262E360064206C490860084680
:1004C000006800F01AFB31E04FF47A706749086069
:1004D0000846006800F011FB28E042F21070634902
:1004E00008600846006800F008FB1FE060485F49AC
:1004F00008600846006800F000FB17E05D485B49B3
:1005000008600846006800F0F8FA0FE05A485749BA
:1005100008600846006800F0F0FA07E056485349C2
:1005200008600846006800F0E8FA00BF00BFFFF767
:1005300072FF62E051A1684604F0ACFF40BB504836
:100540000470012047490870052C20D2DFE804F030
:1005500003060D141B00FFF75EFF18E0082000F0F3
:1005600070FA012000F085FA11E00C2000F069FA21
:10057000012000F07EFA0AE0102000F062FA01206B
:1005800000F077FA03E0002000F073FA00BF34E0D7
:100590003CA1684604F07EFFA0B93B480470007897
:1005A00001280CD1002000F064FA01202D490870C8
:1005B00000202749088035A005F046FA1DE0FFF726
:1005C0002AFF1AE033A1684604F064FF70B92E4890
:1005D000007890B900214FF0804002F031FB0120FB
:1005E0002049087000201A49088006E02AA16846C0
:1005F00004F050FF08B9FFF70EFF38BD10B540F208
:100600002551264801F05AFAE0B12448001D00881F
:100610002349087008460178224802780078401C77
:10062000204B1870204881541D480078202809D19B
:1006300000201D491A4612788854194608701A4835
:10064000FFF719FF10BD00000E0000207C01002004
:10065000060000207C0900207C11002008000020FA
:10066000001001400400002046530000000000205C
:10067000A086010090D0030020A10700544D000087
:1006800009000020534D00000500002046533A3079
:100690000D0A0000414200005447000000380140AC
:1006A0000C0000200B0000207C19002008B525203C
:1006B0008DF8000000208DF801008DF80200012067
:1006C0008DF80300684601F06AFC08BD00B585B0EE
:1006D000012144F2040000F01FFE4FF40070ADF859
:1006E000100018208DF8130003208DF8120004A9C3
:1006F000714800F0D5FE4FF48060ADF81000042082
:100700008DF8130004A96C4800F0CAFE4FF4E120F4
:1007100000900020ADF80400ADF80600ADF8080028
:10072000ADF80C000C20ADF80A006946634801F0F2
:1007300048F8012240F22551604801F0DAF8012121
:100740005E4801F0CAF8FFF7B1FF05B000BDF0B593
:1007500003460D461646002729460A2E03D00020E0
:1007600008702846F0BD33B9302001F8010B002095
:1007700008702846F6E7002B03DA2D2001F8010B5C
:100780005B4242F210720DE093FBF2F404B937B110
:1007900004F1300001F8010B04FB123301270A2099
:1007A00092FBF0F2002AEFDC002008702846D9E71F
:1007B0000FB470B586B006460CA8019073E00B9894
:1007C00000785C281CD10B98401C0B9000786E2898
:1007D00009D072280FD10D21304601F0EBF80B98AB
:1007E000401C0B900BE00A21304601F0E3F80B9817
:1007F000401C0B9003E00B98401C0B9000BF4BE09B
:100800000B980078252840D10B98401C0B9000785D
:10081000642818D0732833D1019810C801900BE0D8
:100820002178304601F0C6F800BF4021304601F083
:100830002FF90028F9D0641C20780028F0D10B98FB
:10084000401C0B9020E0019820C801900A2202A9C8
:100850002846FFF77CFF02AC0BE02178304601F020
:10086000A9F800BF4021304601F012F90028F9D064
:10087000641C20780028F0D10B98401C0B9003E0FA
:100880000B98401C0B9000BF06E00B9810F8011B62
:100890000B90304601F08EF800BF4021304601F049
:1008A000F7F80028F9D00B980078002887D106B017
:1008B00070BC5DF814FB00000008014000380140E6
:1008C00008B50121084600F01AFD01214FF401701E
:1008D00000F022FD1C20ADF8000000208DF8030080
:1008E0006946404800F0DCFD08BD00B591B03E48C7
:1008F00001F0BEFB3D4801903D480290002003906E
:10090000032004900020059080200690400007906E
:10091000800008902020099000020A9000200B908F
:1009200001A9314801F046FC01212F4801F06DFC7E
:1009300000200C9001208DF834008DF835004FF424
:1009400060200E9000200F9003208DF840000CA92D
:1009500026484C3801F01DF94FF4404000F040FCAF
:1009600000230122022121484C3801F0AAF900237A
:10097000022203211D484C3801F0A3F90023032271
:1009800004211A484C3801F09CF9012117484C38D1
:1009900001F036F9012115484C3801F026F91348C9
:1009A0004C3801F044F900BF10484C3801F044F9CC
:1009B0000028F9D10D484C3801F048F900BF0B4828
:1009C0004C3801F048F90028F9D1012107484C388A
:1009D00001F04BF911B000BD10B5FFF771FFFFF743
:1009E00084FF10BD00080140080002404C24014073
:1009F0000E00002008B507208DF8000002208DF8B9
:100A0000010000208DF8020001208DF803006846E7
:100A100001F0C5FA08BD08B5FFF7ECFF0121092078
:100A200000F07AFC0121084600F050FE0220ADF8EB
:100A3000000004208DF803006946164800F030FDE0
:100A400008BD1CB504460220009000208DF804006B
:100A50008DF8054001208DF80600684601F040FC45
:100A600000208DF80600684601F03AFC0A48047040
:100A70001CBD012806D10949096841F00201074A55
:100A8000116005E00549096821F00201034A11607F
:100A900070470000000C01400A00002000040140E3
:100AA00008B50121102000F037FC4FF40050ADF8DC
:100AB000000010208DF8030003208DF80200694625
:100AC000044800F0EDFC4FF40051024800F097FD9F
:100AD00008BD00000010014008B51C208DF8000082
:100AE00001208DF8010000208DF8020001208DF812
:100AF0000300684601F053FA08BD3EB504460121E3
:100B0000084600F016FC1148B0FBF4F0401E80B21D
:100B1000ADF804004720ADF800000020ADF8060055
:100B2000ADF8020069464FF0804001F02DFD012133
:100B3000880702F04BFB01221146900702F09BF858
:100B400000214FF0804002F07BF83EBD40420F0094
:100B500003461A60D960596099600020704770B5EB
:100B600003461446002200209A6800BF11E0DD68A9
:100B70001E682E44551C2A46AE4200D8DA685D68CD
:100B8000954200D107E011F8015B9E6835709A60CC
:100B9000401CA042EBD300BF70BDF0B5034600205F
:100BA0000EE05C68651C5D6027780546401C4F556B
:100BB000DC681D682C445D68AC4201D8DC685C6070
:100BC0005C689D68AC4204D0904202D21C688442AA
:100BD000E7D8F0BD10B50146002200204A6808E0C1
:100BE000401CCB680C681C44531C1A469C4200D81D
:100BF000CA688B68934202D00B688342F0D810BD5C
:100C00002DE9F04704460E4617469C46DDF8208045
:100C1000616823680CE00878B04200D10FE0E0681A
:100C2000D4F800908144481C0146814500D8E16811
:100C3000A068884203D0181EA3F10103EBD100BFC6
:100C4000A068884202D10020BDE8F087581C08B98E
:100C50000020F9E70A46E068D4F800908144501C6F
:100C60000246814500D8E2680CE01078B84200D115
:100C70000FE0E068D4F800908144501C02468145A2
:100C800000D8E268A068904203D0181EA3F10103C7
:100C9000EBD100BFA068904201D10020D4E7581CDE
:100CA00008B90020D0E7E068D4F800908144501CD7
:100CB0000246814500D8E2682068C31A00250CE08E
:100CC00011F801AB28466D1C0CF800A0E068D4F8C0
:100CD00000904844884200D8E168914208D04545D8
:100CE00006D22068A84203D9181EA3F10103E7D158
:100CF00062602846A8E72DE9F04304460E461746F1
:100D00009C46616823680CE00878B04200D10FE08F
:100D1000E068D4F800808044481C0146804500D833
:100D2000E168A068884203D0181EA3F10103EBD14B
:100D300000BFA068884202D10020BDE8F083581CA3
:100D400008B90020F9E70A46E068D4F8008080443A
:100D5000501C0246804500D8E2680CE01078B04292
:100D600000D10FE0E068D4F800808044501C0246B7
:100D7000804500D8E268A068904203D0181EA3F115
:100D80000103EBD100BFA068904201D10020D4E75D
:100D9000581C08B90020D0E7E068D4F800808044EF
:100DA000501C0246804500D8E2682068C31A00251E
:100DB0000CE011F8019B28466D1C07F80090E068D4
:100DC000D4F800804044884200D8E168914208D0BD
:100DD000654506D22068A84203D9181EA3F1010375
:100DE000E7D1022D0BDC0025481E0146D4F80C800B
:100DF000404504D2E068D4F800804044411E616060
:100E000028469AE72DE9F04304460D4616461F464C
:100E1000616823680CE00878A84200D10FE0E06820
:100E2000D4F800808044481C0146804500D8E16821
:100E3000A068884203D0181EA3F10103EBD100BFC4
:100E4000A068884202D10020BDE8F083581C08B990
:100E50000020F9E78C46E068D4F8008080440CF16B
:100E600001008446804501D8D4F80CC0616823682D
:100E700000220EE091F800901046521C06F80090F7
:100E8000E068D4F800808044481C0146804500D8C2
:100E9000E168614505D0BA4203D2181EA3F10103EF
:100EA000E8D161601046CFE72DE9F04F04460D46CA
:100EB00016461F46DDF824804FF00009616823685C
:100EC00010E04D4503D10878B04200D111E091F80F
:100ED0000090E068D4F800A08244481C0146824596
:100EE00000D8E168A068884203D0181EA3F101036E
:100EF000E7D100BFA068884202D10020BDE8F08F92
:100F0000581C08B90020F9E78C46E068D4F800A026
:100F100082440CF101008446824501D8D4F80CC00B
:100F20006168236800220EE091F800B01046521C60
:100F300007F800B0E068D4F800A08244481C0146DD
:100F4000824500D8E168614505D0424503D2181EAC
:100F5000A3F10103E8D161601046CFE710B5044664
:100F60002360B2FBF3F0606021610020A060E060CC
:100F700010BD2DE9F0410446884615462E4600274F
:100F8000E768002617E0781C07466168884200D3AE
:100F90000027A068B84200D10FE02169E368D4F8C7
:100FA00000C003FB0C102268414604F061FA20687F
:100FB0008044E760761CAE42E5D300BF3046BDE812
:100FC000F0812DE9F04104460E461746002514E055
:100FD0002069A368D4F800C003FB0C0122683046E6
:100FE00004F046FA206806446D1CA068401CA0600E
:100FF0006168884201D30020A060A068E16888424F
:1010000004D06068A84201D9BD42E1D32846BDE8BA
:10101000F08110B50146002000228A6806E0401CDD
:10102000531C1A464C68A34200D30022CB6893425B
:1010300002D04B688342F2D810BD0000DF48006840
:1010400040F00100DD49086008464068DC4908407E
:10105000DA49486008460068DA490840D74908601C
:101060000846006820F4802008600846406820F4A4
:10107000FE0048604FF41F0088607047CF49096840
:1010800021F48031CD4A11601146096821F4802194
:101090001160B0F5803F03D0B0F5802F0ED106E08F
:1010A000C649096841F48031C44A116007E0C34968
:1010B000096841F4A021C14A116000E000BF00BFEF
:1010C000704710B501460022002300204A11012A72
:1010D00002D1BA4C236806E0022A02D1B74C236A37
:1010E00001E0B64C636A01F01F02012494401C40E9
:1010F0000CB1012000E0002010BD38B500200090A8
:101100000024002500BF3120FFF7DBFF05460098D3
:10111000401C00900098B0F5A06F01D0002DF2D0D7
:101120003120FFF7CEFF08B1012400E00024204663
:1011300038BD01460020A14A106820F0F80040EABE
:10114000C10010607047A049086070470246002047
:101150009A4B586820F47C1042EA01031843974BDD
:101160005860704798490866704701460020934AC6
:10117000506820F003000843506070478F48406873
:1011800000F00C007047014600208C4A506820F0A7
:10119000F00008435060704701460020874A5068BD
:1011A00020F4E06008435060704701460020834A05
:1011B000506820F4605040EAC1005060704729B187
:1011C0007E4A527A02437D4B5A7204E07B4A527A3D
:1011D00082437A4B5A7270477B49D8310860704716
:1011E00001460020754A506820F440400843506092
:1011F00070470021714A20321170704A82F8201025
:10120000012802D004280AD104E001216B4A2032CF
:10121000117005E00521694A2032117000E000BF1D
:1012200000BF70476949086070476449096A014313
:10123000624A11627047654944390860704730B5A9
:1012400000210022002400235C4D6D6805F00C0194
:1012500021B1042905D0082923D105E05C4D0560A2
:1012600022E05B4D05601FE0544D6D6805F470127F
:10127000524D6D6805F48034022505EB92421CB98D
:10128000544D554305600BE04C4D6D6805F4003539
:101290001DB1504D5543056002E04D4D554305606D
:1012A00002E04B4D056000BF00BF444D6D6805F086
:1012B000F0010909484D6B5C0568DD4045603F4D14
:1012C0006D6805F4E061090A434D6B5C4568DD40DB
:1012D00085603A4D6D6805F46051C90A3E4D6B5CFE
:1012E0004568DD40C560354D6D6805F44041890BAA
:1012F0003A4D6B5CC568B5FBF3F5056130BD29B1AE
:101300002E4A526902432D4B5A6104E02B4A52691E
:1013100082432A4B5A61704729B1284A9269024395
:10132000264B9A6104E0254A92698243234B9A61D5
:10133000704729B1214AD2690243204BDA6104E0A7
:101340001E4AD26982431D4BDA61704729B11B4A9C
:10135000D2680243194BDA6004E0184AD26882432B
:10136000164BDA60704729B1144A12690243134BD5
:101370001A6104E0114A12698243104B1A617047E6
:1013800012494039086070470F49C86470470B49DB
:10139000C87170470948406A40F080700749486248
:1013A000704701460020054A92680A400AB10120B0
:1013B00000E0002070470149887270470010024029
:1013C0000000FFF8FFFFF6FE0000424280044242A8
:1013D00000127A0000093D001400002024000020C3
:1013E00010B50446CC48844208D101210420FFF7FF
:1013F000ADFF00210420FFF7A9FF46E0C748844263
:1014000008D101210820FFF7A1FF00210820FFF7E4
:101410009DFF3AE0C248844208D101211020FFF725
:1014200095FF00211020FFF791FF2EE0BD48844278
:1014300008D101212020FFF789FF00212020FFF79C
:1014400085FF22E0B848844208D101214020FFF7FF
:101450007DFF00214020FFF779FF16E0B34884426A
:1014600008D101218020FFF771FF00218020FFF7C4
:101470006DFF0AE0AE48844207D101218015FFF7D5
:1014800065FF0021A015FFF761FF10BD10B5012118
:101490000846FFF75BFF00210120FFF757FF10BD53
:1014A0002DE9F041024600250026002000230024FB
:1014B000002791F803C00CF00F0591F803C00CF061
:1014C000100CBCF1000F03D091F802C04CEA0505E6
:1014D00091F800C0BCF1000F31D0146800202BE05F
:1014E0004FF0010C0CFA00F3B1F800C00CEA03064F
:1014F0009E4220D183004FF00F0C0CFA03F7BC433F
:1015000005FA03FC4CEA040491F803C0BCF1280F6F
:1015100006D14FF0010C0CFA00FCC2F814C00AE02E
:1015200091F803C0BCF1480F05D14FF0010C0CFA43
:1015300000FCC2F810C0401C0828D1D31460B1F8D8
:1015400000C0BCF1FF0F34DD546800202EE000F134
:10155000080C4FF0010808FA0CF3B1F800C00CEACF
:1015600003069E4221D183004FF00F0C0CFA03F7C3
:10157000BC4305FA03FC4CEA040491F803C0BCF137
:10158000280F05D100F1080C08FA0CF8C2F81480F5
:1015900091F803C0BCF1480F07D100F1080C4FF0DF
:1015A000010808FA0CF8C2F81080401C0828CED3B5
:1015B0005460BDE8F0814FF6FF7101800221817017
:1015C0000421C17070470246002093680B400BB1A4
:1015D000012000E0002070470146886880B2704713
:1015E00002460020D3680B400BB1012000E0002030
:1015F00070470146C86880B2704701617047416119
:1016000070470AB1016100E041617047C1607047F5
:101610004FF480320A43826181618261826982690A
:10162000704702460020434B18684FF680731840FD
:1016300040EA021008433F4B186070473E49C861BA
:101640007047F0B50A46002300240021002500F071
:101650000046B6F1004F02D1364EF16901E0354E39
:101660007168C0F3034583B200F44016B6F5401F1D
:1016700008D121F070612F4E766826F070662D4FEC
:101680007E6012E000F48016B6F5801F06D10326B6
:1016900006FA05F4A14341F0706106E0460D3601FB
:1016A00003FA06F6B14341F0706122B1460D3601EE
:1016B00003FA06F6314300F00046B6F1004F02D1BE
:1016C0001C4EF16101E01B4E7160F0BD30B500228F
:1016D0008B071C0F0F2303FA04F2164B08338C10F0
:1016E00053F824309343134C08348D1044F82530BC
:1016F00023468C1053F824308C07240F00FA04F48E
:1017000023430C4C08348D1044F8253030BD0A4971
:10171000DC3108607047000000080140000C014007
:10172000001001400014014000180140001C01405D
:1017300000200140000001400000204210B5044696
:10174000FB48844209D101218803FFF7FFFD0021F6
:101750004FF48040FFF7FAFD32E0F648844209D1A9
:1017600001214804FFF7FFFD00214FF40030FFF78F
:10177000FAFD25E0F048844209D101218804FFF7F1
:10178000F2FD00214FF48020FFF7EDFD18E0EB485B
:10179000844209D10121C804FFF7E5FD00214FF47F
:1017A0000020FFF7E0FD0BE0E548844208D101216D
:1017B0000805FFF7D8FD00214FF48010FFF7D3FD97
:1017C00010BD2DE9F04786B005460E460024A2461E
:1017D00000BFA1460027B08900B100BF2F462C8A68
:1017E0004CF6FF700440F08804432C82AC894EF61E
:1017F000F3100440B08831890843718908430443D9
:10180000AC81AC8A4FF6FF400440B0890443AC82FF
:1018100001A8FFF714FDC648874202D1DDF810A0E9
:1018200001E0DDF80CA0A88900F4004040B10AEB0B
:10183000CA0000EB0A1031684900B0FBF1F807E07C
:101840000AEBCA0000EB0A1031688900B0FBF1F81E
:101850006420B8FBF0F004012009642101FB108929
:10186000A88900F4004040B1322000EBC900B0FB71
:10187000F1F000F00700044308E0322000EB09100B
:101880006421B0FBF1F000F00F0004432C8106B09E
:10189000BDE8F0874FF41651016000218180C180BE
:1018A00001810C21418100218181704710B50246E0
:1018B0000020108A4FF2FF0318400B884C88234306
:1018C0008C882343CC8823431843108210BD002109
:1018D000018041808180C180704721B1828942F4BA
:1018E0000052828104E082894DF6FF731A408281A2
:1018F0007047F0B50346002400260025002040F67E
:101900006A17B94200D100BF1846C1F3421401F072
:101910001F06012707FA06F5012C01D10C3004E05F
:10192000022C01D1103000E014301AB107682F43A7
:10193000076002E00768AF430760F0BD1AB1838A11
:101940000B43838202E0838A8B4383827047028A3F
:101950004FF6F0731A400282028A0A4302827047ED
:1019600082894FF2FF731A40828182890A43828101
:10197000704721B1828942F00202828104E08289AB
:101980004FF6FD731A4082817047028A4FF6DF736B
:101990001A400282028A0A430282704721B1028AF7
:1019A00042F48042028204E0028A4BF6FF731A403E
:1019B00002827047C1F3080282807047014688881E
:1019C000C0F308007047818941F0010181817047AF
:1019D000028BD2B20283028B42EA01220283704759
:1019E000028B02F47F420283028B0A430283704718
:1019F00021B1828A42F02002828204E0828A4FF67C
:101A0000DF731A408282704721B1828A42F010024D
:101A1000828204E0828A4FF6EF731A408282704716
:101A200021B1828A42F00802828204E0828A4FF663
:101A3000F7731A408282704721B1828942F40042D2
:101A4000828103E08289C2F30E028281704721B154
:101A5000828A42F40062828204E0828A4FF2FF733B
:101A60001A4082827047828A4FF6FB731A40828244
:101A7000828A0A438282704721B1828A42F002023E
:101A8000828204E0828A4FF6FD731A408282704798
:101A900002460020B1F5007F00D100BF13880B4043
:101AA0000BB1012000E00020704701F40072B2F594
:101AB000007F00D100BFCA430280704770B5024664
:101AC000002400230025002040F66A16B14200D110
:101AD00000BFC1F3421501F01F03012606FA03F30C
:101AE000012D02D19689334006E0022D02D1168ADB
:101AF000334001E0968A33400C12012606FA04F4C2
:101B00001688344013B10CB1012000E0002070BDF4
:101B100010B50022002340F66A14A14200D100BF94
:101B20000A1201249440A3B2DC43048010BD0000DB
:101B3000003801400044004000480040004C004094
:101B40000050004010B50446FA48844208D10121F3
:101B50004015FFF7FBFB00216015FFF7F7FB17E0CF
:101B6000F548844208D101210015FFF7EFFB002161
:101B70002015FFF7EBFB0BE0F048844208D1012170
:101B8000C803FFF7E3FB00214FF40040FFF7DEFB43
:101B900010BD30B50246002000235068E84C2040BC
:101BA0000D790C6844EA0524204350609068E54CA8
:101BB0002040D1E902542C434D7944EA45042043A6
:101BC0009060D06A20F470000C7C641EE4B2234361
:101BD00040EA0350D06230BD0021016001714171C3
:101BE0008160C16001210174704721B1826842F0B7
:101BF0000102826003E0826822F001028260704785
:101C000021B1826842F48072826003E0826822F42B
:101C100080728260704710B50023CBB21AB144685D
:101C20001C43446002E044689C43446010BD8168EA
:101C300041F0080181607047014600208A6802F087
:101C400008020AB1012000E000207047816841F0DD
:101C5000040181607047014600208A6802F0040296
:101C60000AB1012000E00020704721B1826842F4EF
:101C7000A002826003E0826822F4A00282607047C2
:101C8000014600208A6802F480020AB1012000E0C7
:101C90000020704710B50A4600210023416821F456
:101CA0006041531E41EA4331416010BD21B1426899
:101CB00042F40062426003E0426822F40062426043
:101CC0007047F0B504460D4600200021092D11DDB6
:101CD000E068A5F10A0606EB4607072606FA07F1B3
:101CE0008843A5F10A0606EB460603FA06F1084307
:101CF000E0600CE0206905EB4507072606FA07F1CE
:101D0000884305EB450603FA06F108432061072ADC
:101D10000FDA606B561E06EB86071F2606FA07F1E0
:101D20008843561E06EB860605FA06F108436063F3
:101D300022E00D2A0FDA206BD61F06EB86071F263E
:101D400006FA07F18843D61F06EB860605FA06F168
:101D50000843206310E0E06AA2F10D0606EB860757
:101D60001F2606FA07F18843A2F10D0606EB860648
:101D700005FA06F10843E062F0BD21B1826842F441
:101D80008012826003E0826822F4801282607047D1
:101D90000146C86C80B2704766484C300068704796
:101DA00021B1426842F48062426003E0426822F45A
:101DB00080624260704721B1426842F480524260C2
:101DC00003E0426822F48052426070470A460021D4
:101DD000816821F4E04111438160704721B182683C
:101DE00042F40042826003E0826822F40042826092
:101DF000704721B1826842F40212826003E0826877
:101E000022F4021282607047014600208A6802F4C0
:101E100000120AB1012000E000207047F0B504462E
:101E20001546002000220026092911DDE068A1F1F5
:101E30000A0707EB470C072707FA0CF29043A1F1BA
:101E40000A0707EB470703FA07F21043E0600CE0CC
:101E5000206901EB410C072707FA0CF2904301EBD4
:101E6000410703FA07F210432061A06BC0F301564B
:101E7000EF1C06F1010CA7EB0C0707EB870C1F27E3
:101E800007FA0CF29043EF1C06F1010CA7EB0C07CC
:101E900007EB870701FA07F21043A063F0BD10B506
:101EA0000A4600210023816B21F44011531E41EAB0
:101EB0000351816310BD08B5002300930090009B7F
:101EC0000B440093009B1A6008BD08B50246002031
:101ED0000090009201F12800009B184400900098A7
:101EE000006880B208BD0A4600214168164B1940BF
:101EF0001143416070474162826270470A46002187
:101F0000416821F01F0111434160704740B1094908
:101F10000831096841F40001064A0832116007E0FF
:101F200004490831096821F40001024A08321160AD
:101F3000704700000024014000280140003C01409F
:101F4000FFFEF0FFFDF7F1FFFFFD3FFF024600201F
:101F500013680B400BB1012000E000207047CA431A
:101F60000260704770B502460020002300240B1267
:101F70005568CEB205EA060415681D4015B10CB1CE
:101F8000012000E0002070BD00220A12D34303604C
:101F90007047000031490143314A1160704770B504
:101FA000002100230F22C47804B32D4C246804F4CC
:101FB000E064C4F5E064210AC1F10403CA40447836
:101FC00004FA03F18478144021430901254C067872
:101FD000A155047804F01F050124AC4005786D116B
:101FE000AD0005F1E025C5F8004109E0047804F0F2
:101FF0001F050124AC401C4D0678761145F826409B
:1020000070BD1A4A0A400243154B1B1F1A607047E5
:1020100039B1134A121D12680243114B1B1D1A607D
:1020200006E00F4A121D126882430D4B1B1D1A60F9
:102030007047042808D14FF0E021096941F00401FC
:102040004FF0E022116107E04FF0E021096921F033
:1020500004014FF0E0221161704700000000FA0512
:102060000CED00E000E400E080E100E080FFFF1FF5
:1020700001684FF6FE72114001600021016041606D
:102080008160C1608D49884208D18C49083949680E
:1020900041F00F01894A083A51608AE087491431BA
:1020A000884208D185490839496841F0F001834ADE
:1020B000083A51607DE081492831884208D17F4942
:1020C0000839496841F470617C4A083A516070E00F
:1020D0007A493C31884208D178490839496841F445
:1020E0007041764A083A516063E074495031884241
:1020F00008D172490839496841F470216F4A083A99
:10210000516056E06D496431884208D16B49083905
:10211000496841F47001694A083A516049E06749E9
:102120007831884208D165490839496841F07061C1
:10213000624A083A51603CE06149884206D1011F79
:10214000096841F00F01021F116032E05C4914314F
:10215000884208D15A49091F096841F0F001584ADC
:10216000121F116025E056492831884208D1544990
:10217000091F096841F47061514A121F116018E08B
:102180004F493C31884208D14D49091F096841F443
:1021900070414B4A121F11600BE04949503188428F
:1021A00007D14749091F096841F47021444A121FA9
:1021B0001160704710B50022026847F6F0739A4329
:1021C0000C6A8B6823430C6923434C6923438C6955
:1021D0002343CC6923434C6A23438C6A23431A4329
:1021E0000260CB6843600B6883604B68C36010BDBE
:1021F0000021016041608160C160016141618161D4
:10220000C161016241628162704721B1026842F09E
:102210000102026004E002684FF6FE731A40026099
:1022200070471AB103680B43036002E003688B43F5
:1022300003607047416070470146486880B270474C
:1022400001460020002201F080531BB11C4B083BCB
:102250001A6802E0194B083B1A6802EA01030BB145
:10226000012000E00020704700F0805119B11449AE
:10227000091F086002E011490839486070470146AB
:102280000020002201F080531BB10D4B083B1A685F
:1022900002E00A4B083B1A6802EA01030BB1012075
:1022A00000E00020704700F0805119B10449091F77
:1022B000086002E0014908394860704708000240A0
:1022C00008040240002044490860091D0860091DF7
:1022D0000860091D086041483F4914310860704793
:1022E00000213D498279002A3AD00A4612680368E3
:1022F0009A430B461A600A1D126803689A430B1D25
:102300001A60027911440A6803681A430A60324A63
:102310000832126803689A432F4B08331A601A1D5B
:10232000126803689A432C4B0C331A604279102AC6
:102330000ED11A1F126803681A43274B08331A601C
:102340001A1D126803681A43234B0C331A600DE000
:102350002149427911440A6803681A430A6005E07A
:10236000027911440A6803689A430A6070470021A1
:10237000016001710C214171002181717047164982
:10238000103109680143144A103211607047014648
:102390000020114A143212680A400AB1012000E0FC
:1023A000002070470C491431086070470146002036
:1023B0000022094B1B6803EA0102074B14331B6818
:1023C0000B4013B10AB1012000E000207047024920
:1023D000143108607047000000040140FFFF0F0047
:1023E00010B50446FE48844208D10121C014FEF70E
:1023F000ADFF0021E014FEF7A9FFC4E0B4F1804F67
:1024000008D101210846FEF7AEFF00210120FEF7AA
:10241000AAFFB8E0F348844208D101210220FEF768
:10242000A2FF00210220FEF79EFFACE0EE488442AE
:1024300008D101210420FEF796FF00210420FEF7B9
:1024400092FFA0E0E948844208D101210820FEF76C
:102450008AFF00210820FEF786FF94E0E4488442CA
:1024600008D101211020FEF77EFF00211020FEF789
:102470007AFF88E0DF48844208D101212020FEF75E
:1024800072FF00212020FEF76EFF7CE0DA488442D4
:1024900008D101214014FEF759FF00216014FEF716
:1024A00055FF70E0D548844209D10121C804FEF7E8
:1024B0004DFF00214FF40020FEF748FF63E0D048B5
:1024C000844209D101210805FEF740FF00214FF4A5
:1024D0008010FEF73BFF56E0CA48844209D1012133
:1024E0004805FEF733FF00214FF40010FEF72EFFE2
:1024F00049E0C548844208D101214020FEF733FF5E
:1025000000214020FEF72FFF3DE0C048844208D163
:1025100001218020FEF727FF00218020FEF723FF06
:1025200031E0BB48844208D101218015FEF71BFF32
:102530000021A015FEF717FF25E0B648844209D117
:1025400001210804FEF702FF00214FF48030FEF75E
:10255000FDFE18E0B048844209D101214804FEF78D
:10256000F5FE00214FF40030FEF7F0FE0BE0AB4823
:10257000844208D101218804FEF7E8FE00214FF4CF
:102580008020FEF7E3FE10BD00220288944B9842A3
:102590000ED0994B98420BD0B0F1804F08D0914BA0
:1025A000984205D0904B984202D0904B984204D16B
:1025B0004FF68F731A404B881A438D4B984207D0C1
:1025C0008C4B984204D04FF6FF431A40CB881A43F5
:1025D00002808B8883850B880385814B98420BD0C2
:1025E000854B984208D08B4B984205D08A4B984235
:1025F00002D08A4B984201D10B7A03860123838251
:10260000704770B5002400220023058C4FF6FE763B
:1026100035400584028C8388048B4FF68F752C40DF
:10262000B51E2C400D882C43751E2A400D892A4367
:102630004D882A436A4DA8420BD06F4DA84208D05E
:10264000744DA84205D0744DA84202D0734DA842E3
:1026500013D14FF6F7752A404D892A434FF6FB7583
:102660002A408D882A434FF6FF652B404FF6FF55D1
:102670002B408D892B43CD892B4383800483CD88C8
:102680008586028470BD70B5002400220023058C6D
:102690004FF6EF7635400584028C8388048B48F62C
:1026A000FF752C404FF6FF452C400D884FF6FF7606
:1026B00006EA05252C434FF6DF752A400D8906EA08
:1026C00005152A434D8806EA05152A43444DA842BC
:1026D00002D0494DA8421DD14FF67F752A404D8941
:1026E0004FF6FF7606EA05152A434FF6BF752A40D6
:1026F0008D8806EA05152A434FF6FF352B404FF229
:10270000FF752B408D8906EA85052B43CD8906EAA6
:1027100085052B4383800483CD880587028470BDA3
:1027200070B5002400220023058C4FF6FF6635406B
:102730000584028C8388848B4FF68F752C404FF66E
:10274000FC752C400D882C434FF6FF552A400D890F
:102750004FF6FF7606EA05252A434D8806EA052549
:102760002A431F4DA84202D0234DA8421DD14FF24B
:10277000FF752A404D894FF6FF7606EA05252A4364
:102780004FF6FF352A408D8806EA05252A434EF686
:10279000FF752B404DF6FF752B408D8906EA051518
:1027A0002B43CD8906EA05152B4383808483CD888E
:1027B0008587028470BD70B5002200230024058C3B
:1027C0004EF6FF7635400584038C8488828B48F66C
:1027D000FF752A404FF6FF452A400D8820E0000093
:1027E000002C01400004004000080040000C0040A4
:1027F000001000400014004000340140004C014033
:10280000005001400054014000180040001C0040EE
:1028100000200040004001400044014000480140C9
:102820004FF6FF7606EA05252A434DF6FF752B4045
:102830000D8906EA05352B434D8806EA05352B43FD
:10284000FA4DA84202D0FA4DA84208D14BF6FF75C6
:102850002C408D894FF6FF7606EA85152C4384803F
:102860008283CD88A0F84050038470BD828B4FF2E4
:10287000FF331A408283828B4FF6FF7303EA0123F2
:102880001A4382837047F0B50C461546002200219A
:102890000026078C4EF6FF7C07EA0C070784828B24
:1028A000018C4FF6FF7707EA043640F6FF473A40BF
:1028B0004FF6FF7707EA05273A434FF6FF7707EA17
:1028C00003373A43D94FB8420ED0D94FB8420BD054
:1028D000B0F1804F08D0D74FB84205D0D64FB8429C
:1028E00002D0D64FB84206D14DF6FF77394046F4B4
:1028F0008057394305E047F6FF57394044F4805785
:10290000394382830184F0BD828B4FF6F3731A4002
:102910008283828B0A4382837047F0B50C4615464A
:10292000002200210026078C4FF6FF6C07EA0C07F7
:102930000784828B018C4FF6FF7707EA04264FF657
:102940000C773A404FF6FF7707EA03172F433A43D5
:10295000B64FB8420ED0B64FB8420BD0B0F1804F50
:1029600008D0B44FB84205D0B34FB84202D0B34FED
:10297000B84206D14FF6FF57394046F480773943C5
:1029800005E04FF2FF57394044F4807739438283A2
:102990000184F0BD028B4FF2FF331A400283028B99
:1029A0004FF6FF7303EA01231A4302837047F0B521
:1029B0000C461546002200210026078C4FF6EF7CBE
:1029C00007EA0C070784028B018C4FF6FF7707EAB2
:1029D000041640F6FF473A404FF6FF7707EA033701
:1029E0003A434FF6FF7707EA05273A438F4FB8423D
:1029F0000ED08F4FB8420BD0B0F1804F08D08D4F22
:102A0000B84205D08C4FB84202D08C4FB84206D1A4
:102A10004FF6DF77394046F01007394305E04FF6AF
:102A20005F77394044F01007394302830184F0BDD9
:102A3000028B4FF6F3731A400283028B0A43028320
:102A40007047F0B50C46154600220021068C4FF663
:102A5000FE773E400684028B018C4FF60C763240A6
:102A60007E1C06EA03162E433243704EB0420ED04F
:102A70006F4EB0420BD0B0F1804F08D06D4EB042D7
:102A800005D06D4EB04202D06C4EB04206D14FF62A
:102A9000FD76314044F00106314305E04FF6F5760E
:102AA000314044F00106314302830184F0BD70B52A
:102AB00005460C465D4885420ED05D4885420BD0E8
:102AC000B5F1804F08D05B48854205D05A48854211
:102AD00002D05A48854200D100E000BF208850B99A
:102AE0002389A28861882846FFF7ABFFE188284642
:102AF000FFF79EFF25E0208804280AD12389A288B9
:102B000061882846FFF753FFE1882846FFF742FF18
:102B100017E0208808280AD12389A28861882846DE
:102B2000FFF7FBFEE1882846FFF7EEFE09E0238968
:102B3000A28861882846FFF7A6FEE1882846FFF7AD
:102B400095FE70BD2DE9F04105460C460026012793
:102B5000608808B9022600E00026A088012801D17B
:102B6000022700E001272088A0B92389A288618874
:102B70002846FFF766FFE1882846FFF759FF2389BB
:102B80003A4631462846FFF712FFE1882846FFF70C
:102B900001FF13E02389A28861882846FFF707FF19
:102BA000E1882846FFF7F6FE23893A463146284653
:102BB000FFF747FFE1882846FFF73AFFBDE8F081BD
:102BC0000A884B881A438B881A43CB881A430B898F
:102BD0001A434B891A438B891A43A0F84420704743
:102BE0004FF6FF71818000210180C1804180017218
:102BF00070470021018041808180C1800181418135
:102C00008181C18170470021018041800121818043
:102C10000021C180018170470021018041808180B5
:102C2000C18001814181818170470000002C0140F9
:102C3000003401400004004000080040000C004047
:102C400021B1028842F00102028004E002884FF6BE
:102C5000FE731A400280704731B1B0F8442042F44C
:102C60000042A0F8442005E0B0F84420C2F30E0270
:102C7000A0F8442070471AB183890B43838102E096
:102C800083898B43838170478182704741EA0203C5
:102C9000A0F8483070471AB183890B43838102E062
:102CA00083898B438381704701894FF6F872114005
:102CB000018170470A46002101894FF68F73194040
:102CC00011430181704730B504460D462946204620
:102CD000FFF7F0FF208940F00700208130BD2DE98B
:102CE000F04104460D4616461F46602D06D13B4670
:102CF000012231462046FFF75AFE05E03B460122FD
:102D000031462046FFF79DFE29462046FFF7D2FFB9
:102D1000208940F007002081BDE8F08130B50C46E5
:102D200000210189C9B24FF6FF7505EA0325154355
:102D300025432943018130BD2DE9F04105460E466A
:102D400017469846002443463A4631462846FFF740
:102D5000E5FF2C894FF6F870044044F007044FF665
:102D60008F70044044F070042C81BDE8F081F0B510
:102D700004460D4616461F463B4632462946204627
:102D8000FFF7CCFF208940F480402081F0BD018511
:102D9000828270470A46002101884FF68F731940DE
:102DA000114301807047F0B50C4615461E460021C0
:102DB000002200230189028B038C4FF6F8773940FB
:102DC00021434FF6FC473A4040F201173A434FF691
:102DD000DD773B404FF6FF7707EA06172F433B436B
:102DE000018102830384F0BD0A460021018B4FF666
:102DF0008F7319401143018370470A460021018BEC
:102E000048F6FF7319404FF6FF7303EA0223194394
:102E1000018370470A460021818B4FF68F7319405A
:102E20001143818370470A460021818B48F6FF7366
:102E300019404FF6FF7303EA022319438183704759
:102E400021B1028842F08002028004E002884FF63D
:102E50007F731A400280704721B1828842F00402D9
:102E6000828004E082884FF6FB731A4082807047AC
:102E700021B1828842F00802828004E082884FF605
:102E8000F7731A408280704721B1828842F00102B4
:102E9000828004E082884FF6FE731A408280704779
:102EA0000A460021018B4FF6F77319401143018345
:102EB00070470A460021018B4FF2FF7319404FF60D
:102EC000FF7303EA02231943018370470A46002176
:102ED000818B4FF6F77319401143818370470A467F
:102EE0000021818B4FF2FF7319404FF6FF7303EA05
:102EF00002231943818370470A460021018B4FF654
:102F0000FB7319401143018370470A460021018B6E
:102F10004FF6FF3319404FF6FF7303EA02231943BC
:102F2000018370470A460021818B4FF6FB731940DD
:102F30001143818370470A460021818B4FF6FF338E
:102F400019404FF6FF7303EA022319438183704748
:102F50000A460021018B4FF67F731940114301830C
:102F600070470A460021018BC1F30E014FF6FF7333
:102F700003EA02231943018370470A460021818B2B
:102F80004FF67F7319401143818370470A46002131
:102F9000818BC1F30E014FF6FF7303EA022319433D
:102FA000818370470A460021018C4FF6FD7319405A
:102FB0001143018470470A460021018C4FF6F773D4
:102FC00019401143018470470A460021018C4FF6D5
:102FD000DF7319404FF6FF7303EA021319430184AC
:102FE00070470A460021018C4FF67F7319404FF657
:102FF000FF7303EA02131943018470470A46002154
:10300000018C4FF6FF5319404FF6FF7303EA02237A
:103010001943018470470A460021018C4FF2FF7367
:1030200019404FF6FF7303EA0223194301847047E6
:103030000A460021018C4DF6FF7319404FF6FF73CD
:1030400003EA023319430184704730B50023012499
:103050008C40A3B2048C9C430484048C02FA01F5D6
:10306000ADB22C43048430BD30B5002304248C4021
:10307000A3B2048C9C430484048C02FA01F5ADB223
:103080002C43048430BD70B503460020002418464C
:10309000183001258D40ACB21D8CA5431D8409B1AB
:1030A000082909D100EB6100056825F0700505606D
:1030B0000568154305600EE00D1FC5F34E05284455
:1030C000056825F4E045056005684FF6FF7606EAD9
:1030D00002263543056070BD21B1028842F002022C
:1030E000028004E002884FF6FD731A4002807047A8
:1030F00021B1028842F00402028004E002884FF607
:10310000FB731A400280704721B1828842F080022E
:10311000828004E082884FF67F731A408280704775
:1031200002884FF6F7731A40028002880A43028031
:10313000704782884FF68F731A40828082880A43D4
:103140008280704702894FF6F8731A400281028923
:103150000A430281704702894FF67F731A40028149
:1031600002890A43028170478184704781857047D4
:10317000818670470187704781877047A0F84010AB
:10318000704702884FF6FF431A40028002880A43C4
:10319000028070470146888E70470146088F70474D
:1031A0000146888F70470146B1F8400070470146DC
:1031B000888C70470146088D704702460020138AAC
:1031C0000B400BB1012000E000207047CA4302828F
:1031D000704730B50246002000230024158A05EA16
:1031E0000103958905EA010413B10CB1012000E047
:1031F000002030BDCA430282704700000CB5002099
:10320000019000906C48006840F480306A49086082
:1032100000BF6948006800F4003000900198401C2D
:103220000190009818B90198B0F5A06FF1D16248EB
:10323000006800F4003010B10120009001E000208F
:1032400000900098012843D15C48006840F01000CD
:103250005A4908600846006820F0030008600846E4
:10326000006840F0020008605348406852494860D6
:103270000846406848600846406840F480604860FE
:103280000846406820F47C1048600846406840F4D6
:10329000E81048600846006840F08070086000BF91
:1032A0004548006800F000700028F9D042484068A6
:1032B00020F00300404948600846406840F00200A2
:1032C000486000BF3C48406800F00C000828F9D175
:1032D0000CBD10B5FFF792FF10BD10B53648006861
:1032E00040F001003449086008464068344908400D
:1032F0003149486008460068324908402E49086054
:103300000846006820F4802008600846406820F4E1
:10331000FE0048604FF41F008860FFF7DAFF4FF0AF
:1033200000602949086010BD10B50021002000226E
:10333000214B5B6803F00C0121B1042906D0082958
:1033400028D107E0214B224C236027E01F4B204C63
:10335000236023E0184B5B6803F47010164B5B6826
:1033600003F48032022303EB904022B9194B43430C
:10337000174C23600DE0104B5B6803F4003323B15E
:10338000144B4343124C236003E0104B4343104C57
:10339000236003E00D4B0E4C236000BF00BF064BC3
:1033A0005B68C3F303130C4CE15C094B1B68CB4017
:1033B000074C236010BD00000010024000200240B6
:1033C0000000FFF8FFFFF6FE08ED00E000127A00B3
:1033D0002800002000093D002C00002008B54FF413
:1033E000A06267496748FDF7B3FB4FF4A0626649E6
:1033F0006648FDF7ADFB01210802FDF78DFF4FF494
:103400000060ADF8000003208DF8020010208DF858
:10341000030069465E48FEF743F84FF48020FEF74C
:10342000D6FF4FF480205B490860082048710120D6
:1034300088710846FEF754FF08BD10B50020FDF75F
:10344000CBFE0121C805FDF774FF10BD03205249D2
:10345000086070475148817A19B105214E4A1160C0
:1034600002E001214C4A1160704708B514208DF824
:10347000000000208DF801008DF8020001208DF879
:1034800003006846FEF78BFD2A208DF8000000201F
:103490008DF801006846FEF782FD08BD10B50446B0
:1034A0002CB94FF400613A48FEF7A9F804E04FF454
:1034B00000613748FEF7A1F810BD10B5FFF78EFF89
:1034C000FFF7BBFFFFF7D1FF01F0A4F910BD70B506
:1034D00004460D462A4621462A48FDF75EFB70BD8C
:1034E00070B504460D462A4621462648FDF737FBAF
:1034F00070BD70B504460D462A4621462348FDF7A7
:103500004CFB70BD70B504460D462A4621461F4847
:10351000FDF725FB70BD30B50B46002100BF16E05E
:103520000A24B4EB107F05D9302404EB107403F89F
:10353000114005E0412404EB10740A3C03F81140EB
:10354000000100254C00641C1D554C1CE1B2914249
:10355000E6DB30BD70B512480468001D0568001D2B
:103560000668344454B108220E492046FFF7D3FFC1
:1035700004220C4910312846FFF7CDFF70BD000032
:10358000B819002098190020B81E0020A8190020A2
:10359000002001404000002050010020582400205D
:1035A000E8F7FF1F4A00002010B5002428480078E3
:1035B000012819D140212748FFF79BFF84B2002C36
:1035C0000FDD2246C021234801F0E0FA2146012008
:1035D00001F03DFD012001F0C1FB00201E49086003
:1035E00002E000201A49087010BD10B51B48FCF716
:1035F00042FF032001F0CAFB10BD10B5002418489B
:103600000068052822D112480078F8B912490868E4
:10361000411C114A1160052818D10020114608608C
:1036200040210C48FFF765FF84B2002C0EDD2246D6
:10363000C021084801F0AAFA2146012001F007FD47
:10364000012001F08BFB01200149087010BD000032
:1036500070000020B823002074000020F823002010
:103660005001002010B588B00024694800686949FD
:1036700008800846008800F40070674909880840FF
:1036800050B14FF6FF506249086064480078401C12
:1036900062490870FFF7B1FF5E48008800F40040FF
:1036A0005D490988084008B101F0D2F859480088FE
:1036B00000F4806058490988084030B14FF6FF3067
:1036C000534908605649486880475248008800F4CA
:1036D000005051490988084018B14DF6FF704C4917
:1036E00008604C48008800F480504B490988084025
:1036F00030B14EF6FF7046490860002000F071FAC4
:103700004448008800F4006043490988084060B1DB
:103710004448007810B100F0DEF902E0022000F029
:1037200060FA4FF2FF703A4908603A48008800F4A6
:103730008070394909880840002866D04FF6FF603C
:1037400033490860081D006800F40040002856D086
:1037500035480068401C3449086008460068032862
:1037600050D92B48001F006800F00800002849D1FC
:103770002748001F006880B22C490860002408E038
:103780002B4901EB8400D0F8000C80B24DF82400E6
:10379000641C082CF4D32548006840F0010023493C
:1037A00008600846006880B21949091F08601F4870
:1037B000006820F001001D4908600846006880B2DA
:1037C0001349091F086000BF1148006800F48060B9
:1037D0000028F9D04FF6FF300D490860002408E0BA
:1037E0005DF8240080B2124A02EB8401C1F8000C9B
:1037F000641C082CF4D300200B49086002E0002070
:1038000009490860072000F0ECF908B010BD00007D
:10381000445C0040780000206E0100207A00002007
:10382000CC000020540100207C00002080000020FB
:103830000050004010B5FFF715FF10BD10B54FF454
:103840008020FEF7C4FD10BD10B5FFF783FE0020F9
:1038500082490968887200F015F901F0C9FD00205D
:103860007F49086010BD10B500207C490968887246
:103870007C48C0797949096848720020774909680D
:10388000C87201F0CFF94FF40071002001F0E4F9A3
:103890001021002001F0F9F94021002001F0B3FBD4
:1038A0008021002001F0A3FB002001F0ABFA6E485C
:1038B00090F82C10002001F0ECFB002001F066FADB
:1038C0000021012001F0C8F9C021012001F08FFB87
:1038D0002021012001F0D9F90021012001F0F3F9A4
:1038E0004FF4C061022001F0B7F94FF4807102205B
:1038F00001F07DFB0021022001F0E5F920210220EA
:1039000001F0C3F90021032001F0A6F94FF48871FA
:10391000032001F078FB4021032001F0BAFB4FF4B3
:103920004051032001F0CFF90021032001F0ADF94F
:10393000002000F0E0FE01204949086010BD4B481E
:10394000817A11B10521464A11607047042044492B
:103950000860704746480078202802D1002044497A
:10396000087070477047014629B908203B4A126821
:103970001082002070473F48FCE7014629B9082023
:10398000364A12681082002070473A48FCE770B54A
:1039900004460025212C09D130480068007800F049
:1039A0007F00212810D1AFF22D050DE0202C0BD186
:1039B0002A480068007800F07F00212801D1AFF28A
:1039C000590520202A4908700DB9022070BD2348EE
:1039D0000068856100212148006841820020A847D5
:1039E0000020F3E701461D480068007800F07F00E2
:1039F000212807D1022901D100207047222901D1B5
:103A00000020FAE70220F8E710B504461A492046DC
:103A100000F067FB10BD10B504461849204600F0C1
:103A200060FB10BD70B505460C480068C478042CD6
:103A300001DD002070BD124800EBC401284600F0F3
:103A400050FBF7E70246002901DD02207047012AFA
:103A500001DD0220FAE70020F8E700006401002001
:103A6000500100202C630008CC00002058240020C6
:103A7000BC000020C0000020200100202801002000
:103A80003001002010B50120FFF708FD0124854812
:103A90000460002084490880084600888149086045
:103AA0000020091D08604FF4E0507F490880084657
:103AB00000887C490860002010BD10B501207949BC
:103AC00008600020091D0860FFF7E8FC0320754925
:103AD0000860002010BD38B50021002200230093AB
:103AE000704B1B6898B200BF09E0704C04EB810377
:103AF000D3F8003C9BB26E4C44F82130491C082995
:103B0000F3D340F48060674B186040F00100186008
:103B100020F00100186000BF624B1B1D1B6803F4FE
:103B20008063002BF8D04FF6FF335E4C241D2360DA
:103B3000002109E05E4B53F821309BB25B4D05EB51
:103B40008104C4F8003C491C0829F3D340F0080064
:103B5000544B18601B6898B240F00400514B186039
:103B6000544B1B680093534B1A6822F0030242F037
:103B700001021A60504B1B6843F004034E4C236053
:103B8000484B1B1D1B6803F480532BB923461B684D
:103B900023F00403236014E04EF6FF73414C241D10
:103BA0002360231F1B6898B220F00800231F1860B1
:103BB000404C009B2360404B1B6823F004033E4CA9
:103BC000236038BD10B53748006884B224F004047F
:103BD00034480460FFF73EFC4FF43F403149086031
:103BE00010BD70B50546072D01D034480570334827
:103BF000007808284ED2DFE800F004111A202B3894
:103C00004E4F2F48006828B9FFF7DCFF06202B49EC
:103C1000087002E005202949087041E0FFF7D2FF53
:103C200004202649087001202549086038E0022058
:103C3000224948700320087032E020484078401E36
:103C40001E4948700846407808B90420087027E0EB
:103C50001448006884B244F010041248046005203F
:103C6000164908700A2048701AE014484078401E2F
:103C7000124948700846407858B90A48006884B22A
:103C800024F01004074804600620087000200C4946
:103C9000086005E000BF00BF06200849087000BFAB
:103CA00000BF70BD405C00406E010020005000402D
:103CB000382400200070004010ED00E05501002085
:103CC0005801002010B504462CB90120F6490968B6
:103CD0000882002010BDF549096808688047F2484D
:103CE00000680A30F6E710B5EF480068C078F04980
:103CF0004978884213DCEC480068807878B9EA4853
:103D00000068808858B9E8480068C078E6490968C2
:103D10008872E649096848688047002010BD022083
:103D2000FCE710B504462CB90120DF490968088278
:103D3000002010BDDD49096888688047DA480068BE
:103D40000C30F6E710B5D84B1B68D978D64B1B68FA
:103D50005879D84B1B689A6990470446D248006846
:103D6000807AE8B13CB9D0480068007918B9CE48EB
:103D70000068807808B1022010BD8CB9CB49096871
:103D8000C8688047C84800684079C7490968C87250
:103D9000C5480068C078C449096808730020EBE78B
:103DA0000220E9E710B504462CB90220BE49096893
:103DB0000882002010BD0020BF490880BA48006872
:103DC000007800F07F0018BBB7490968487A00F016
:103DD000200131B1B849097841F00201B64A1170A9
:103DE00005E0B549097801F0FD01B34A117000F012
:103DF000400131B1B049097841F00101AE4A11707A
:103E000005E0AD49097801F0FE01AB4A11703AE0D6
:103E1000A5480068007800F07F00012801D1A6487D
:103E2000C8E7A1480068007800F07F00022828D188
:103E30009D4A1268517901F00F0001F080027AB1B9
:103E40009E4B03EB8002D2F8002C02F03002102AC5
:103E500016D1994A127842F00102974B1A700FE07E
:103E6000964B03EB8002D2F8002C02F44052B2F5DC
:103E7000805F05D1904A127842F001028E4B1A7091
:103E800001E0002096E789490968086980478A4867
:103E900090E72DE9F04784480068007800F07F083B
:103EA000B8F1000F0AD180480068407A00F0DF00C6
:103EB0007D49096848720020BDE8F087B8F1020F1B
:103EC0007ED179480068408818B977480068007941
:103ED00008B10220F0E7DFF8D8917348006847790D
:103EE00027F080052C4670480068407900F080007B
:103EF00038B1724901EB8400D0F8000C00F03006B4
:103F000006E06E4901EB8400D0F8000C00F4405646
:103F100099F80000A84204D91EB163480068807A6D
:103F200008B90220C8E707F0800080B1634901EBBF
:103F30008400D0F8000C00F0300010284BD1E0B223
:103F400001F01DF8E0B2302100F09FFE43E05B4934
:103F500001EB8400D0F8000C00F44050B0F5805F15
:103F600039D1E4B9564A92F82C10E0B201F091F838
:103F7000524A02EB8401D1F8001C4BF68F7201EA21
:103F8000020080F4805080F4005040F4004141F081
:103F900080014A4B03EB8402C2F8001C1BE0E0B234
:103FA00000F0D5FF454A02EB8401D1F8001C4BF626
:103FB0008F7201EA020080F4805080F4005000E02B
:103FC0000FE040F4004141F080013C4B03EB8402E0
:103FD000C2F8001C00BF35490968486980470020C5
:103FE0006AE700BF022067E72DE9F0412E4800682C
:103FF000467926F080073C462B480068407900F05F
:10400000800038B12D4901EB8400D0F8000C00F09D
:10401000300506E0294901EB8400D0F8000C00F4DB
:10402000405523480078A04208D91F4800684088BE
:1040300020B91DB11C480068807A10B90220BDE883
:10404000F08106F08000A0B11C4A02EB8401D1F897
:10405000001C48F6BF7201EA020080F0100040F434
:10406000004141F08001154B03EB8402C2F8001CB3
:1040700014E0124A02EB8401D1F8001C4BF68F7257
:1040800001EA020080F4805040F4004141F08001D8
:104090000A4B03EB8402C2F8001C00BF0349096805
:1040A000886980470020CAE7640100207001002071
:1040B000C8000020680100205C0100200050004082
:1040C000CC00002010B5F7480068407A40F020008E
:1040D000F44909684872F4490968C86980470020B2
:1040E00010BD10B50246EF480068438A32B988888F
:1040F000C01AEC4C24682082002010BD08681844C7
:10410000FBE72DE9F041E748006800F1100426883C
:10411000A068C0B1BEB1A588B54200D93546A8B2E5
:10412000A168884707462088401B20806088284473
:104130006080002000F07FFF8046AAB241463846EA
:1041400000F03EFD00BF208850B14FF44050D749E9
:1041500008800021084600F07AFF3020D44908800A
:104160002088A188884204DB0320CE4909680872B0
:1041700018E02088002804DD0520CA490968087273
:1041800010E0208870B90620C6490968087200212D
:10419000C848006880B2801CC74A42F8101030201E
:1041A000C3490880BDE8F0812DE9F047BD480068AB
:1041B00000F110052E88BB480068077AD6B9042F95
:1041C00018D1BE48007801280FD10021B9480068F5
:1041D00080B2801CB84A42F810103020B4490880E0
:1041E00000BF0020B549087003E007271020B04940
:1041F000088027E0AC88A64201D8042000E0022015
:104200000746B44200D93446A0B2A9688847804620
:10421000002000F005FF8146A2B24946404600F06A
:10422000B5FCA1B2002000F012FF2888001B2880F6
:1042300068882044688030209D49088000029B499E
:10424000088000BF974909680F72BDE8F08770B514
:10425000022694480068447892480068007800F08C
:104260007F00002844D1092C03D1FFF73CFD06460E
:104270005FE0052C14D18B480068C0787F280BDCE8
:1042800088480068807838B986480068808818B9FE
:1042900084480068807A08B1082565E0002648E077
:1042A000032C0ED17F480068C078012807D17D48D3
:1042B0000068808818B9FFF705FF064639E0022636
:1042C00037E0012C35D177480068C07801280DD13E
:1042D00074480068808848B972480068407A00F0E5
:1042E000200018B1FFF7D5FD064622E0022620E0A7
:1042F0006C480068007800F07F00012805D10B2C85
:1043000017D1FFF71FFD064613E0664800680078E6
:1043100000F07F0002280BD1012C03D1FFF7B9FD7B
:10432000064606E0032C04D1FFF75EFE064600E0D9
:1043300002264EB1E0B2624A1268516988470646C9
:10434000032E01D109250FE00EB108250CE006254A
:1043500000215848006880B2801C574A42F810106B
:1043600030205349088000BF4E4909680D7270BD66
:104370002DE9F84F4B48006845780027BA46062DCE
:104380001BD148480068007800F07F00002813D156
:10439000444909688878012803D149490968CF69E7
:1043A0000AE0022803D1464909680F6A04E003289D
:1043B00002D1434909684F6AADE0002D67D1394801
:1043C00000684088002862D136480068C08802280A
:1043D0005DD1344800680079002858D13148006820
:1043E000007800F07F0030B92E480068808810B94E
:1043F000AFF24F678FE02B480068007800F07F0035
:10440000012811D12749096848792D4909688A6925
:104410000021904700287ED122480068807A002839
:1044200079D0AFF27F6776E01E480068007800F030
:104430007F0002286FD11B480068407900F00F060A
:1044400018480068407900F0700916480068407903
:1044500000F0800038B11B4901EB8600D0F8000C59
:1044600000F0300806E0174901EB8600D0F8000C98
:1044700000F4405814480078B0424CD9B9F1000F0C
:1044800049D1B8F1000F46D0AFF2E76743E0082DFD
:104490001CD104480068007800F07F00D8BBAFF260
:1044A000DB7738E0640100207001002074010020F7
:1044B00076010020505C0040006000405E0100205A
:1044C0006801002000500040C80000200A2D22D1C1
:1044D000C5480068007800F07F0001281BD1C24861
:1044E0000068807AB8B1C0480068408898B9BE4872
:1044F0000068007978B9BC480068C08801280AD1F2
:10450000B94909684879B94909688A690021904719
:1045100008B9AFF2F17757B1B3480068A0F812A01C
:10452000B148006887610020B84700240FE0AE4A18
:1045300012685078AD4A1268116988470446032C06
:1045400005D10920A84909680872BDE8F88FA64876
:104550000068008A4FF6FF71884204D10920A24901
:1045600009680872F1E7022C03D09F480068008AAE
:1045700020B908209C4909680872E6E79A48006853
:10458000007800F08000E0B397480068C088009091
:1045900095480068008A0099884204D99249009899
:1045A0000968088223E090480068008A8E490968FB
:1045B000C98888421BDA8C480068008A8B490968E0
:1045C00091F82C10884203DA0020894908700EE027
:1045D00085480068008A8549096891F82C1090FB8D
:1045E000F1F201FB120010B90120814908707F48E7
:1045F000006890F82C107C4800688182FFF7D4FD99
:1046000007E0FFE703207849096808720003794949
:10461000088000BF99E710B5774890F82C1000206B
:1046200000F037FD70480068007A082805D1400284
:10463000704908801020714908806B480068007A32
:10464000092801D1012010BD0020FCE738B5012464
:104650006B48006880B2001D6A4931F8100080B2D2
:1046600001EB4000009060480068007A092832D0D1
:10467000009800785C49096808700098401C009018
:10468000009800785849096848700098401C0090CC
:10469000009800EB44000090009931F8020B009163
:1046A00000F0A0FE504909684880009800EB4400E3
:1046B0000090009931F8020B009100F093FE4A49F6
:1046C00009688880009800EB4400009000980088FA
:1046D00045490968C8800120434909680872424871
:1046E0000068C08810B9FFF7B2FD01E0FFF740FE97
:1046F000FFF791FF38BD30B50146434B1A780020D3
:1047000014E00306414C04EB9353D3F8003C48F605
:104710008F74234048F280042343C4B22343040629
:104720003A4D05EB9454C4F8003C401C9042E8D349
:1047300041F08003324C241F236030BD10B52A485D
:104740000068047A022C01D0042C05D1FFF72CFD5F
:1047500025480068047A1CE0062C19D1224800681C
:10476000407805280ED120480068007800F07F00CE
:1047700040B91D490968C878FFF7BDFF2449096899
:10478000086A80471949096888688047082400E05A
:104790000824154909680C72FFF73DFF10BD10B5DC
:1047A00011480068047A022C01D0042C01D108249D
:1047B00012E0032C01D0052C05D1FFF7A2FC0A481A
:1047C0000068047A08E0072C05D108490968C86820
:1047D0008047082400E00824034909680C72FFF7A9
:1047E0001AFF10BD7047000064010020680100201E
:1047F0005E01002074010020CC0000207601002022
:10480000505C004000600040C800002000500040A4
:104810007001002010B508480849086002200968A6
:1048200008720748074908600748084908600549B1
:1048300009680868804710BD5824002064010020E2
:10484000CC00002068010020FC0000207001002046
:1048500008B50020009022E1C448008800F00F0055
:10486000C34908700846007800287CD1C148006818
:10487000C14908800846008800F03000BF49088020
:10488000BD48008800F44050BB490880B949096818
:104890004BF6BF7201EA020080F4005080F0200065
:1048A00040F4004141F08001B24A1160AF480088F5
:1048B00000F0100090BB1046006848F60F710840E9
:1048C00011460860FFF73AFFAA4909684BF6BF7224
:1048D00001EA0200A849098801F4805109B180F475
:1048E0008050A549098801F4005109B180F40050B5
:1048F000A249098801F0100109B180F010009F4918
:10490000098801F0200109B180F0200081B241F452
:10491000004141F08001974A116008BDFFE79548CA
:10492000006880B20090BDF8000000F40060B0B3F1
:1049300090480068C0F30E0048F68F7108408D491A
:104940000860FFF783FE8B4909684BF6BF7201EAE6
:1049500002008949098801F4805109B180F480502E
:104960008549098800E056E001F4005109B180F45E
:1049700000508249098801F0100109B180F010004F
:104980007E49098801F0200109B180F0200081B240
:1049900041F4004141F08001764A1160BDE7FFE734
:1049A000BDF8000000F40040002878D0714800688D
:1049B000C0F30E0048F68F7108406E490860FFF79B
:1049C000EEFE6C4909684BF6BF7201EA02006A49C3
:1049D000098801F4805109B180F480506649098842
:1049E00001F4005109B180F400506449098801F0D4
:1049F000100109B180F010006049098801F0200120
:104A000009B180F0200081B241F4004141F0800101
:104A1000584A116081E756480078594901EB8000F7
:104A2000D0F8000C80B20090BDF8000000F4004007
:104A3000C0B14F48007801EB8000D0F8000CC0F303
:104A40000E0048F68F710840494909784C4A02EB3C
:104A50008101C1F8000C46490978491E494A52F8BB
:104A600021008047BDF8000000F08000B8B1404848
:104A70000078434901EB8000D0F8000C48F60F7134
:104A800008403B4909783E4A02EB8101C1F8000C1D
:104A900037490978491E3C4A52F821008047354879
:104AA0004430006880B23149088000F4004000289A
:104AB0007FF4D2AE00BF30E710B500244AE047F6DD
:104AC000FF702C49443108602848008800F00F002E
:104AD0002749087008460078294901EB8000D0F882
:104AE000000C84B204F40040C8B12148007801EB06
:104AF0008000D0F8000CC0F30E0048F68F7108401B
:104B00001B4909781E4A02EB8101C1F8000C1849C3
:104B10000978491E1B4A52F8210080471AE004F028
:104B20008000B8B112480078154901EB8000D0F838
:104B3000000C48F60F7108400D490978104A02EB45
:104B40008101C1F8000C0A490978491E0E4A52F841
:104B50002100804707484430006880B2034908803C
:104B600000F400400028AAD110BD00007800002009
:104B700060010020005C00407401002076010020EC
:104B800000500040A000002084000020F0B5144632
:104B900004F1010C4FEA6C07DFF848C00CEB41034D
:104BA0003D460AE00678401C90F800C046EA0C2218
:104BB00023F8022B9B1C401C6D1E002DF2D1F0BD72
:104BC000F0B5561C7510074E06EB41042B4605E068
:104BD00034F8047B20F8017B401C5B1E002BF7D1CE
:104BE000F0BD000000600040FA4908607047F948D5
:104BF000006880B27047F749091D08607047F548A2
:104C0000001D006880B27047F2480830006880B22A
:104C10007047F0490C3108607047EE480C3000686E
:104C200080B270474FF6F8710140EA4A10321160C5
:104C30007047E8481030006880B27047E64B03EBDD
:104C40008002C2F8001C70470146E34A02EB810073
:104C5000D0F8000C80B2704710B5DF4B03EB800238
:104C6000D2F8002C48F68F131A400A43DA4C04EBB2
:104C70008003C3F8002C10BD0146D74A02EB810027
:104C8000D0F8000C00F4C060704730B5D24C04EB93
:104C90008003D3F8003C48F6BF7403EA040201F035
:104CA00010030BB182F0100201F020030BB182F06F
:104CB000200242F4004343F08003C74D05EB80041B
:104CC000C4F8003C30BD30B5C34C04EB8003D3F8CE
:104CD000003C4BF68F7403EA040201F480530BB1DD
:104CE00082F4805201F400530BB182F4005242F47A
:104CF000004343F08003B84D05EB8004C4F8003C4A
:104D000030BD30B503460C461846FFF79DFF0546FB
:104D1000012C07D125F48050AF4A02EB8301C1F882
:104D2000000C08E0022C06D125F01000AA4A02EB84
:104D30008301C1F8000C30BD0146A74A02EB810097
:104D4000D0F8000C00F0300070470146A24A02EB98
:104D50008100D0F8000C00F44050704710B59E4B15
:104D600003EB8002D2F8002C48F6BF7302EA03017D
:104D700081F0100181F0200141F4004242F08002F4
:104D8000954C04EB8003C3F8002C10BD10B5924B7A
:104D900003EB8002D2F8002C4BF68F7302EA03017A
:104DA00081F4805181F4005141F4004242F08002CC
:104DB000894C04EB8003C3F8002C10BD864A02EB3B
:104DC0008001D1F8001C41F4807148F68F721140C7
:104DD00048F280021143804B03EB8002C2F8001CB2
:104DE00070477D4A02EB8001D1F8001C48F68F62C3
:104DF000114048F280021143774B03EB8002C2F866
:104E0000001C7047744A02EB8001D1F8001C48F680
:104E10008F62114048F2800211436F4B03EB800216
:104E2000C2F8001C70476C4A02EB8001D1F8001CEC
:104E300041F4807148F68F72114048F280021143AC
:104E4000654B03EB8002C2F8001C7047624A02EB1C
:104E50008001D1F8001C41F4807148F68F72114036
:104E600048F2800211435C4B03EB8002C2F8001C45
:104E70007047594A02EB8001D1F8001C48F68F6256
:104E8000114048F280021143534B03EB8002C2F8F9
:104E9000001C70470146504A02EB8100D0F8000C1C
:104EA00000F03000102801D1012070470020FCE7FD
:104EB0000146494A02EB8100D0F8000C00F4405052
:104EC000B0F5805F01D1012070470020FCE7424A25
:104ED00002EB8001D1F8001CC1F30E0148F68F727D
:104EE00011403D4B03EB8002C2F8001C70473A4A68
:104EF00002EB8001D1F8001C48F60F721140364BCE
:104F000003EB8002C2F8001C7047334A02EB8001B9
:104F1000D1F8001C48F68F7211404CF28002114308
:104F20002D4B03EB8002C2F8001C70472A4A02EBAB
:104F30008001D1F8001C48F68F72114048F2C0027F
:104F40001143254B03EB8002C2F8001C7047224A34
:104F500002EB8001D1F8001C01F4804171B102EB39
:104F60008001D1F8001C48F68F7211404CF280028B
:104F70001143194B03EB8002C2F8001C7047164A1C
:104F800002EB8001D1F8001C01F0400171B102EB8D
:104F90008001D1F8001C48F68F72114048F2C0021F
:104FA00011430D4B03EB8002C2F8001C704710B593
:104FB000094B03EB8002D2F8002C48F68F731A409D
:104FC00048F280031A430A43034C04EB8003C3F8FE
:104FD000002C10BD405C0040005000400146FC4ADF
:104FE00002EB8100D0F8000C00F00F00704710B504
:104FF0004A105200F74B1B689BB203EBC003F64C00
:1050000044F8132010BD10B54A105300F14A12683D
:1050100092B202EBC002121DEF4C44F8123010BDE8
:105020000146EC48006880B200EBC100EA4A32F861
:10503000100080B270470146E648006880B200EB7D
:10504000C100001DE44A32F8100080B27047E14A06
:10505000126892B202EBC002921CDF4B43F81210AE
:10506000704702463E290BDD481101F01F030BB9C2
:10507000431E98B24FF4004343EA8023136007E0D5
:10508000481001F001030BB1431C98B28302136076
:10509000704710B50246CF48006880B200EBC200EE
:1050A000801DCD4C04EB40033E290BDD481101F07F
:1050B0001F040CB9441EA0B24FF4004444EA8024FB
:1050C0001C6007E0481001F001040CB1441CA0B2C0
:1050D00084021C6010BD0146BE48006880B200EB2F
:1050E000C100801CBC4A32F81000C0F309007047B0
:1050F0000146B848006880B200EBC100801DB64A86
:1051000032F81000C0F30900704730B54B105B0057
:10511000B04C2468A4B204EBC004AF4D45F8143081
:1051200053105C00AB4B1B689BB203EBC0031B1D11
:1051300045F8134030BD10B54A105200A54B1B680E
:105140009BB203EBC003A44C44F8132010BD10B570
:105150004A1053009F4A126892B202EBC002121D1D
:105160009D4C44F8123010BD01469A48006880B248
:1051700000EBC100984A32F8100080B27047014637
:105180009448006880B200EBC100001D924A32F8DA
:10519000100080B2704730B50B46012B1FD18D49EE
:1051A000096889B201EBC001891C8B4D05EB4104F4
:1051B0003E2A0BDD511102F01F050DB94D1EA9B29B
:1051C0004FF4004545EA8125256007E0511002F0C3
:1051D00001050DB14D1CA9B28D0225600AE0022B1C
:1051E00008D17C49096889B201EBC001891C7A4C5D
:1051F00044F81120012B1FD17649096889B201EBCF
:10520000C001891D744D05EB41043E2A0BDD51118F
:1052100002F01F050DB94D1EA9B24FF4004545EA35
:105220008125256007E0511002F001050DB14D1CEC
:10523000A9B28D0225600AE0022B08D165490968F0
:1052400089B201EBC001891D634C44F8112030BDC7
:1052500030B5034601291FD15E48006880B200EBDB
:10526000C300801C5C4D05EB40043E2A0BDD501151
:1052700002F01F050DB9451EA8B24FF4004545EADE
:105280008025256007E0501002F001050DB1451C96
:10529000A8B2850225600AE0022908D14D480068BD
:1052A00080B200EBC300801C4B4C44F8102030BD92
:1052B00030B5034601291FD14648006880B200EB93
:1052C000C300801D444D05EB40043E2A0BDD501108
:1052D00002F01F050DB9451EA8B24FF4004545EA7E
:1052E0008025256007E0501002F001050DB1451C36
:1052F000A8B2850225600AE0022908D13548006875
:1053000080B200EBC300801D334C44F8102030BD48
:1053100001463048006880B200EBC100801C2E4A74
:1053200032F81000C0F309007047014629480068B0
:1053300080B200EBC100801D274A32F81000C0F394
:105340000900704701462348006880B200EBC100A5
:10535000801D214A32F8100000F47C4008B1012081
:1053600070471C48006880B200EBC100801C1A4ADC
:1053700032F81000C0F3090008B10220F0E7002065
:10538000EEE710B5012910D1114B03EB8002D2F8E2
:10539000002C48F68F731A4048F2C0031A430C4C95
:1053A00004EB8003C3F8002C11E002290FD1084B55
:1053B00003EB8002D2F8002C48F68F731A404CF2AF
:1053C00080031A43024C04EB8003C3F8002C10BD89
:1053D00000500040505C004000600040024641EA3E
:1053E000022070470146CAB20B1243EA02207047FE
:1053F00000201D4908604FF43F401C4908800846C2
:1054000000881949091F0860002070472DE9F04104
:1054100004460E46154604F07F00FFF701FE0746DE
:10542000AAB239463046FFF7B1FBA9B204F07F00BB
:10543000FFF70DFE0020BDE8F0812DE9F0410446A4
:105440000E46002504F07F00FFF752FE054604F0EB
:105450007F00FFF7F0FD07462A4639463046FFF742
:10546000AFFB2846BDE8F081445C00406E0100209F
:1054700040EA01039B0703D009E008C9121F08C0D6
:10548000042AFAD203E011F8013B00F8013B521E56
:10549000F9D2704710B5002200E0521C835C8C5C8E
:1054A000A34201D1002BF8D1D8B2E1B2401A10BD0D
:1054B00030B50B46014600202022012409E021FAE4
:1054C00002F59D4205D303FA02F5491B04FA02F5E1
:1054D0002844151EA2F10102F1DC30BD2DE9F05F78
:1054E0000546002092469B46884606468146402453
:1054F0001BE0284641464746224600F0FAF953464B
:105500005A46C01A914110D311461846224600F05F
:10551000E1F92D1A67EB01084F46224601200021D0
:1055200000F0D8F917EB00094E41201EA4F1010448
:10553000DFDC484631462A464346BDE8F09F2DE968
:10554000FE4F804681EA0300C00F0C46009021F018
:10555000004123F00045B8EB0200A94105D24046C6
:10556000214690461C460B46024623F0004010435D
:1055700047D0270DC7F30A00C3F30A510290401A1F
:10558000019040286BDAC3F3130040F4801B0098AD
:10559000924620B10023D2EB030A63EB0B0B019878
:1055A0005946C0F14002504600F094F906460D46B7
:1055B00050465946019A00F0ACF910EB08006141E1
:1055C000002487EA115284EAE7731A4340D0009A14
:1055D00062B3019A012A4FEA075215DC001B61EB06
:1055E00002014FF0004202EA0752CDE90042001CDE
:1055F00041F5801132462B4600F0ACF903B0BDE80E
:10560000F08F40462146F9E7001B61EB0201001CC8
:1056100041F5801300185B412018A2F5001747EBF5
:10562000030140EAD570B6196D4111E06D084FEAEB
:10563000360645EAC0754FEA0752001B61EB0201CE
:10564000001C41F5801149084FEA30000019514112
:1056500032462B4603B0BDE8F04F00F06CB900981D
:10566000012240000023D0EB020263EBE0730098BC
:1056700021464FEAE074B8EB000061EB0401E9E772
:1056800083F000435BE781F0004158E72DE9FE4FCE
:1056900081EA030404F0004421F0004100944FF03B
:1056A000000B23F0004350EA01045ED052EA0304E9
:1056B0005BD0C3F30A54C1F30A552C44A4F2F3346B
:1056C0000194A0FB0254C1F3130141F48011C3F310
:1056D000130343F4801301FB024400FB034E840ACE
:1056E000970A44EA815447EA8357A4FB0768029566
:1056F0008D0A05FB07854FEA932C04FB0C54270504
:10570000029D4FEA065847EA1637B5EB08056EEBDF
:10571000070C870E920E47EA811742EA8312A7FB15
:105720000201B6EB0B0164EB00042B0D43EA0C33D2
:105730005E1844EB1C50DA465146E7FB0201C5F304
:1057400013044FEA0B3343EA14534FEA0432019C2B
:1057500043EA0603A4F10C040294009CCDE900B4D2
:1057600000F0F8F803B0BDE8F08F00200146F9E73B
:105770002DE9F04D81EA030404F0004B21F00045CF
:1057800014464FF0000A23F0004150EA050220D0F1
:1057900054EA01021DD0C5F30A570246C5F31303AC
:1057A000C1F31300C1F30A5640F4801543F480138B
:1057B000A7EB0608101BD64608F2FD3873EB050070
:1057C00002D308F1010801E092185B41B8F1000F23
:1057D00003DA00200146BDE8F08D00204FF480116F
:1057E000064684460EE0171B73EB050705D3121B14
:1057F00063EB050306434CEA010C49084FEA30000D
:1058000092185B4150EA0107EDD152EA030012D031
:1058100082EA040083EA0501084305D0101BAB416E
:1058200006D20122002306E000224FF0004302E0EE
:105830006FF0010253101AEB06004CEB085110EB0D
:105840000A0041EB0B01BDE8F04D00F074B8C1F364
:105850000A52C1F3130140F2FF3341F480119A421E
:1058600002DA00200146704740F233439A42A2F226
:10587000334202DC524200F03CB800F02BB800008A
:1058800030B5041E71F1000404DB4FF000444042C7
:1058900064EB0101141E73F1000405DB1C464FF09C
:1058A0000043524263EB0403994208BF904230BD6B
:1058B000064C074D06E0E06840F0010394E807005D
:1058C00098471034AC42F6D3FAF736FCB4630008BC
:1058D000D4630008202A04DB203A00FA02F10020F9
:1058E00070479140C2F1200320FA03F3194390401E
:1058F0007047202A04DB203A21FA02F00021704789
:1059000021FA02F3D040C2F1200291400843194627
:105910007047202A06DBCB17203A41FA02F043EA0F
:10592000E07306E041FA02F3D040C2F12002914058
:1059300008431946704710B5141E73F1000408DAC5
:10594000401C41F1000192185B411A4301D120F043
:10595000010010BD2DE9F04D92469B4611B1B1FA00
:1059600081F202E0B0FA80F220329046FFF7B2FFF7
:1059700004460F4640EA0A0041EA0B0153465A46E4
:10598000084313D0114653EA010019D0C8F1400270
:105990005046FFF7AEFF05460E4650465946424672
:1059A000FFF798FF084305D0012004E02046394660
:1059B000BDE8F08D0020054346EAE0762C433743EE
:1059C0000A986305E40AA0EB08000022FD0A44EAF5
:1059D00047540A3002D500200146E9E701051019B5
:1059E0006941DDE9084500196941BDE8F04DA2E7CC
:1059F00070B58C1810F8015B15F0070301D110F891
:105A0000013B2A1106D110F8012B03E010F8016BBD
:105A100001F8016B5B1EF9D12B0705D40023521E40
:105A20000DD401F8013BFAE710F8013BCB1A921CA8
:105A300003E013F8015B01F8015B521EF9D5A142A6
:105A4000D8D3002070BD00000FB4054B10B503A9DA
:105A5000044A029800F0CAF810BC5DF814FB00007C
:105A6000B70200087801002002E008C8121F08C130
:105A7000002AFAD170477047002001E001C1121FCF
:105A8000002AFBD1704700002DE9FF5FDDE902200D
:105A9000010DDDF838B0024318D044F61050A1F2E1
:105AA000FF3141430D140F98012820D0A5EB0B00C6
:105AB000401C5FEA000A4FF00004474EDFF81C91DB
:105AC000A046504616D5CAF1000728E00F980124D9
:105AD00043A2012808D0002100980F9BC0E90021B3
