:020000040800F2
:10000000000D002001170008590300085B030008D9
:100010005F03000863030008670300080000000096
:100020000000000000000000000000006B0300085A
:100030006D030008000000006F0300087103000852
:100040001B1700081B1700081B1700081B170008C8
:100050001B1700081B1700081B1700081B170008B8
:100060001B1700081B1700081B1700081B170008A8
:100070001B1700081B1700081B1700081B17000898
:100080001B1700081B1700081B1700081B17000888
:100090001B1700081B1700081B1700081B17000878
:1000A0001B1700081B1700081B1700081B17000868
:1000B000730300081B1700081B1700081B17000814
:1000C0001B1700081B1700081B1700081B17000848
:1000D0001B170008590800081B1700081B17000809
:1000E0001B1700081B1700081B1700081B17000828
:1000F0001B1700081B1700081B1700081B17000818
:100100001B1700081B1700081B1700081B17000807
:100110001B1700081B1700081B1700081B170008F7
:100120001B1700081B1700081B1700081B170008E7
:1001300000F002F800F03AF80AA090E8000C8244BF
:100140008344AAF10107DA4501D100F02FF8AFF29C
:10015000090EBAE80F0013F0010F18BFFB1A43F0A5
:10016000010318477439000094390000103A24BF85
:1001700078C878C1FAD8520724BF30C830C144BF0C
:1001800004680C607047000000230024002500264E
:10019000103A28BF78C1FBD8520728BF30C148BFEA
:1001A0000B6070471FB51FBD10B510BD02F098F968
:1001B0001146FFF7F7FF00F046F802F0B6F903B476
:1001C000FFF7F2FF03BC00F0E9FA00003EB5044679
:1001D0000121084601F0DDFD4FF0804000F082FB78
:1001E0005448B0FBF4F0401E80B2ADF80400472044
:1001F000ADF800000020ADF80600ADF80200694639
:100200004FF0804000F042FC0121880701F060FAC5
:1002100001221146900700F0B0FF0121880700F08D
:1002200091FF3EBD08B51C208DF8000001208DF81F
:10023000010000208DF8020001208DF803006846BF
:1002400002F007F808BD8AB000F0A2FA00F036FA12
:100250004FF4165000F0B1FA00F0AAF9FFF7E2FFF0
:1002600042F22830FFF7B2FF4FF0000A5DE050463F
:1002700002F096FF304A314BCDE9020102F0A4FFB3
:1002800000222F4BCDE9040102F0BEFD064602F02C
:1002900089FC044600222B4B02F006FD00222A4B6B
:1002A000CDE9060102F090FF00224FF08043CDE936
:1002B000080102F0A9FD804602F02EFF234921F833
:1002C0001A00504602F06CFF80461B4A1B4B02F09E
:1002D0007BFF00221A4BCDE9000102F095FD164A82
:1002E0001B4BCDE9020102F0DFFCCDE9040102F075
:1002F00059FC06460022134B02F0D6FC04460022AD
:10030000114B02F061FF00224FF08043CDE906015E
:1003100002F07AFDCDE9080102F0FEFE0D4921F858
:100320001A000AF101001FFA80FABAF5B47F9EDBC9
:1003300000BFFEE740420F00EA2E4454FB21094073
:10034000008066400000F03F00FEAF403800002013
:10035000FB21F93F08030020704700BFFEE700BF04
:10036000FEE700BFFEE700BFFEE77047704770473B
:10037000704710B50121880701F0ADF908B30121DC
:10038000880701F0B9F90F480088B0F5B47F15DA95
:100390000D480C4A128830F81210002002F04BF879
:1003A0000A48084A128830F81210002002F050F86B
:1003B00004480088401C0349088002E000200149ED
:1003C000088010BD00000020380000200803002035
:1003D0000CB50020019000906C48006840F480301B
:1003E0006A49086000BF6948006800F40030009066
:1003F0000198401C0190009818B90198B0F5A06FC1
:10040000F1D16248006800F4003010B10120009082
:1004100001E0002000900098012843D15C4800686A
:1004200040F010005A4908600846006820F00300B8
:1004300008600846006840F00200086053484068C1
:10044000524948600846406848600846406840F4A1
:10045000806048600846406820F47C104860084688
:10046000406840F4E81048600846006840F080703A
:10047000086000BF4548006800F000700028F9D00F
:100480004248406820F00300404948600846406800
:1004900040F00200486000BF3C48406800F00C009B
:1004A0000828F9D10CBD10B5FFF792FF10BD10B5AB
:1004B0003648006840F0010034490860084640684A
:1004C00034490840314948600846006832490840CC
:1004D0002E4908600846006820F48020086008461D
:1004E000406820F4FE0048604FF41F008860FFF76A
:1004F000DAFF4FF000602949086010BD10B50021F7
:1005000000200022214B5B6803F00C0121B104297B
:1005100006D0082928D107E0214B224C236027E090
:100520001F4B204C236023E0184B5B6803F47010D2
:10053000164B5B6803F48032022303EB904022B930
:10054000194B4343174C23600DE0104B5B6803F4D9
:10055000003323B1144B4343124C236003E0104B90
:100560004343104C236003E00D4B0E4C236000BF4F
:1005700000BF064B5B68C3F303130C4CE15C094BF3
:100580001B68CB40074C236010BD000000100240E8
:10059000002002400000FFF8FFFFF6FE08ED00E03B
:1005A00000127A000400002000093D00080000202D
:1005B00000B585B00121042001F0DEFB01214807D0
:1005C00001F0E7FB3020ADF8100000208DF813009B
:1005D00003208DF8120004A9354801F011F93021EB
:1005E000334801F0BAF900200090019002900220F7
:1005F00003906946002001F0A0FE0121002001F0D7
:10060000B9FE0121102001F0B5FE0021084601F0DD
:1006100012FF0021084601F01BFF05B000BD2DE9C7
:10062000F04704462349204603F04EF8814602F085
:10063000BFFF07464FF066321F4B02F0E5FB054651
:1006400002F000FB04461B49204603F009F900D2E2
:10065000184C204602F0E4FF85B22946002001F044
:10066000EAFEBDE8F0872DE9F04704464FF08B41E4
:10067000204603F029F8814602F09AFF07464FF022
:1006800066320D4B02F0C0FB054602F0DBFA044671
:100690000849204603F0E4F800D2064C204602F058
:1006A000BFFF85B22946002001F0D2FEBDE8F087E9
:1006B0000008014000F07F4566660A4010B56FF003
:1006C000040001F010FE2E4800682E49B0FBF1F046
:1006D0002D4908700846007800EB4001C1EBC010BE
:1006E0004FF6FF7101EAC0002849088010BD01469D
:1006F000254A12784A434FF0E0235A6100229A615A
:100700001A46126942F001021A6100BF4FF0E0225E
:10071000106900F001021AB100F48032002AF5D00D
:100720004FF0E022126922F001024FF0E0231A613B
:1007300000229A6170470146144A12884A434FF0DA
:10074000E0235A6100229A611A46126942F00102BE
:100750001A6100BF4FF0E022106900F001021AB1E7
:1007600000F48032002AF5D04FF0E022126922F026
:1007700001024FF0E0231A6100229A6170470000E5
:100780000400002000127A00180000201A00002047
:1007900010B54FF4A06001F057FD10BD014600BF39
:1007A000704700BF4B4A128802F04002002AF9D07D
:1007B000C2B2484B1B1D1A80704710B586B0044664
:1007C000012144F2040001F0D7FA424801F038FB5D
:1007D0004FF40070ADF8140003208DF816001820B7
:1007E0008DF8170005A93C4801F00AF84FF4806025
:1007F000ADF8140004208DF8170005A9364800F064
:10080000FFFF25208DF8000003208DF801008DF8F2
:10081000020001208DF80300684601F01AFD0194E2
:100820000020ADF80800ADF80A00ADF80C00ADF8F6
:1008300010000C20ADF80E0001A9264801F043FB82
:10084000012240F22551234801F0D5FB0121214826
:1008500001F0C5FB06B010BD10B540F225511D4892
:1008600001F0AEFC10B31B4801F02AFCC4B21B48D7
:10087000008800F40040C8B91848008800F480409F
:1008800060B10A2C03D000201449088020E01348EE
:10089000008840F400401149088019E00D2C06D171
:1008A0000E48008840F480400C49088010E00B4856
:1008B0000088C0F30D000A490C5408480088401C09
:1008C0000649088008460088C72801DD0020088006
:1008D00010BD000000380140000801402000002049
:1008E000D805002010B50446FE48844208D10121F5
:1008F000C01401F05BFA0021E01401F057FAC4E0E3
:10090000B4F1804F08D10121084601F05CFA0021C2
:10091000012001F058FAB8E0F348844208D10121DF
:10092000022001F050FA0021022001F04CFAACE064
:10093000EE48844208D10121042001F044FA00214C
:10094000042001F040FAA0E0E948844208D10121E6
:10095000082001F038FA0021082001F034FA94E070
:10096000E448844208D10121102001F02CFA002132
:10097000102001F028FA88E0DF48844208D10121E4
:10098000202001F020FA0021202001F01CFA7CE058
:10099000DA48844208D10121401401F007FA00210D
:1009A000601401F003FA70E0D548844209D10121B6
:1009B000C80401F0FBF900214FF4002001F0F6F922
:1009C00063E0D048844209D10121080501F0EEF925
:1009D00000214FF4801001F0E9F956E0CA48844242
:1009E00009D10121480501F0E1F900214FF400107F
:1009F00001F0DCF949E0C548844208D101214020DA
:100A000001F0E1F90021402001F0DDF93DE0C048AE
:100A1000844208D10121802001F0D5F900218020F5
:100A200001F0D1F931E0BB48844208D101218015A1
:100A300001F0C9F90021A01501F0C5F925E0B6487B
:100A4000844209D10121080401F0B0F900214FF4DA
:100A5000803001F0ABF918E0B048844209D101219F
:100A6000480401F0A3F900214FF4003001F09EF991
:100A70000BE0AB48844208D10121880401F096F9CB
:100A800000214FF4802001F091F910BD002202886E
:100A9000944B98420ED0994B98420BD0B0F1804FB6
:100AA00008D0914B984205D0904B984202D0904B81
:100AB000984204D14FF68F731A404B881A438D4BDE
:100AC000984207D08C4B984204D04FF6FF431A400F
:100AD000CB881A4302808B8883850B880385814BE2
:100AE00098420BD0854B984208D08B4B984205D04A
:100AF0008A4B984202D08A4B984201D10B7A0386E6
:100B000001238382704770B5002400220023058CE6
:100B10004FF6FE7635400584028C8388048B4FF6B1
:100B20008F752C40B51E2C400D882C43751E2A4015
:100B30000D892A434D882A436A4DA8420BD06F4D38
:100B4000A84208D0744DA84205D0744DA84202D0E6
:100B5000734DA84213D14FF6F7752A404D892A43A9
:100B60004FF6FB752A408D882A434FF6FF652B40D0
:100B70004FF6FF552B408D892B43CD892B43838026
:100B80000483CD888586028470BD70B50024002260
:100B90000023058C4FF6EF7635400584028C838860
:100BA000048B48F6FF752C404FF6FF452C400D880E
:100BB0004FF6FF7606EA05252C434FF6DF752A40EF
:100BC0000D8906EA05152A434D8806EA05152A43CC
:100BD000444DA84202D0494DA8421DD14FF67F7521
:100BE0002A404D894FF6FF7606EA05152A434FF64F
:100BF000BF752A408D8806EA05152A434FF6FF3552
:100C00002B404FF2FF752B408D8906EA85052B435B
:100C1000CD8906EA85052B4383800483CD8805872B
:100C2000028470BD70B5002400220023058C4FF6AD
:100C3000FF6635400584028C8388848B4FF68F7560
:100C40002C404FF6FC752C400D882C434FF6FF5579
:100C50002A400D894FF6FF7606EA05252A434D887E
:100C600006EA05252A431F4DA84202D0234DA8427B
:100C70001DD14FF2FF752A404D894FF6FF7606EAE7
:100C800005252A434FF6FF352A408D8806EA0525BB
:100C90002A434EF6FF752B404DF6FF752B408D898C
:100CA00006EA05152B43CD8906EA05152B438380FB
:100CB0008483CD888587028470BD70B500220023AF
:100CC0000024058C4EF6FF7635400584038C84881D
:100CD000828B48F6FF752A404FF6FF452A400D8863
:100CE00020E00000002C014000040040000800400B
:100CF000000C00400010004000140040003401408F
:100D0000004C0140005001400054014000180040D8
:100D1000001C004000200040004001400044014011
:100D2000004801404FF6FF7606EA05252A434DF6B6
:100D3000FF752B400D8906EA05352B434D8806EAE1
:100D400005352B43FA4DA84202D0FA4DA84208D1EE
:100D50004BF6FF752C408D894FF6FF7606EA851518
:100D60002C4384808283CD88A0F84050038470BDDA
:100D7000828B4FF2FF331A408283828B4FF6FF73D0
:100D800003EA01231A4382837047F0B50C461546E7
:100D9000002200210026078C4EF6FF7C07EA0C0794
:100DA0000784828B018C4FF6FF7707EA043640F602
:100DB000FF473A404FF6FF7707EA05273A434FF6D9
:100DC000FF7707EA03373A43D94FB8420ED0D94FDD
:100DD000B8420BD0B0F1804F08D0D74FB84205D001
:100DE000D64FB84202D0D64FB84206D14DF6FF7763
:100DF000394046F48057394305E047F6FF573940FC
:100E000044F48057394382830184F0BD828B4FF6CE
:100E1000F3731A408283828B0A4382837047F0B552
:100E20000C461546002200210026078C4FF6FF6C69
:100E300007EA0C070784828B018C4FF6FF7707EADD
:100E400004264FF60C773A404FF6FF7707EA031770
:100E50002F433A43B64FB8420ED0B64FB8420BD0EC
:100E6000B0F1804F08D0B44FB84205D0B34FB8426C
:100E700002D0B34FB84206D14FF6FF57394046F47F
:100E80008077394305E04FF2FF57394044F48077CB
:100E9000394382830184F0BD028B4FF2FF331A4045
:100EA0000283028B4FF6FF7303EA01231A43028386
:100EB0007047F0B50C461546002200210026078C2D
:100EC0004FF6EF7C07EA0C070784028B018C4FF684
:100ED000FF7707EA041640F6FF473A404FF6FF77E0
:100EE00007EA03373A434FF6FF7707EA05273A4305
:100EF0008F4FB8420ED08F4FB8420BD0B0F1804F19
:100F000008D08D4FB84205D08C4FB84202D08C4FDC
:100F1000B84206D14FF6DF77394046F01007394323
:100F200005E04FF65F77394044F0100739430283FC
:100F30000184F0BD028B4FF6F3731A400283028BDB
:100F40000A4302837047F0B50C4615460022002183
:100F5000068C4FF6FE773E400684028B018C4FF6DE
:100F60000C7632407E1C06EA03162E433243704E46
:100F7000B0420ED06F4EB0420BD0B0F1804F08D0CF
:100F80006D4EB04205D06D4EB04202D06C4EB042B4
:100F900006D14FF6FD76314044F00106314305E0BD
:100FA0004FF6F576314044F0010631430283018467
:100FB000F0BD70B505460C465D4885420ED05D48D3
:100FC00085420BD0B5F1804F08D05B48854205D0F3
:100FD0005A48854202D05A48854200D100E000BFFD
:100FE000208850B92389A28861882846FFF7ABFF83
:100FF000E1882846FFF79EFF25E0208804280AD1D3
:101000002389A28861882846FFF753FFE188284694
:10101000FFF742FF17E0208808280AD12389A28819
:1010200061882846FFF7FBFEE1882846FFF7EEFEC1
:1010300009E02389A28861882846FFF7A6FEE18897
:101040002846FFF795FE70BD2DE9F04105460C4698
:1010500000260127608808B9022600E00026A08843
:10106000012801D1022700E001272088A0B92389A7
:10107000A28861882846FFF766FFE1882846FFF7C7
:1010800059FF23893A4631462846FFF712FFE18887
:101090002846FFF701FF13E02389A28861882846CC
:1010A000FFF707FFE1882846FFF7F6FE23893A4657
:1010B00031462846FFF747FFE1882846FFF73AFF09
:1010C000BDE8F0810A884B881A438B881A43CB8885
:1010D0001A430B891A434B891A438B891A43A0F888
:1010E000442070474FF6FF71818000210180C1804C
:1010F0004180017270470021018041808180C18060
:10110000018141818181C18170470021018041803D
:10111000012181800021C18001817047002101806F
:1011200041808180C18001814181818170470000BF
:10113000002C014000340140000400400008004041
:10114000000C004021B1028842F00102028004E05C
:1011500002884FF6FE731A400280704731B1B0F832
:10116000442042F40042A0F8442005E0B0F84420B6
:10117000C2F30E02A0F8442070471AB183890B43D2
:10118000838102E083898B4383817047818270472A
:1011900041EA0203A0F8483070471AB183890B4333
:1011A000838102E083898B438381704701894FF6F5
:1011B000F8721140018170470A46002101894FF6FB
:1011C0008F73194011430181704730B504460D46B5
:1011D00029462046FFF7F0FF208940F007002081D4
:1011E00030BD2DE9F04104460D4616461F46602DE0
:1011F00006D13B46012231462046FFF75AFE05E064
:101200003B46012231462046FFF79DFE29462046F7
:10121000FFF7D2FF208940F007002081BDE8F08170
:1012200030B50C4600210189C9B24FF6FF7505EAB9
:101230000325154325432943018130BD2DE9F041A4
:1012400005460E4617469846002443463A46314620
:101250002846FFF7E5FF2C894FF6F870044044F06C
:1012600007044FF68F70044044F070042C81BDE8F1
:10127000F081F0B504460D4616461F463B46324601
:1012800029462046FFF7CCFF208940F4804020818A
:10129000F0BD0185828270470A46002101884FF621
:1012A0008F731940114301807047F0B50C46154605
:1012B0001E460021002200230189028B038C4FF679
:1012C000F877394021434FF6FC473A4040F2011786
:1012D0003A434FF6DD773B404FF6FF7707EA0617B4
:1012E0002F433B43018102830384F0BD0A46002162
:1012F000018B4FF68F7319401143018370470A46E3
:101300000021018B48F6FF7319404FF6FF7303EA83
:1013100002231943018370470A460021818B4FF64F
:101320008F7319401143818370470A460021818BD6
:1013300048F6FF7319404FF6FF7303EA022319437F
:101340008183704721B1028842F08002028004E06C
:1013500002884FF67F731A400280704721B182885D
:1013600042F00402828004E082884FF6FB731A4048
:101370008280704721B1828842F00802828004E0B6
:1013800082884FF6F7731A408280704721B18288B5
:1013900042F00102828004E082884FF6FE731A4018
:1013A000828070470A460021018B4FF6F77319407F
:1013B0001143018370470A460021018B4FF2FF73EE
:1013C00019404FF6FF7303EA022319430183704764
:1013D0000A460021818B4FF6F77319401143818330
:1013E00070470A460021818B4FF2FF7319404FF678
:1013F000FF7303EA02231943818370470A460021E1
:10140000018B4FF6FB7319401143018370470A4665
:101410000021018B4FF6FF3319404FF6FF7303EAAB
:1014200002231943018370470A460021818B4FF63E
:10143000FB7319401143818370470A460021818B59
:101440004FF6FF3319404FF6FF7303EA02231943A7
:10145000818370470A460021018B4FF67F73194044
:101460001143018370470A460021018BC1F30E012D
:101470004FF6FF7303EA02231943018370470A46BC
:101480000021818B4FF67F73194011438183704790
:101490000A460021818BC1F30E014FF6FF7303EA68
:1014A00002231943818370470A460021018C4FF6BD
:1014B000FD7319401143018470470A460021018CD5
:1014C0004FF6F77319401143018470470A46002113
:1014D000018C4FF6DF7319404FF6FF7303EA0213D6
:1014E0001943018470470A460021018C4FF67F732F
:1014F00019404FF6FF7303EA021319430184704742
:101500000A460021018C4FF6FF5319404FF6FF7336
:1015100003EA02231943018470470A460021018C23
:101520004FF2FF7319404FF6FF7303EA022319438A
:10153000018470470A460021018C4DF6FF73194063
:101540004FF6FF7303EA023319430184704730B545
:10155000002301248C40A3B2048C9C430484048C9B
:1015600002FA01F5ADB22C43048430BD30B500233E
:1015700004248C40A3B2048C9C430484048C02FA9F
:1015800001F5ADB22C43048430BD70B50346002094
:1015900000241846183001258D40ACB21D8CA5439F
:1015A0001D8409B1082909D100EB6100056825F007
:1015B000700505600568154305600EE00D1FC5F355
:1015C0004E052844056825F4E045056005684FF69A
:1015D000FF7606EA02263543056070BD21B1028818
:1015E00042F00202028004E002884FF6FD731A40C6
:1015F0000280704721B1028842F00402028004E0B8
:1016000002884FF6FB731A400280704721B182882E
:1016100042F08002828004E082884FF67F731A4095
:101620008280704702884FF6F7731A400280028862
:101630000A430280704782884FF68F731A40828077
:1016400082880A438280704702894FF6F8731A40F5
:10165000028102890A430281704702894FF67F7333
:101660001A40028102890A430281704781847047CF
:1016700081857047818670470187704781877047F1
:10168000A0F84010704702884FF6FF431A400280CE
:1016900002880A43028070470146888E70470146DF
:1016A000088F70470146888F70470146B1F84000A7
:1016B00070470146888C70470146088D7047024686
:1016C0000020138A0B400BB1012000E0002070477E
:1016D000CA430282704730B502460020002300242E
:1016E000158A05EA0103958905EA010413B10CB1D5
:1016F000012000E0002030BDCA4302827047000094
:101700000948804709480047FEE7FEE7FEE7FEE795
:10171000FEE7FEE7FEE7FEE7FEE7FEE704480549D1
:10172000054A064B70470000AF040008310100086D
:1017300000070020000D0020000900200009002003
:1017400010B50446CC48844208D10121042000F0A1
:101750002DFB0021042000F029FB46E0C74884420D
:1017600008D10121082000F021FB0021082000F011
:101770001DFB3AE0C248844208D10121102000F04C
:1017800015FB0021102000F011FB2EE0BD48844223
:1017900008D10121202000F009FB0021202000F0C9
:1017A00005FB22E0B848844208D10121402000F026
:1017B000FDFA0021402000F0F9FA16E0B348844217
:1017C00008D10121802000F0F1FA0021802000F0F2
:1017D000EDFA0AE0AE48844207D10121801500F0FD
:1017E000E5FA0021A01500F0E1FA10BD10B50121C5
:1017F000084600F0DBFA0021012000F0D7FA10BD06
:101800002DE9F04102460025002600200023002497
:10181000002791F803C00CF00F0591F803C00CF0FD
:10182000100CBCF1000F03D091F802C04CEA050582
:1018300091F800C0BCF1000F31D0146800202BE0FB
:101840004FF0010C0CFA00F3B1F800C00CEA0306EB
:101850009E4220D183004FF00F0C0CFA03F7BC43DB
:1018600005FA03FC4CEA040491F803C0BCF1280F0C
:1018700006D14FF0010C0CFA00FCC2F814C00AE0CB
:1018800091F803C0BCF1480F05D14FF0010C0CFAE0
:1018900000FCC2F810C0401C0828D1D31460B1F875
:1018A00000C0BCF1FF0F34DD546800202EE000F1D1
:1018B000080C4FF0010808FA0CF3B1F800C00CEA6C
:1018C00003069E4221D183004FF00F0C0CFA03F760
:1018D000BC4305FA03FC4CEA040491F803C0BCF1D4
:1018E000280F05D100F1080C08FA0CF8C2F8148092
:1018F00091F803C0BCF1480F07D100F1080C4FF07C
:10190000010808FA0CF8C2F81080401C0828CED351
:101910005460BDE8F0814FF6FF71018002218170B3
:101920000421C17070470246002093680B400BB140
:10193000012000E0002070470146886880B27047AF
:1019400002460020D3680B400BB1012000E00020CC
:1019500070470146C86880B27047016170474161B5
:1019600070470AB1016100E041617047C160704792
:101970004FF480320A4382618161826182698269A7
:10198000704702460020434B18684FF6807318409A
:1019900040EA021008433F4B186070473E49C86157
:1019A0007047F0B50A46002300240021002500F00E
:1019B0000046B6F1004F02D1364EF16901E0354ED6
:1019C0007168C0F3034583B200F44016B6F5401FBA
:1019D00008D121F070612F4E766826F070662D4F89
:1019E0007E6012E000F48016B6F5801F06D1032653
:1019F00006FA05F4A14341F0706106E0460D360198
:101A000003FA06F6B14341F0706122B1460D36018A
:101A100003FA06F6314300F00046B6F1004F02D15A
:101A20001C4EF16101E01B4E7160F0BD30B500222B
:101A30008B071C0F0F2303FA04F2164B08338C108C
:101A400053F824309343134C08348D1044F8253058
:101A500023468C1053F824308C07240F00FA04F42A
:101A600023430C4C08348D1044F8253030BD0A490E
:101A7000DC3108607047000000080140000C0140A4
:101A8000001001400014014000180140001C0140FA
:101A9000002001400000014000002042DF480068B3
:101AA00040F00100DD49086008464068DC49084014
:101AB000DA49486008460068DA490840D7490860B2
:101AC0000846006820F4802008600846406820F43A
:101AD000FE0048604FF41F0088607047CF490968D6
:101AE00021F48031CD4A11601146096821F480212A
:101AF0001160B0F5803F03D0B0F5802F0ED106E025
:101B0000C649096841F48031C44A116007E0C349FD
:101B1000096841F4A021C14A116000E000BF00BF84
:101B2000704710B501460022002300204A11012A07
:101B300002D1BA4C236806E0022A02D1B74C236ACC
:101B400001E0B64C636A01F01F02012494401C407E
:101B50000CB1012000E0002010BD38B5002000903D
:101B60000024002500BF3120FFF7DBFF0546009869
:101B7000401C00900098B0F5A06F01D0002DF2D06D
:101B80003120FFF7CEFF08B1012400E000242046F9
:101B900038BD01460020A14A106820F0F80040EA54
:101BA000C10010607047A0490860704702460020DD
:101BB0009A4B586820F47C1042EA01031843974B73
:101BC0005860704798490866704701460020934A5C
:101BD000506820F003000843506070478F48406809
:101BE00000F00C007047014600208C4A506820F03D
:101BF000F00008435060704701460020874A506853
:101C000020F4E06008435060704701460020834A9A
:101C1000506820F4605040EAC1005060704729B11C
:101C20007E4A527A02437D4B5A7204E07B4A527AD2
:101C300082437A4B5A7270477B49D83108607047AB
:101C400001460020754A506820F440400843506027
:101C500070470021714A20321170704A82F82010BA
:101C6000012802D004280AD104E001216B4A203265
:101C7000117005E00521694A2032117000E000BFB3
:101C800000BF70476949086070476449096A0143A9
:101C9000624A11627047654944390860704730B53F
:101CA00000210022002400235C4D6D6805F00C012A
:101CB00021B1042905D0082923D105E05C4D056038
:101CC00022E05B4D05601FE0544D6D6805F4701215
:101CD000524D6D6805F48034022505EB92421CB923
:101CE000544D554305600BE04C4D6D6805F40035CF
:101CF0001DB1504D5543056002E04D4D5543056003
:101D000002E04B4D056000BF00BF444D6D6805F01B
:101D1000F0010909484D6B5C0568DD4045603F4DA9
:101D20006D6805F4E061090A434D6B5C4568DD4070
:101D300085603A4D6D6805F46051C90A3E4D6B5C93
:101D40004568DD40C560354D6D6805F44041890B3F
:101D50003A4D6B5CC568B5FBF3F5056130BD29B143
:101D60002E4A526902432D4B5A6104E02B4A5269B4
:101D700082432A4B5A61704729B1284A926902432B
:101D8000264B9A6104E0254A92698243234B9A616B
:101D9000704729B1214AD2690243204BDA6104E03D
:101DA0001E4AD26982431D4BDA61704729B11B4A32
:101DB000D2680243194BDA6004E0184AD2688243C1
:101DC000164BDA60704729B1144A12690243134B6B
:101DD0001A6104E0114A12698243104B1A6170477C
:101DE00012494039086070470F49C86470470B4971
:101DF000C87170470948406A40F0807007494862DE
:101E0000704701460020054A92680A400AB1012045
:101E100000E00020704701498872704700100240BE
:101E20000000FFF8FFFFF6FE00004242800442423D
:101E300000127A0000093D0022000020320000203C
:101E400010B50446FB48844209D101218803FFF7FD
:101E5000ADFF00214FF48040FFF7A8FF32E0F648C5
:101E6000844209D101214804FFF7ADFF00214FF45E
:101E70000030FFF7A8FF25E0F048844209D1012196
:101E80008804FFF7A0FF00214FF48020FFF79BFF9D
:101E900018E0EB48844209D10121C804FFF793FF01
:101EA00000214FF40020FFF78EFF0BE0E54884424D
:101EB00008D101210805FFF786FF00214FF48010AB
:101EC000FFF781FF10BD2DE9F04786B005460E46AD
:101ED0000024A24600BFA1460027B08900B100BF80
:101EE0002F462C8A4CF6FF700440F08804432C8265
:101EF000AC894EF6F3100440B088318908437189EB
:101F000008430443AC81AC8A4FF6FF400440B089DB
:101F10000443AC8201A8FFF7C2FEC648874202D143
:101F2000DDF810A001E0DDF80CA0A88900F4004065
:101F300040B10AEBCA0000EB0A1031684900B0FB5F
:101F4000F1F807E00AEBCA0000EB0A1031688900DB
:101F5000B0FBF1F86420B8FBF0F004012009642123
:101F600001FB1089A88900F4004040B1322000EB49
:101F7000C900B0FBF1F000F00700044308E0322094
:101F800000EB09106421B0FBF1F000F00F000443F6
:101F90002C8106B0BDE8F0874FF416510160002196
:101FA0008180C18001810C214181002181817047A4
:101FB00010B502460020108A4FF2FF0318400B882C
:101FC0004C8823438C882343CC88234318431082B6
:101FD00010BD0021018041808180C180704721B106
:101FE000828942F40052828104E082894DF6FF73B7
:101FF0001A4082817047F0B5034600240026002570
:10200000002040F66A17B94200D100BF1846C1F35C
:10201000421401F01F06012707FA06F5012C01D131
:102020000C3004E0022C01D1103000E014301AB161
:1020300007682F43076002E00768AF430760F0BD01
:102040001AB1838A0B43838202E0838A8B438382A3
:102050007047028A4FF6F0731A400282028A0A43DE
:102060000282704782894FF2FF731A40828182890F
:102070000A438281704721B1828942F00202828143
:1020800004E082894FF6FD731A4082817047028A0C
:102090004FF6DF731A400282028A0A4302827047B7
:1020A00021B1028A42F48042028204E0028A4BF6A5
:1020B000FF731A4002827047C1F3080282807047A2
:1020C00001468888C0F308007047818941F001010A
:1020D00081817047028BD2B20283028B42EA0122D5
:1020E00002837047028B02F47F420283028B0A4311
:1020F0000283704721B1828A42F02002828204E08A
:10210000828A4FF6DF731A408282704721B1828A39
:1021100042F01002828204E0828A4FF6EF731A4086
:102120008282704721B1828A42F00802828204E0F2
:10213000828A4FF6F7731A408282704721B18289F2
:1021400042F40042828103E08289C2F30E0282815E
:10215000704721B1828A42F40062828204E0828A5E
:102160004FF2FF731A4082827047828A4FF6FB73E8
:102170001A408282828A0A438282704721B1828A0F
:1021800042F00202828204E0828A4FF6FD731A4016
:102190008282704702460020B1F5007F00D100BF67
:1021A00013880B400BB1012000E00020704701F4C0
:1021B0000072B2F5007F00D100BFCA4302807047B1
:1021C00070B50246002400230025002040F66A1660
:1021D000B14200D100BFC1F3421501F01F03012637
:1021E00006FA03F3012D02D19689334006E0022D51
:1021F00002D1168A334001E0968A33400C12012640
:1022000006FA04F41688344013B10CB1012000E042
:10221000002070BD10B50022002340F66A14A142D0
:1022200000D100BF0A1201249440A3B2DC43048011
:1022300010BD00000038014000440040004800404C
:10224000004C00400050004031490143314A1160C8
:10225000704770B5002100230F22C47804B32D4CC1
:10226000246804F4E064C4F5E064210AC1F10403C5
:10227000CA40447804FA03F18478144021430901E8
:10228000254C0678A155047804F01F050124AC40C4
:1022900005786D11AD0005F1E025C5F8004109E0B4
:1022A000047804F01F050124AC401C4D067876111B
:1022B00045F8264070BD1A4A0A400243154B1B1FC1
:1022C0001A60704739B1134A121D12680243114B4C
:1022D0001B1D1A6006E00F4A121D126882430D4B47
:1022E0001B1D1A607047042808D14FF0E0210969CE
:1022F00041F004014FF0E022116107E04FF0E021CE
:10230000096921F004014FF0E022116170470000DB
:102310000000FA050CED00E000E400E080E100E0E0
:1023200080FFFF1F10B501214807FFF74CFD00217A
:102330004FF00050FFF747FD10BD30B500220023DD
:102340005A4C226840F6FE748440A243D1E900450D
:102350002C438D682C43CD6844EA050303FA00F44E
:102360002243524C226030BD0021016041608160F7
:10237000C160704739B14D4A1268012383401A4346
:102380004A4B1A6006E0494A1268012383409A4387
:10239000464B1A60704741B1444A12684FF480536B
:1023A00083401A43414B1A6007E0404A12684FF4D9
:1023B000805383409A433D4B1A60704710B551B12A
:1023C0003A4A121D126804090123A3401A43374BED
:1023D0001B1D1A6009E0354A121D12680409012309
:1023E000A3409A43314B1B1D1A6010BD40B12F49C9
:1023F000091D096841F003012C4A121D116007E014
:102400002A49091D096821F00301284A121D11609B
:10241000704710B53AB1254B1B6801FA00F423430D
:10242000224C236006E0214B1B6801FA00F4A34311
:102430001E4C236010BD08B5002200921B4A00927A
:1024400000F10802009B1A440092009A116008BD36
:1024500008B500220092154A009200F11402009B78
:102460001A440092009A116008BD30B50024002380
:10247000082802D142EA012401E042EA01440B4B60
:1024800000F120052B441C6030BD08B5014600203A
:102490000090064800902C2000EB9100009A104418
:1024A00000900098006880B208BD000000740040F1
:1024B0007047704770477047704710B500F008F8D4
:1024C000006810BD10B5044600F002F8046010BDAD
:1024D00000487047A006002000487047A006002072
:1024E0007546FFF7F9FFAE4605006946534620F0F2
:1024F0000700854618B020B5FFF710F9BDE8204069
:102500004FF000064FF000074FF000084FF0000BAF
:1025100021F00701AC46ACE8C009ACE8C009ACE862
:10252000C009ACE8C0098D46704710B50446AFF34A
:1025300000802046BDE81040FDF741BE490050EA4A
:10254000C12018BF04204A0D18BF40F0010040F21E
:10255000FF72B2EB515F08BF40F00200012808BFD4
:10256000052070472DE9F74F144694B00021C4E9C7
:1025700002111599079121F00045C9498D4206DCE9
:102580001599C4E9000117B00020BDE8F08FC549D6
:10259000DFF814A3A9423CDD0799C44E0029C44FBB
:1025A000C44A1599534619DD00F018FF554506D069
:1025B000C14AC24B00F012FFC4E900010AE04FF02B
:1025C000D352BE4B00F00AFF32463B4600F006FFF6
:1025D000C4E9000117B00120BDE8F08F00F064FBF2
:1025E000554506D0B44AB54B00F05EFBC4E9000186
:1025F0000AE04FF0D352B14B00F056FB32463B4657
:1026000000F052FBC4E9000117B04FF0FF30BDE805
:10261000F08FAB49A942159978DB21F00041834640
:102620008846A84AA84B00F0CFFD0022A74B00F037
:102630003BFB00F041FD099000F09BFD06460F4674
:102640009C4A534600F0C0FD43465A4600F0BAFE8D
:1026500080468A46984A994B3046394600F0B4FD88
:102660002A0D01250B924246534600F0ABFE032D86
:10267000C4E9000139D00B98C1F30A51401A05EBA7
:1026800045111139814230DA9148C346784400EB54
:102690000510CDF80CA00C90D0E900233046394647
:1026A00000F092FD02460B460491069058460399AD
:1026B00000F094FE80468A4602460B46584603992F
:1026C00000F08CFE049B069A00F088FE83460C986E
:1026D00003913946D0E90223304600F075FD5A4691
:1026E000039B00F07BFE6D1CBDE707980028A2BF8E
:1026F000099817B0BDE8F08F616881F00041616012
:10270000099817B04042BDE8F08FFFE7844615985E
:10271000C1F31301C0F30A50A0F2F5304FEA60187C
:1027200000F01F06C6F120001390002006900790CD
:1027300041F4801E05206D4676B1664A08EB000123
:102740007A4452F8213002EB8101B3404A68139970
:1027500022FA01F1194305E05F4908EB00027944D0
:1027600051F82210A1FB0E27A1FB0C131A449A4228
:1027700034BF0123002303EB070A05EB8003D3E9F1
:1027800001B70F448F4234BF0121002193448B4491
:1027900011B1934502D903E0934501D2012100E034
:1027A0000021C3E901B7514445F82010011EA0F1F2
:1027B0000100C1DC0298059F00F10050800F1290CB
:1027C0000298DDE90356800000F0D3FC83462846DA
:1027D0000D9100F0E5FC6FF01D0201F0A4F8CDE9C9
:1027E0000E01304600F0DCFC6FF03D0201F09BF87A
:1027F00080468A46384600F0D3FC6FF05D0201F057
:1028000092F8074642465346119100F04DFADDE931
:102810000E2300F049FA5A460D9B00F045FA0025B8
:102820000E465A4628460D9B00F0D8FDDDE90E23E2
:1028300000F0D4FD4246534600F0D0FD3A46119BCD
:1028400000F0C0FDDFF898A0244A534600F0BCFC1D
:1028500007468846234A244B3146284600F0B4FCFC
:102860003A46434600F020FA074688464FF0A84211
:1028700053463146284600F0A7FC3A46434600F04E
:1028800013FA159A12F0004F04D0129A81F0004109
:1028900052421292C4E90001129817B0BDE8F08FBD
:1028A000FB21E93F7CD90240FB21F93F7370032EE5
:1028B0008A19A33B000040543163621A61B4D03DD1
:1028C000FB21394183C8C96D305FE43F0000E03F20
:1028D00058130000D4120000B6120000182D445402
:1028E000FB21F93D3326A611460B113C2DE9FF4D86
:1028F00021F0004807460C46B8F1795F08DA00F08D
:10290000DBFB002801BF0020324904B0BDE8F08D98
:102910003A4623461046194600F056FC0546024644
:102920002D480E460B460621784400F05DF82A46F5
:10293000334600F049FCDDE9022382468B463846E7
:10294000214600F041FC04460F4652465B462846AD
:10295000314600F039FC22463B4600F03FFD074679
:102960008A464FF0FF322846314600F0DCFF1B4A12
:1029700090450ADA3A46534600F030FD04B0002292
:10298000BDE8F04D134B00F01DBD154A4245A8BFF0
:10299000A8F500154FF00004B8BF124D22462B4693
:1029A00000F01CFD0646884622462B4600200949B9
:1029B00000F014FD04460D463A4653463046414663
:1029C00000F00CFD04B022462B46BDE8F04D00F0AF
:1029D000F9BC00000000F03F8C1000003333D33FFF
:1029E0000000E93F0000D23F2DE9F0414F1E00EB0F
:1029F000C7010446D1E9000115461E4637F006021C
:102A00000DD02A46334600F0DFFB7F1E04EBC703E0
:102A1000D3E9002300F048F937F00602F1D1022F84
:102A200025D0042F13D0062F18BFBDE8F0812A4609
:102A3000334600F0C9FBD4E90A2300F035F92A46F1
:102A4000334600F0C1FBD4E9082300F02DF92A46F3
:102A5000334600F0B9FBD4E9062300F025F92A46F5
:102A6000334600F0B1FBD4E9042300F01DF92A46F7
:102A7000334600F0A9FBD4E9022300F015F92A46F9
:102A8000334600F0A1FBD4E90023BDE8F04100F09B
:102A90000BB900002DE9FF4D054621F0004084B040
:102AA0000C46B0F1795F0BDA2846FFF747FD0428A2
:102AB00008BF00F06FF8284608B02146BDE8F08D49
:102AC0002A460B46104600F07FFB06460F462A4674
:102AD000234600F079FB804626488A4632463B462C
:102AE00005217844FFF780FF83461098029160B378
:102AF000214A224B4046514600F066FBCDE90001D9
:102B00005A4640465146029B00F05EFB824688468C
:102B1000DDE906014FF0FF3200F005FF5246434663
:102B200000F05CFC32463B4600F04EFBDDE906233C
:102B300000F054FCDDE9002300F050FC08B02A4608
:102B40002346BDE8F04D00F03DBC0B465A463046EA
:102B5000394600F039FB084A084B00F0A5F8424618
:102B6000534600F031FB08B02A462346BDE8F04D3D
:102B700000F09AB8CA0F0000495555555555C5BFC4
:102B8000012200F0D0BE002213461046114600F08C
:102B90003BB90000024A0020110700F0C4BE00004B
:102BA00001FDFFFF00B5254B21F0004287B09A429E
:102BB00003DC0022134600922BE0214B9A4208D1FD
:102BC00040B94FF00100FFF77DFCFFF7DCFF07B0D5
:102BD00000BD03DBFFF7D4FF07B000BD02AAFFF77B
:102BE000C1FC10F003014FF001000DD0012914D0F9
:102BF00002291AD00DF1080C9CE80F00FFF776FEB1
:102C000007B081F0004100BD0DF1080C00909CE878
:102C10000F00FFF73FFF07B000BD0DF1080C9CE867
:102C20000F00FFF763FE07B000BD0DF1080C009028
:102C30009CE80F00FFF72EFFE2E70000FB21E93FD1
:102C40000000F07F21F00042A2F16052B2F5801F37
:102C500001F0004328BFD2F17F6C0BD95FEA001C62
:102C600043EAC20242EB507018BF704728BF20F001
:102C700001007047B2F5801FBCBF184670474FEA8D
:102C8000410C1CF5001F02D2084600F0E4BD70B5EF
:102C900000F044FB00000089FFF7F6BF4FF0004052
:102CA000A0F580007047000010B591EA030F48BFFF
:102CB00083F0004300F19A83841A71EB030C05D270
:102CC000121943EB0C03001B61EB0C01DFF824E14C
:102CD0004FEA1154A4EB135C1EEA430F18BF9EEA9F
:102CE000445F73D023EA0E03DCF1200E21EA045185
:102CF00043F4801332D322FA0CFE10EB0E0023FAB9
:102D00000CFE41EB0E01CCF1200E03FA0EFE10EB8F
:102D10000E0051F10001B1F5801FCCF1200E32D22E
:102D200001EB045112FA0EF2BDE8104058BF704793
:102D3000401C38BF5FEA420218BF7047002814BF2A
:102D400020F0010041F100014FEA410313F5001F9B
:102D500038BF7047A1F1C04100F02EBB012A43EB00
:102D60000302ACF1200CDCF11F0E32BF4FF0000E5D
:102D700023FA0CF310EB030041EB0451B4EB115FA9
:102D8000D0D0A1EB045101F5801149085FEA300071
:102D900001EB04510ED350F1000038BF12FA0EFEC1
:102DA00008D1BDE81040C9E7401C38BF5FEA4202C5
:102DB000CAD1C3E7BDE810404FEA410313F5001F35
:102DC00038BF7047A1F1C04100F0F6BA9EEA445FF7
:102DD00008D011EA5E0FBDE8104004BF01F00041C9
:102DE00000207047BDE8104070B500F097FA00BFB2
:102DF00064FBBE3E0000E0FF02494FF0000000F01F
:102E000060BD00BF0000F87F2DE9C04130B4DFF89D
:102E1000A0C23CEA111418BF3CEA131400F0EC8085
:102E200081EA03051CEA111444EAD57418BF1CEAB0
:102E3000131500F0C780A4EB05044FF0004545EAE8
:102E4000C12145EAC32341EA505143EA525304F1F8
:102E50007F74994204F500344FEAC0204FEAC22241
:102E600008BF904200F09C804FEA13650FF24016B5
:102E7000765D4FEA134506FB05F7C7F1807706FB41
:102E800007F74FEAD737A7FB03687642C8F58038C3
:102E9000A7FB06CE38BFA8F1010807FB08E64FF0F4
:102EA000000EA6FB028CE6FB03CEDCF1000CCEF19B
:102EB000004E38BFAEF1010EA6FB0C584FF00007D4
:102EC0004FF00005E6FB0E87A1FB08C6A0FB07CE6E
:102ED00016EB0E0645F10005E1FB076515F1E04E26
:102EE0007EBFA4F580345FEA46066D4116F1800787
:102EF00045F100054FEA17274FEA066647EA0567DE
:102F0000A6F1DE46B6F1805F4FEA15251FD9384697
:102F100024F0010C05EBC471BCF1FE6F01EB0C1148
:102F200002D8F0BCBDE8008124425CBF01F5801EE0
:102F30009EEAC47F02D4F0BCBDE80081244238D4AC
:102F4000F0BCA1F1C041BDE8004100F035BA4FEA44
:102F5000D22242EA43524FEAD323A7FB02864FEA2A
:102F6000D02040EA415007FB03661EEA0E0F4FEAED
:102F7000D12105FB026658BFA6EB0056B6EB005602
:102F80004FEA520E4EEAC37E18EB0E0E56EB530E6E
:102F9000BDD518EB02085E417F1C55F10005B6E770
:102FA0004FF480154FF000074FF000064FF0000877
:102FB000ADE7F0BC4FF0000001F1C04101F000416D
:102FC000BDE8008111EA0C1F0CEA131500D00CE0DB
:102FD00013EA0C1F00F025804FF00000F0BC81EADE
:102FE000030101F00041BDE80081F0BCBDE80041F3
:102FF00081EA030100F0E0B9F0BCBDE8004170B522
:1030000000F08CF9097EFC3E00F007B881EA03016C
:103010004FF0000001F00041704781EA030100F029
:10302000CBB9F0BCBDE800414FF00000214970472A
:10303000FFFDFBF9F7F5F4F2F0EEEDEBE9E8E6E47D
:10304000E3E1E0DEDDDBDAD8D7D5D4D3D1D0CFCD04
:10305000CCCBCAC8C7C6C5C4C2C1C0BFBEBDBCBB3D
:10306000BAB9B8B7B6B5B4B3B2B1B0AFAEADACAB38
:10307000AAA9A8A8A7A6A5A4A3A3A2A1A09F9F9E12
:103080009D9C9C9B9A9999989797969595949393C4
:10309000929191908F8F8E8E8D8C8C8B8B8A89895B
:1030A00088888787868585848483838282818180DE
:1030B0000000FF070000F87F4FEA41034FEA535337
:1030C000A3F58063D3F11E03C8BFD3F1210C0CDD3F
:1030D0004FF0004242EAC12242EA505232FA03FC67
:1030E0008CEAE17CACEBE1707047102BC4BF002090
:1030F000704703F5787CBCF1FF3F04D06FF00042CD
:1031000082EA2100704770B500F008F949922480E6
:1031100000207047F2E700004FEA1153A3F58063E7
:10312000D3F11E03A8BFD3F1200C08DB4FF00042FF
:1031300042EAC12252EA505232FA03F07047094281
:103140000BD4102BC4BF0020704703F5787CBCF172
:10315000FF3F05D04FF0FF3070474FF00000704741
:1031600070B500F0DBF800BF499224800020704762
:10317000F0E710F0004248BF4042B0FA80F310FA86
:1031800003F10AD0C3F11D0303F580634FEA4150F8
:1031900002EB035202EBD12170474FF00000704761
:1031A000B0FA80F310FA03F10AD0C3F11D0303F55E
:1031B00080634FEA41504FEA035202EBD12170473E
:1031C0004FF0000070470000DFF848C170B51CEAFE
:1031D000111E1EBF1CEA13159EEA0C0F95EA0C0F78
:1031E00000F06F8081EA030423EA4C134EEAD47E98
:1031F00021EA4C1141F4801143F48013AE44A1FB49
:10320000024CA0FB0365AEF17F7E361955EB0C0531
:10321000A1FB034C4CF10003A0FB021C16EB0C06B7
:10322000654153F10003094218BF46F0010613F44B
:10323000007F0BD14FEA03314FEA0530340341EAF6
:10324000155140EA16506FF003020AE04FEAC3211D
:103250004FEAC520F40241EA555140EA56506FF05A
:10326000020202EB2E4201EB025585EACE710AD032
:103270005FEA440C18BF24F0004450F1000041F113
:10328000000120EAD47040F2FE7C624500D270BD9D
:10329000A84214BF4FF080444FF04044002E08BFB6
:1032A0000024BEF1806FA8BFA1F1C041BDE870400D
:1032B00080F282804FF0000001F1C04101F0004136
:1032C00070479EEA0C0F0CEA131518BF95EA0C0F15
:1032D00006D04FF0000081EA030E0EF0004170BDF1
:1032E00000F01CF88900013E00F007B800F009B8B2
:1032F0004FEA430C5FEA5C5C08D081EA030100F00E
:103300005BB84FEA410C5FEA5C5CF6D14FF000001D
:10331000014970470000FF070000F87F0EF1020E20
:103320002EF0030E5EF8046B364205D4012A43EBFF
:10333000030515F5001F12D8012841EB010C1CF5FF
:10334000001F0CD80ED14FEAD17C15F5001F0CEBF5
:103350004C0C0CF1020C08BF4CEBD37C04E04FF09A
:10336000080C01E04FEAD37C0CEB4C0526FA05F67D
:1033700006F00706B6F1040C06D20EEB860CBDE88B
:1033800070404CF0010C6047DFE80CF0090B0202C2
:103390004FF000414FF00000A1F5002170BD19462B
:1033A0001046012851EB010418BFD4F5001484BF66
:1033B000002001F0004170BD0808A0F500114FEA9F
:1033C0003101704791EA030F10B581F000413FF5DC
:1033D00073AC83F0004300F009B8000010B591EA27
:1033E000030F48BF83F000433FF566AC841A71EBCE
:1033F000030C07D212198CF0004C43EB0C03001B9A
:1034000061EB0C01DFF8A4E14FEA1154A4EB135C6B
:103410001EEA430F18BF9EEA445F00F0B08023EA23
:103420006E03524221EA0451C3EB6E0338BF5B1EA8
:10343000DCF1200E25D322FA0CFE10EB0E0043FA2D
:103440000CFE41EB0E01CCF1200E03FA0EFE10EB48
:103450000E0051F10001CCF1200E29D412FA0EF227
:1034600001EB0451BDE8104058BF7047401C1CBF21
:10347000B2F1004F704700280CBF491C20F001003A
:10348000704712EB020E43EB030218BF4FF0010E20
:103490004EEA4202ACF1200CDCF11E0E54D943FA84
:1034A0000CFE10EB0E0051F1FF31CCF11E0ED5D504
:1034B0000EF1010E12FA0EFE404141EB010101EB4B
:1034C000445C5FEA5C5C10D910EBDE7001EB0451E8
:1034D00038BFBEF1004FBDE8104018BF704700284C
:1034E0000CBF491C20F00100704730D24FEAD42CA9
:1034F00011F5001124F400641BD0B1FA81F20B3AEB
:10350000A41AA41ED2F12003914030FA03F3194308
:10351000904001EBCC71002C01EB0451BDE8104050
:10352000A8BF704701F1C0414FF0000001F0004119
:103530007047B0FA80F310FA03F100D110BDE41A1D
:10354000173C4805C90AE4E701EB045110BD4910D6
:1035500001EB0451BDE810404FEA300002E04FF0AB
:10356000000170474A0008BF0042F8D0B2F5001FC2
:1035700028BF704701F000414FF0000070479EEAFD
:10358000445F07D011EA5E0FBDE8104004BF002180
:1035900000207047BDE8104070B5FFF7BFFE00BFC8
:1035A00040DFF63E83F00041104670470000E0FF28
:1035B00043004FEAD30C4FEA3C0C43401FBF400787
:1035C0000CF1605113F0FE4F70471CF0006F03D1F7
:1035D00000200CF0004170470CF0004343EA5070AB
:1035E00010B540EACC0000F0F0F800BF00000092F7
:1035F0004FEA0001FFF7E0BE4FF000414FF000003E
:10360000A1F500217047401058BFC0F1404049105B
:1036100058BFC1F140418142EFF300807047000084
:10362000C10DD1F19E0206DB4FEA002343F00043B7
:1036300023FA02F07047004207D54FEA4001B1F18A
:10364000FE4F02D24FF00000704710B500F0BDF8F9
:1036500049922480002070476FEA200070470000E4
:1036600050EA010C00F113801CF5000F58BFBCF5A7
:10367000000F01D48842704707D710F5000F58BFDC
:1036800011F5000F15D488427047894270471CF528
:10369000000F04D5BCF5000FF7D5814270474FF0FD
:1036A000807C1CEB400F38BF1CEB410F01D28142E4
:1036B000704710B500F089F8922449004FF000508F
:1036C0004FF08051FFF79FBF4FF47F0C1CEAD012E0
:1036D0001EBF1CEAD11392EA0C0F93EA0C0F00F004
:1036E000478090EA010F48BF42F480724FF0004CCF
:1036F0004CEA00204CEA012102EB0302A0FB01137B
:10370000A2F50002002918BF43F001035B0028BFA7
:103710004FEA330342EB22425FEA132C4CEBC250D8
:103720002EBFBCEB436FB2F57C0F70474FEA036CC2
:10373000BCF1004F08BF20F00100B2F57C0F38BF8C
:1037400070470BD582F0FF0212F5803FC8BF70476B
:1037500000F1C040D8BF00F00040704700F5000CF9
:103760005FEA4C0C48BF7047B0F1C04000F073B83E
:1037700090EA010F0CEAD11348BF42F4807262450F
:1037800038BF634504D280EA010000F00040704772
:1037900010B500F01AF800BF8900013E00F007B82C
:1037A00000F009B85FEA410C5FEA1C6C08D080EABF
:1037B000010000F050B85FEA400C5FEA1C6CF6D1E3
:1037C0004FF00040A0F5800070470EF1020E2EF081
:1037D000030E5EF8044B244204D44FEA4102B2F1D6
:1037E0007F4F11D84FEA4003B3F17F4F0CD80ED171
:1037F0004FEAD07CB2F17F4F0CEB4C0C0CF1020C79
:1038000008BF4CEBD17C04E04FF0080C01E04FEA1C
:10381000D17C0CEB4C0324FA03F404F00704B4F15C
:10382000040C06D20EEB840CBDE810404CF0010CE9
:103830006047DFE80CF0070802024FF00040A0F5F7
:10384000800010BD0846420018BFD2F1807288BFC8
:1038500000F0004010BDFF2141EAD050C005704784
:1038600051EA000C00F113801CF5000F58BFBCF5A5
:10387000000F01D48142704707D711F5000F58BFE0
:1038800010F5000F15D481427047894270471CF52E
:10389000000F04D5BCF5000FF7D5884270474FF0F4
:1038A000807C1CEB410F38BF1CEB400F01D28842DB
:1038B000704780EA010081EA000180EA0100FFF719
:1038C000F8BE0CF00F03092B08BF082000F0598048
:1038D0000A2B0BD0082B18BF704708BF1CF0400FF5
:1038E0000AD04FF000004FF0000170471CF0400F6D
:1038F00018BF4FF0004070471CF0100F08D020F0A8
:10390000704300F07F4242EAD3014FEA43707047B0
:1039100000F0604021F07F4242EA000201F07F4067
:1039200040EA727070474FF0FF0C4CF4E06C1CEAF8
:1039300011531CBF9CEA030C9445C2BFDA4201EB51
:1039400002517047002B0DD0BCF1000F0FD0002AA0
:1039500001F00041A4BF41F0E04141F07F614FF030
:103960000000704701F000414FF00000704750EA3E
:1039700001334FF09B0C18BF4CF0806C7FF43CAAD5
:1039800070471CF4801F11D01CF4E02F03D06FEAA5
:10399000CC31490070474FF04050EFF3008222F0E5
:1039A000704242EA000282F3008870474FF0000044
:1039B00070470000000000004C5555555555A53F77
:1039C0007751C1166CC156BF9015CB19A001FA3EB4
:1039D000AD529C804F7E92BEC4B1B4BD9EEE213EDE
:1039E000D43888BEE9FAA8BD00004054FB21F93F55
:1039F0003163621A61B4D03D0000601A61B4D03DF9
:103A00007370032E8A19A33B0000002E8A19A33B72
:103A1000C14920259A837B39000000000000000086
:103A20006E83F9A22915444ED15727FCC0DD34F529
:103A3000999562DB4190433CAB6351FE61C5BBDEAF
:103A40003A6E24B7E0D24D42EA2E49061C92D109C3
:103A50001CEB1DFE3EA729B1F53582E88444BB2E40
:103A600026709CE9417E5FB439D69139F43953838D
:103A70008B5F849C3B28F9BDFF97F81F0F9805DEEC
:103A80008B112FEF1F6D0A5ACF7E366DB709CB27EA
:103A9000663F464F2DEA5F9EC7BA27757BF1E5EB7F
:103AA000F739073DEA92528AB15FFB6B085D8D1FC3
:103AB000A6F810111111813FD561C119A0012ABFCB
:103AC0007DFEB157E31DC73EEB9C2B8AE6E55ABE4F
:103AD0007CD5CF5A3AD9E53DF83A000800000020DD
:103AE000380000006C010008303B0008380000205E
:103AF000C80C0000880100080000000000A24A0471
:103B0000000000000000000001020304060708098D
:103B100000000000000000000000000000000102A2
:103B20000304010203040607080902040608000052
:0400000508000131BD
:00000001FF
