:020000040800F2
:10000000A81D0020A90100082B1F0008991D000849
:10001000291F0008E108000867250008000000000B
:10002000000000000000000000000000BB0100080C
:100030004D09000800000000BF0100084D1F000826
:10004000C3010008C3010008C3010008C301000880
:10005000C3010008C3010008C30100084F090008DC
:10006000C3010008C3010008C3010008C301000860
:10007000C3010008C3010008C3010008C301000850
:10008000C3010008C3010008C3010008000000000C
:10009000000000000000000000000000C301000894
:1000A000C3010008AD200008C3010008C301000817
:1000B000C3010008C3010008C3010008C301000810
:1000C000C3010008C3010008C3010008C301000800
:1000D000C3010008C3010008C301000800000000BC
:1000E000C3010008C3010008C301000800000000AC
:1000F000000000000000000000000000C301000834
:1001000000000000C3010008C3010008C30100088B
:1001100000000000000000000000000000000000DF
:10012000E5080008C3010008F1080008C301000841
:10013000C3010008000000000000000000000000F3
:10014000000000000000000000000000C3010008E3
:10015000C3010008C3010008C3010008C30100086F
:10016000C3010008C30100080000000000000000F7
:10017000000000000000000000000000000000007F
:1001800000000000C30100080000000000000000A3
:10019000C3010008DFF80CD000F026FA0048004741
:1001A000552E0008A81D0020064880470648004735
:1001B000FEE7FEE7FEE7FEE7FEE7FEE7FEE7FEE717
:1001C000FEE7FEE7592000089501000810B500225F
:1001D00000E0521C835C8C5CA34201D1002BF8D15F
:1001E000D8B2E1B2401A10BD30B50B46014600202E
:1001F0002022012409E021FA02F59D4205D303FAE9
:1002000002F5491B04FA02F52844151EA2F1010269
:10021000F1DC30BD2DE9F05F0546002092469B469B
:1002200088460646814640241BE02846414647460C
:10023000224600F0FAF953465A46C01A914110D3AB
:1002400011461846224600F0E1F92D1A67EB010825
:100250004F4622460120002100F0D8F917EB000993
:100260004E41201EA4F10104DFDC484631462A46F7
:100270004346BDE8F09F2DE9FE4F804681EA03002A
:10028000C00F0C46009021F0004123F00045B8EB70
:100290000200A94105D24046214690461C460B4625
:1002A000024623F00040104347D0270DC7F30A0051
:1002B000C3F30A510290401A019040286BDAC3F34D
:1002C000130040F4801B0098924620B10023D2EB2B
:1002D000030A63EB0B0B01985946C0F140025046EC
:1002E00000F094F906460D4650465946019A00F032
:1002F000ACF910EB08006141002487EA115284EA4E
:10030000E7731A4340D0009A62B3019A012A4FEA78
:10031000075215DC001B61EB02014FF0004202EABC
:100320000752CDE90042001C41F5801132462B46B0
:1003300000F0ACF903B0BDE8F08F40462146F9E784
:10034000001B61EB0201001C41F5801300185B41AA
:100350002018A2F5001747EB030140EAD570B61943
:100360006D4111E06D084FEA360645EAC0754FEA67
:100370000752001B61EB0201001C41F58011490886
:100380004FEA30000019514132462B4603B0BDE818
:10039000F04F00F06CB90098012240000023D0EB30
:1003A000020263EBE073009821464FEAE074B8EB79
:1003B000000061EB0401E9E783F000435BE781F0B3
:1003C000004158E72DE9FE4F81EA030404F00044A0
:1003D00021F0004100944FF0000B23F0004350EA5D
:1003E00001045ED052EA03045BD0C3F30A54C1F3A4
:1003F0000A552C44A4F2F3340194A0FB0254C1F337
:10040000130141F48011C3F3130343F4801301FB80
:10041000024400FB034E840A970A44EA815447EAE7
:100420008357A4FB076802958D0A05FB07854FEAF1
:10043000932C04FB0C542705029D4FEA065847EA0B
:100440001637B5EB08056EEB070C870E920E47EAE0
:10045000811742EA8312A7FB0201B6EB0B0164EBA2
:1004600000042B0D43EA0C335E1844EB1C50DA46B3
:100470005146E7FB0201C5F313044FEA0B3343EA8D
:1004800014534FEA0432019C43EA0603A4F10C041E
:100490000294009CCDE900B400F0F8F803B0BDE888
:1004A000F08F00200146F9E72DE9F04D81EA0304C1
:1004B00004F0004B21F0004514464FF0000A23F0F1
:1004C000004150EA050220D054EA01021DD0C5F3D4
:1004D0000A570246C5F31303C1F31300C1F30A56CA
:1004E00040F4801543F48013A7EB0608101BD64692
:1004F00008F2FD3873EB050002D308F1010801E0B2
:1005000092185B41B8F1000F03DA00200146BDE804
:10051000F08D00204FF48011064684460EE0171B34
:1005200073EB050705D3121B63EB050306434CEA87
:10053000010C49084FEA300092185B4150EA01076C
:10054000EDD152EA030012D082EA040083EA0501E9
:10055000084305D0101BAB4106D20122002306E060
:1005600000224FF0004302E06FF0010253101AEB3B
:1005700006004CEB085110EB0A0041EB0B01BDE803
:10058000F04D00F074B8C1F30A52C1F3130140F208
:10059000FF3341F480119A4202DA0020014670478D
:1005A00040F233439A42A2F2334202DC524200F05C
:1005B0003CB800F02BB8000030B5041E71F1000407
:1005C00004DB4FF00044404264EB0101141E73F160
:1005D000000405DB1C464FF00043524263EB04036A
:1005E000994208BF904230BD064C074D06E0E068D6
:1005F00040F0010394E8070098471034AC42F6D36A
:10060000FFF7CCFD6C3200088C320008202A04DB96
:10061000203A00FA02F1002070479140C2F1200315
:1006200020FA03F3194390407047202A04DB203A54
:1006300021FA02F00021704721FA02F3D040C2F102
:1006400020029140084319467047202A06DBCB1749
:10065000203A41FA02F043EAE07306E041FA02F37D
:10066000D040C2F12002914008431946704710B5AE
:10067000141E73F1000408DA401C41F100019218C5
:100680005B411A4301D120F0010010BD2DE9F04D6E
:1006900092469B4611B1B1FA81F202E0B0FA80F2C3
:1006A00020329046FFF7B2FF04460F4640EA0A00A8
:1006B00041EA0B0153465A46084313D0114653EA08
:1006C000010019D0C8F140025046FFF7AEFF0546C1
:1006D0000E46504659464246FFF798FF084305D05C
:1006E000012004E020463946BDE8F08D0020054396
:1006F00046EAE0762C4337430A986305E40AA0EB08
:1007000008000022FD0A44EA47540A3002D50020BE
:100710000146E9E7010510196941DDE908450019BD
:100720006941BDE8F04DA2E710B50146806B026C4F
:1007300012F0500F05D0806B826CBDE81040084667
:100740001047016C41F40071016401688A6812F07D
:10075000405F17D18269AAB9CA6A12F4700F02D039
:100760008A6852050ED44A6822F020024A60016C61
:1007700021F480710164016CC90403D4016C41F05F
:100780000101016400F0AEF910BD10B5806B40218D
:100790000164416C41F00401416400F0A5F910BD11
:1007A00010B5806B00F09FF910BD00004A4910B5EC
:1007B000D1F8042322F44032C1F80423D1F80423F1
:1007C00043681A43C1F8042301684A6822F480721E
:1007D0004A6001684A68036942EA03224A60016884
:1007E0004A6822F040724A6001684A6883681A4386
:1007F0004A6001688A6822F400628A6001688A6837
:10080000C3681A438A60816A6FF07062D1420168DE
:100810008A6822F070628A6001688A680CD0836AF4
:100820001A438A6001688A6822F040528A6001682F
:100830008A68C36A1A4301E022F040528A60016864
:100840008A6822F002028A6001688A68836942EA43
:1008500043028A60016A002901684A6815D042F49F
:1008600000624A6001684A6822F460424A60016896
:100870004B684FF46044426A94FAA4F4B4FA84F4E6
:10088000521EA24013434B6002E022F400624A6011
:100890000168CA6A22F47002CA620168CA6A838B5C
:1008A0000E4C04EB03531A43CA6201688A6822F4AF
:1008B00000728A6001688A68036B42EA43228A6098
:1008C00001688A6822F480628A6001688A684069E7
:1008D00042EA8020886010BD002001400000F0FF47
:1008E000FEE70000014800F0E5B900004C190020C7
:1008F000014800F0DFB90000AC00002001681823B7
:10090000CAB2103AB2FBF3F2054B6FF30901032AA6
:100910009B5C436500D9091D0165084670470000CE
:100920004432000830B50468256825F48025256028
:10093000046863608368402B036803D09960006893
:10094000C26030BD9A600068C16030BDFEE7022021
:1009500000F0ECBA10B586B004460220CDE90004E0
:10096000002002906946054800F0ECFA072000F0EC
:100970000EFC0348046006B010BD000000040240F5
:100980001400002001284FF0070001D000F0FFBB49
:1009900000F008BC78B50024009490F83C20012AAF
:1009A00019D0012280F83C200A6807230568092A2B
:1009B00013D9EE680A3A02EB420293409E43EE607E
:1009C0000B788A680A3B03EB43039A400368DD68AF
:1009D0002A43DA6010E0022078BD2E6902EB420261
:1009E00093409E432E610A788B6802EB420293404B
:1009F000026815692B4313614A681F23072A13D223
:100A000005686E6B521E02EB820293409E436E633A
:100A10000B790A885B1E92B203EB83039A4003684A
:100A20005D6B2A435A6327E005680D2A12D22E6BAC
:100A3000D21F02EB820293409E432E630B790A88F9
:100A4000DB1F92B203EB83039A4003681D6B2A43BA
:100A50001A6311E0EE6A0D3A02EB820293409E4364
:100A6000EE620B790A880D3B92B203EB83039A4046
:100A70000368DD6A2A43DA62174A0368934208D1A1
:100A80000B68122B05D1D2F8043343F48003C2F86B
:100A90000433036893421AD10B68102B01D0112B39
:100AA00015D1D2F8043343F40003C2F804330968C3
:100AB00010290CD109490A4A0968B1FBF2F101EB8E
:100AC0008101490000E0491E00910029FBD180F816
:100AD0003C40002078BD0000002001401C000020A8
:100AE00040420F0070477047704770B504004FF0E8
:100AF000000503D0206C002610B107E0012070BD76
:100B0000666484F83C60204600F01AF8206CC00649
:100B100010D4206C20F4885040F00200206420465D
:100B2000FFF744FE6664206C20F0020040F00100F4
:100B3000206400E0012584F83C60284670BD000078
:100B400070B506460068174986B0884227D1164816
:100B50000025016841F4807101600068694600F475
:100B600080700590072000900320CDE901050F4813
:100B700000F0E8F90F4C0E48C4E900050015A56027
:100B8000C4E90350400060618000A0614011C4E9E5
:100B900007052046656200F05DF9B463A66306B000
:100BA00070BD0000002001404438024000000240B7
:100BB000106402404C190020F8B50D46002104468F
:100BC000009190F83C00012807D0012084F83C00F7
:100BD00020688368DB0702D011E00220F8BD83683B
:100BE00043F0010383602D482D4B0068B0FBF3F008
:100BF00000EB400000E0401E00900028FBD1206880
:100C00008368DB0748D0236C40F20166B34343F4AA
:100C1000807323644068400505D5206C20F40050A3
:100C200040F480502064206CC00404D5606C20F037
:100C30000600606400E0616484F83C10A16B194810
:100C4000C863A16B18480864A16B184888642168C0
:100C50006FF0020008602068416841F080614160E7
:100C60002068816841F480718160216813462A46BA
:100C70004C31A06B00F02AF90D49D1F80403C006ED
:100C8000206801D0884207D1816811F0405F03D10C
:100C9000816841F0804181600020F8BD1C00002087
:100CA00040420F0029070008A10700088B07000831
:100CB000002001402DE9F041056D0446296890F8B7
:100CC0005420082000FA02F211424FF004074FF0BE
:100CD000000617D021680A68520713D50A6822F067
:100CE00004020A6094F854108840A860E06C40F058
:100CF0000100E06484F8357084F83460A16C09B1B7
:100D000020468847296894F85420514800FA02F296
:100D1000114217D021684A69120613D54A6922F098
:100D200080024A6194F854108840A860E06C40F05A
:100D30000200E06484F8357084F83460A16C09B175
:100D4000204688472968424894F85420C01C00FA7D
:100D500002F2114217D021680A68920713D50A6877
:100D600022F002020A6094F854108840A860E06CF7
:100D700040F00400E06484F8357084F83460A16CBD
:100D800009B1204688472A6894F85410102000FAC8
:100D900001F31A421BD021680A68120717D50A68A6
:100DA00057034FF0310228D5AB6020680168090372
:100DB00003D400BF84F8352005E00068000302D5A5
:100DC000412084F83500216C09B1204688472B6802
:100DD00094F85410202000FA01F2134236D0216812
:100DE0000B68DB0632D50B685B031CD5AA60206854
:100DF000016809030DD4616C0FE00B68DB0503D4B7
:100E00000B6823F008030B6094F854108840A86026
:100E1000D0E70068000319D5E16B002916D0204601
:100E2000BDE8F04108470A68D20503D40A6822F0F9
:100E300010020A6094F854108840A860E06CE064E6
:100E4000112084F8350084F83460E5E7BDE8F081CE
:100E50000100800070B504001AD00220636A84F893
:100E600035002268116818480140D4E9010528437B
:100E7000D4E903563543284365692843A5692843C7
:100E8000E5692843256A28430843042B02D005E07E
:100E9000012070BDD4E90B13194308431060226888
:100EA0005069616A20F007000843042901D1A16A52
:100EB000084350612046FFF721FD0020E064012037
:100EC00084F83500002070BD3F8010F070B50446F6
:100ED00090F8340001281ED0012084F8340002204C
:100EE00084F835002068056825F001050560204676
:100EF000FFF718FD2068016841F01E0101602068BD
:100F0000416941F0800141612068016841F00101BF
:100F10000160002070BD022070BD10B50020FFF7F9
:100F200031FDBDE8104002F05FB90000044910B582
:100F30000A68024202D00860FFF7EFFF10BD000010
:100F4000143C01402DE9F84FDFF860B100224FF06A
:100F500001084FF0030A4FF00F090BF1040E00BF18
:100F60000B6808FA02F42340A3426ED14D68022DAB
:100F700001D0122D0ED1D50800EB850CDCF82050E5
:100F80005607F70E09FA07F6B5430E69BE402E4321
:100F9000CCF82060066855000F790AFA05FC07F0C6
:100FA000030726EA0C06AF40374307604E68012E60
:100FB00005D0022E03D0112E01D0122E0ED186683C
:100FC000CF6826EA0C06AF40374387604668A643E1
:100FD0000C79C4F30014944034434460C6688C68B0
:100FE00026EA0C06AC403443C4604C68E40056D595
:100FF0002F4C256845F480452560246822F00305C0
:1010000004F4804400942B4C2E19D6F80848950718
:101010002F0F09FA07F5AC43274DA84201D100254F
:1010200015E0264DA84201D1012510E0244DA8422B
:1010300001D102250BE0234DA84201D1032506E092
:10104000214DA84202D1042501E028E00525BD403C
:101050002543C6F80858DBF800405D464E689C43BF
:10106000F60300D51C432C60DEF8004075464E6840
:101070009C43B60300D51C432C600C4D08352C68EE
:101080004E689C43F60200D51C432C60074D0C357E
:101090002C684E689C43B60200D51C432C60521C41
:1010A000102AFFF45DAFBDE8F88F0000003C01405E
:1010B0004438024000300140000002400004024079
:1010C00000080240000C0240001002400AB1816199
:1010D00070470904FBE70000014800687047000002
:1010E0001800002002480168491C01607047000098
:1010F000180000200B4810B5016841F40071016030
:10110000016841F480610160016841F4807101600F
:10111000032000F073F8032000F006F800F015F843
:10112000002010BD003C024010B5044600F018F944
:101130004FF47A71B0FBF1F000F007FB002221467A
:10114000501E00F03BF8002010BD10B5032000F049
:1011500055F8002211466FF00B0000F02FF8002226
:1011600011466FF00A0000F029F8002211466FF0D6
:10117000090000F023F800221146101F00F01EF8AD
:1011800000220321BDE81040081F00F017B800F04E
:101190001F02012191404009800000F1E020C0F8C9
:1011A0008011704700F01F0201219140400980002A
:1011B00000F1E020C0F8001170470000F0B40E4BC1
:1011C0001B680C46C3F30223C3F10705042D00D9A5
:1011D0000425191D072901D2002300E0DB1E01268A
:1011E00006FA05F1491E214099409E40761E1640A0
:1011F0003143F0BC00F09ABE0CED00E0064900F06F
:10120000070208684FF6FF03184040EA0220034A2D
:1012100010430860704700000CED00E00000FA0584
:101220002DE9F047DFF830A105460F46DAF8000057
:1012300000F00F01F8B28146B94208D201468AF89F
:101240000010DAF8000000F00F00B8426AD12878E8
:10125000424C800705D52068A96820F0F0000843BB
:1012600020602878C0074FD03C49686808390128B9
:1012700019D002281AD0032818D009688907002934
:1012800050DA216821F0030101432160FFF724FFB8
:101290000646686841F28838012810D002281AD022
:1012A00003281ED02CE009688903E8E70968890152
:1012B000E5E700BFFFF710FF811B41451DD82068FF
:1012C000C0F381000128F5D11EE000BFFFF704FF45
:1012D000811B414511D82068C0F381000228F5D157
:1012E00012E02068FFF7F8FE801B4045F9D904E0C2
:1012F000FFF7F2FE811B414502D90320BDE8F087CC
:10130000206810F00C0FF3D1DAF80010504601F00D
:101310000F01B94208D980F80090006800F00F0072
:10132000B84201D00120E9E72878400705D52068B8
:10133000E96820F4E050084320602878000706D5CB
:101340002068296920F4604040EAC1002060032041
:10135000FFF7EAFE0020D1E7003C024008380240D7
:1013600010B500F043F808490968F02292FAA2F299
:1013700001F0F001B2FA82F2D140044A515CC84057
:101380000349086010BD0000083802404C320008D4
:101390001C00002010B5FFF7E3FF074909684FF470
:1013A000E05292FAA2F201F4E051B2FA82F2D14094
:1013B000024A515CC84010BD083802404C32000857
:1013C00010B5FFF7CDFF074909684FF4604292FA64
:1013D000A2F201F46041B2FA82F2D140024A515CB9
:1013E000C84010BD083802404C320008154810B5FE
:1013F000006810F00C01144823D0042921D00829DA
:101400001FD11049091F0A6802F03F030A68B0FBA8
:10141000F3F00B6847F6C072134092FAA2F2B2FAE8
:1014200082F2D340096858434FF4403292FAA2F254
:1014300001F44031B2FA82F2D140491C4900B0FBBC
:10144000F1F010BD083802400024F4002DE9F84FF7
:101450000446DFF8CC820078A8F1040BC007ABF19A
:10146000040537D0D8F800104046C1F381010129A6
:1014700008D00068C0F3810002280AD1DBF8000020
:10148000400206D52868800324D56068002878D0FB
:1014900020E0A3492079891F0870606868B1FFF7D0
:1014A0001BFE064605E000BFFFF716FE801B642802
:1014B00068D828688003F7D50CE0FFF70DFE0646D4
:1014C00005E000BFFFF708FE801B6428F0D82868FD
:1014D0008003F7D42078934E80074FF0010A4FF035
:1014E000000742D5D8F80010404611F00C0F08D084
:1014F0000068C0F3810002280AD1DBF80000400236
:1015000006D42868800714D5E068012839D110E096
:10151000E068D8B1C6F800A0FFF7DEFD814605E01F
:10152000FFF7DAFDA0EB09000228C1D82868800780
:10153000F6D52868F82292FAA2F22169B2FA82F26C
:1015400020F0F8009140084328600EE03760FFF774
:10155000C3FD814606E000BFFFF7BEFDA0EB09001A
:1015600002280FD828688007F6D42078000728D5ED
:101570006D486169A1B1C0F800A0FFF7ADFD8146DB
:1015800008E0CAE079E000BFFFF7A6FDA0EB090084
:10159000022872D862486C3000688007F4D510E0E9
:1015A0000760FFF799FD814606E000BFFFF794FD55
:1015B000A0EB0900022860D859486C300068800709
:1015C000F4D42078400749D555483830016841F0B7
:1015D00080510160006800F080500090534801681D
:1015E00041F480710160FFF777FD814606E000BF9E
:1015F000FFF772FDA0EB090002283ED84B480068B7
:10160000C005F5D5DFF81891207A09F1680989F845
:101610000000A06888B1FFF75FFD009008E000BF00
:10162000FFF75AFD0099411A41F2883081426CD887
:10163000D9F800008007F3D510E0FFF74DFD0090CA
:1016400008E000BFFFF748FD0099411A41F28830D9
:1016500081425AD8D9F800008007F3D4A069E0B3DA
:10166000D8F80010C1F38101022956D0022837664C
:1016700004D0FFF731FD04464AE046E0FFF72CFDB9
:10168000074604E0FFF728FDC01B02283DD8286864
:101690008001F7D4D4E90701084347F6C07292FAF3
:1016A000A2F2616AB2FA82F29140A26A4FF0FF336D
:1016B00003EB52024FF4403393FAA3F3B3FA83F3EC
:1016C0009A40114308434FF0706292FAA2F2E16A25
:1016D000B2FA82F29140084300E01CE0CBF800002F
:1016E000C6F860A0FFF7F8FC044604E0FFF7F4FC3E
:1016F000001B022809D828688001F7D50BE000BF3D
:10170000FFF7EAFC001B022802D90320BDE8F88F8E
:1017100028688001F4D40020F8E70120F6E70000F3
:101720000838024000004742800E474200700040E7
:101730004FF0E0210428086903D020F0040008617C
:10174000704740F00400FAE7704710B5401EB0F152
:10175000807F01D3012010BD4FF0E02460610F2194
:10176000601700F0E3FB0020A0610720206100204B
:1017700010BD10B5FFF7E8FF10BD7047704730B5DA
:1017800090F83820012A20D0012280F83820022346
:1017900080F8393003685C6824F070045C6003688A
:1017A0005C680D682C435C6003689C6824F08004CE
:1017B0009C6003689C6849680C439C6080F83920F1
:1017C000002180F83810084630BD022030BD10B529
:1017D000040003D094F8390010B107E0012010BDD7
:1017E000002084F83800204600F00CF8022084F82D
:1017F0003900211D206800F05FFC012084F83900C9
:10180000002010BD08B500680B49884212D10B4872
:10181000016841F0010101600068002200F0010050
:10182000009002211920FFF7C9FCBDE808401920EB
:10183000FFF7B8BC08BD000000000140443802407A
:101840000168CA6842F00102CA600068016841F09C
:1018500001010160002070470168CA6822F001029E
:10186000CA600068016A41F21112114207D1016A8F
:101870009210114203D1016821F0010101600020A2
:10188000704770B5044690F83800012817D001253C
:1018900084F83850022084F839002068826822F0E9
:1018A000770222F47F4282600868502837D00DDC2E
:1018B000202859D005DC88B3102841D151E00220FE
:1018C00070BD302853D040283AD13FE060282ED058
:1018D00070280BD0B0F5805F03D0B0F5005F2FD13A
:1018E00010E02068816821F0070115E0CB68D1E99C
:1018F0000121206800F036FC2168886840F07700FC
:1019000088601DE0CB68D1E90121206800F02AFC45
:101910002068816841F48041816011E01EE0CA685E
:101920004968206800F030FC5021206806E0CA6851
:101930004968206800F039FC6021206800F01CFC38
:1019400084F83950002084F8380070BDCA684968AE
:10195000206800F019FC40212068EFE70021206892
:10196000ECE710212068E9E720212068E6E7302134
:101970002068E3E7704770B50446006801694FF0DE
:101980000005C943890715D4C168C943890711D423
:10199000E91E0161012020762068806980072046C9
:1019A00002D0FFF7E7FF04E000F098F8204600F0CF
:1019B00096F8257620680169C943490717D4C1689C
:1019C000C943490713D46FF0040101610220207656
:1019D0002068806910F4407F204602D0FFF7CAFFDC
:1019E00004E000F07BF8204600F079F825762068C6
:1019F0000169C943090716D4C168C943090712D44C
:101A00006FF008010161042020762068C06980071A
:101A1000204602D0FFF7AEFF04E000F05FF820465A
:101A200000F05DF8257620680169C943C90617D41E
:101A3000C168C943C90613D46FF0100101610820C1
:101A400020762068C06910F4407F204602D0FFF75E
:101A500091FF04E000F042F8204600F040F82576BF
:101A600020680169C943C90708D1C168C943C907CA
:101A700004D1891E0161204600F032F82068016916
:101A8000C943090609D4C168C943090605D46FF0E2
:101A9000800101612046FFF770FE20680169C9439B
:101AA000490609D4C168C943490605D46FF040010D
:101AB0000161204600F050F820680169C943890699
:101AC0000BD4C168C943890607D46FF020010161B6
:101AD0002046BDE87040FFF751BE70BD70477047AB
:101AE000154910B5884225D114480188154C144A6F
:101AF000238822F813104188134A238822F81310F0
:101B000080881249228821F812002088411C2180F7
:101B1000B1F580610ED10848FFF79EFE00202080BD
:101B20000B49012008700246BDE810400821094811
:101B3000FFF7CCBA10BD0000240000200C000020EC
:101B400004010020120000200409002004110020DC
:101B500006000020000402407047704770B5040082
:101B600004D094F83900002510B106E0012070BDC2
:101B700084F83850204600F023F8242084F83900F7
:101B80002068C16821F40051C160204600F04AFB82
:101B90002068016921F4904101612068416921F0C8
:101BA0002A0141612068C16841F40051C160E563C8
:101BB000202084F8390084F83A00002070BD00002D
:101BC00070B5064600681A4986B088422DD119487A
:101BD0000025016841F0100101600068694600F0CD
:101BE000100005904FF4C060009002200190012089
:101BF000029003200390072004900F48FFF7A2F9FA
:101C00000F4C0E4820604FF00060C4E901054014FD
:101C1000C4E9035080106561C4E90650256220467E
:101C20006562FFF717F97463A66306B070BD000024
:101C3000001001404438024000000240406402406D
:101C4000AC00002070B5044690F83A0020282CD152
:101C500049B342B394F83800012826D0012084F813
:101C60003800A162A2850025E563222084F83A00AD
:101C7000636B0F48D863636B0E481864636B0E4840
:101C8000986408461346666B216802463046091D73
:101C9000FFF71CF92068416941F04001416184F877
:101CA0003850002070BD012070BD022070BD0000C2
:101CB000F121000819220008CF21000800684068BF
:101CC000094BC2B20748427001785A54491CC9B244
:101CD0000170202A05D100225A540270184601F0E2
:101CE00071B97047000000206000002070472DE9A6
:101CF000F041044690F8390098460D46202849D115
:101D000005B3FAB194F83800012843D0012084F8D3
:101D100038000026E663212084F83900A284E2849A
:101D20004FF48057E08C4346401EE084A0684FF09B
:101D30000002B8424FF08001204611D100F0C8FBEC
:101D4000F8B902E00120BDE8F08128882168C0F3DD
:101D500008004860206908B16D1C08E0AD1C06E071
:101D600000F0B6FB68B9216815F8010B4860E08CFB
:101D70000028D7D1434600224021204600F0A8FB8E
:101D800008B10320DFE7202084F8390084F83860A8
:101D90000020D8E70220D6E7FEE700007FB5144810
:101DA00012490024C0E90014846004620125C46261
:101DB0000326C0E90345C0E9065605634561FEF701
:101DC00094FECDE90045694609480294FEF7E2FD1C
:101DD0000224CDE9005469460548FEF7DBFDCDE954
:101DE000004669460248FEF7D5FD7FBD0020014050
:101DF000041900200D4808B5016841F48001016014
:101E00000068002200F4800000900F213820FFF7C6
:101E1000D5F93820FFF7C6F9002211463A20FFF71E
:101E2000CDF9BDE808403A20FFF7BCB93038024090
:101E300030B51F4887B00024016841F0800101607F
:101E4000016801F080010591016841F00101016024
:101E5000016801F001010591016841F00201016092
:101E60000068154D00F00200059002200090114816
:101E7000CDE9010469462846FFF764F80820009080
:101E80000120CDE90104694628460394FFF75AF87A
:101E9000002208212846FFF719F900220121072016
:101EA000FFF78CF90720FFF77DF907B030BD000080
:101EB00030380240000011100004024010B50F48F5
:101EC00086B00D49016053210024C0E90114C460AB
:101ED00004614461FFF77BFC4FF480500090694639
:101EE0000648FFF7CEFC049404A904480594FFF7C4
:101EF00046FC06B010BD0000000001402400002098
:101F00000848074901604FF4E121416000218160E8
:101F10000C22C160C0E904128161C161FFF71EBEDD
:101F2000001001406C000020FEE770470907090E11
:101F3000002806DA00F00F0000F1E02080F8141D00
:101F4000704700F1E02080F80014704710B5FFF7EB
:101F5000C9F8BDE81040FFF70CBC000030B52248BE
:101F600093B00025016841F080510160006800F0E5
:101F7000805011901D48016821F4404141F4004116
:101F800001600068022400F440401190012000909C
:101F900001908005CDE9064010200890A820CDE9E9
:101FA000090404200B906846FFF750FA0CA90F2093
:101FB00081E83100E002CDE90F0502210CA8FFF70E
:101FC0002FF9FFF7CDF94FF47A71B0FBF1F0FFF77D
:101FD000BCFB0420FFF7ACFB03210022081FFFF726
:101FE000EDF813B030BD00004038024000700040F2
:101FF00030B5154C2068154A10F00C01144803D078
:10200000042901D0082901D0026013E00E49091FFC
:102010000B680B6803F03F03B2FBF3F20B6809682F
:10202000C3F388135A43C1F30141491C4900B2FB71
:10203000F1F101602168074AC1F30311515C0268A4
:10204000CA40026030BD0000083802400024F4009D
:102050001C0000205C3200081048016841F4700147
:1020600001600F48016841F0010101600C4A002144
:102070000832116002680B4B1A400260031D0A4AC5
:102080001A60026822F48022026005480C30016068
:1020900002495806803908607047000088ED00E06A
:1020A00000380240FFFFF6FE103000240148FFF721
:1020B00062BC000024000020F0B502681B4B1C4CE1
:1020C0009F031C4D1C4E984207D0B84205D0A04239
:1020D00003D0A84201D0B04204D122F0700C4A686B
:1020E00042EA0C02984210D0B8420ED0A0420CD066
:1020F000A8420AD0B04208D0104CA04205D0104CE3
:10210000A04202D00F4CA04203D122F44074CA680E
:10211000224302608A68C2620A688262984201D1E0
:102120000969016301214161F0BD00000000014027
:102130000004004000080040000C00400040014046
:1021400000440140004801400449B1FBF0F004495B
:10215000401E80B2C8600846FFF739BB40420F00FE
:102160002400002010B5846842EA032224F47F444E
:102170000A432243826010BD826822F070020A4343
:1021800042F007018160704710B5036A046A24F0C9
:1021900001040462846924F0F00444EA021423F088
:1021A0000A020A438461026210BD10B5036A23F07B
:1021B000100303628369046A23F4704343EA023222
:1021C00024F0A00343EA01118261016210BD10B541
:1021D000806B0021C185C184202180F8391080F8EE
:1021E0003A10C16B41F01001C163FFF7B6FC10BD9E
:1021F00010B50146806B09680968C90509D400213A
:10220000C18501684A6922F040024A61202180F8B4
:102210003A10FFF753FD10BD10B5806BFFF766FD58
:1022200010BD00002DE9F04104460068016921F469
:102230004052E168114301612168C86849F20C62AB
:1022400090432369A268E5691A4363692B431A43E3
:102250000243CA602168486920F44072A0691043B3
:102260004861E1696425B1F5004F9748974A2168B4
:102270004FF032083FD0914201D081427CD1FFF72C
:102280009FF800EBC00101EB001061688900B0FB12
:10229000F1F6FFF795F800EBC00101EB0010616863
:1022A0008900B0FBF1F0B0FBF5F06FF01801484386
:1022B00006EB800108EB0110B0FBF5F000F0F00632
:1022C000FFF77EF800EBC00101EB001061688900A8
:1022D000B0FBF1F0B0FBF5F006EB0016FFF770F87D
:1022E00000EBC00101EB001061688900B0FBF1F761
:1022F000FFF766F8D2E0914201D081423DD1FFF76D
:102300005FF800EBC00101EB001061684900B0FB11
:10231000F1F0B0FBF5F00601FFF752F800EBC00159
:1023200001EB001061684900B0FBF1F7FFF748F8D6
:1023300000EBC00101EB001061684900B0FBF1F057
:10234000B0FBF5F06FF01801484307EB800108EB94
:10235000C100B0FBF5F000F0F80006EB4006FFF717
:102360002FF800EBC00101EB001061684900B0FBE1
:10237000F1F7FFF725F83CE055E0FFF70BF800EB2D
:10238000C00101EB001061684900B0FBF1F0B0FB47
:10239000F5F00601FEF7FEFF00EBC00101EB0010B7
:1023A00061684900B0FBF1F7FEF7F4FF00EBC001F4
:1023B00001EB001061684900B0FBF1F0B0FBF5F0F3
:1023C0006FF01801484307EB800108EBC100B0FB38
:1023D000F5F000F0F80006EB4006FEF7DBFF00EB3F
:1023E000C00101EB001061684900B0FBF1F7FEF796
:1023F000D1FF00EBC00101EB001061684900B0FBA8
:10240000F1F0B0FBF5F06FF01801484307EB8001E5
:1024100008EBC100B0FBF5F000F007002168304484
:102420008860BDE8F081FEF7B5FF00EBC00101EB6D
:10243000001061688900B0FBF1F6FEF7ABFF00EB1E
:10244000C00101EB001061688900B0FBF1F0B0FB46
:10245000F5F06FF01801484306EB800108EB01101E
:10246000B0FBF5F000F0F006FEF794FF00EBC001C2
:1024700001EB001061688900B0FBF1F0B0FBF5F0F2
:1024800006EB0016FEF786FF00EBC00101EB001023
:1024900061688900B0FBF1F7FEF77CFF00EBC0013B
:1024A00001EB001061688900B0FBF1F0B0FBF5F0C2
:1024B0006FF01801484307EB800108EB0110B0FBF7
:1024C000F5F000F00F00A9E70014014000100140F2
:1024D0002DE9F0471D4690460E460446FEF7FCFDEA
:1024E00007465FEA08004FF000094FF0200808D0C7
:1024F00032E0681C05D095B1FEF7EEFDC01BA84286
:102500000DD82068006836EA0000F2D129E0681C86
:1025100022D025B1FEF7E0FDC01BA8421CD92068DF
:10252000C16821F08001C1602068C16821F02001EC
:10253000C1602068C16821F48071C1602068416970
:1025400021F00101416184F8398084F83A8084F8EF
:1025500038900320BDE8F0872068006836EA000064
:10256000D5D00020F6E7FEE70FB4054B10B503A960
:10257000044A029800F0CAF810BC5DF814FB000091
:102580003D2E00082000002002E008C8121F08C1EC
:10259000002AFAD170477047002001E001C1121FE4
:1025A000002AFBD1704700002DE9FF5FDDE9022022
:1025B000010DDDF838B0024318D044F61050A1F2F6
:1025C000FF3141430D140F98012820D0A5EB0B00DB
:1025D000401C5FEA000A4FF00004474EDFF81C91F0
:1025E000A046504616D5CAF1000728E00F980124EE
:1025F00043A2012808D0002100980F9BC0E90021C8
:10260000C0E90243BDE8FF9F6FEA0B01F4E7CBF19D
:102610000000DEE7074612E0F80707D022463346FF
:1026200040464946FDF7CEFE80468946224633465F
:1026300010461946FDF7C6FE04460E467F10002FD1
:10264000EAD1DDE90201BAF1000F42464B4602DA57
:10265000FDF7B8FE01E0FDF727FF04460E46002215
:10266000284BFDF7A9FF03D84FF0FF30014607E0E4
:102670000022254B20463146FDF7FDFDFDF783FF87
:10268000102409E0002C0ADB0A220023FDF7C2FD1A
:10269000019B30321A55641E50EA0102F2D1641CCB
:1026A000019AC4F1110314440F9A012A03D00122A4
:1026B00008430DD10AE0084304D000204FF0110B6D
:1026C0000F9080E7A3EB0B056D1E0DE05B4504DD6D
:1026D0004FF0000205F1010504E003DA4FF00002BB
:1026E000A5F10105002AECD000980F99C0E902314C
:1026F000C0E9004586E70000000024400000F03FEC
:10270000300000000000F0430000E03F2DE9FF4FE3
:1027100095B09B468946064600250FE2252877D1CD
:1027200000242746F84A0121059400E0044316F8E6
:10273000013F203B01FA03F01042F7D130782A28FC
:1027400011D06FF02F033078A0F13002092A16D88B
:10275000059A44F0020402EB820203EB42021044A9
:10276000761C0590EFE759F8042B0592002A03DA4E
:10277000504244F40054059044F00204761C307832
:102780002E2816D116F8010F44F004042A280DD083
:102790006FF02F023078A0F13003092B09D807EB36
:1027A000870302EB4303C718761CF3E759F8047B51
:1027B000761C30786C280FD006DC4C2817D068289F
:1027C0000DD06A2814D104E0742810D07A280FD1D3
:1027D0000DE044F400140AE044F4801401E044F4F1
:1027E00040147278824202D104F58014761C761C63
:1027F000307866280BD013DC582877D009DC002805
:1028000075D04528F6D04628F4D047281AD19DE146
:1028100018E0632835D0642879D0652812D195E175
:10282000702873D008DC6728F1D069286FD06E2833
:102830000DD06F2806D1B5E073282CD0752875D03F
:10284000782874D05A46179990476D1C75E1C4F3E7
:102850000250022809D003280DD0D9F8001004280E
:102860000DD00D6009F1040967E1D9F80010EA17ED
:10287000C1E90052F6E7D9F800100D80F2E70D70BB
:10288000F0E719F8041B8DF8001000208DF8010006
:10289000EA46012003E059F804AB4FF0FF3061072E
:1028A0004FF0000102D40DE008F101018846B94261
:1028B0000FDA8045F8DB1AF808100029F4D108E097
:1028C00008F1010188468142FADB1AF80810002954
:1028D000F6D105985B46A0EB080721463846179AC3
:1028E00000F094FA284400EB080507E04DE029E1E8
:1028F0000DE01AF8010B5A4617999047B8F10108F4
:10290000F7D25B4621463846179A13E142E00A2285
:102910000092C4F302524FF0000A022A08D059F87C
:1029200004CB032A4FEAEC710AD00DE029E02AE03B
:1029300009F1070121F00702F2E802C1914609E01E
:102940000FFA8CFC4FEAEC71042A03D14FFA8CFC8D
:102950004FEAEC71002907DA0A460021DCF1000C8D
:1029600061EB02012D2202E0220504D52B228DF815
:102970000420012203E0E20701D02022F7E790467D
:1029800059E00A2102E010220DE010214FF0000A68
:1029900000910BE010224FF0000A44F004040827D5
:1029A000009203E008224FF0000A0092C4F30252A2
:1029B000022A05D059F804CB0021032A08D009E0E7
:1029C00009F1070121F00702F2E802C1914605E092
:1029D0001FFA8CFC042A01D10CF0FF0C4FF0000808
:1029E000220728D5702806D0009B83F0100353EAF5
:1029F0000A0305D00EE040228DF80420012208E0F1
:102A00005CEA010206D030228DF804208DF8050022
:102A100002229046009B83F0080353EA0A030AD17E
:102A20005CEA010201D1620705D530228DF804204D
:102A30004FF001087F1E582804D034A003900EA840
:102A400002900DE036A0F9E753466046009AFDF784
:102A5000E1FB84460398825C0298401E029002705B
:102A60005CEA0100F0D1029806A9081A00F1200AD8
:102A7000600702D524F4803400E00127574502DDC9
:102A8000A7EB0A0000E0002000EB0A010090059887
:102A90004144401A0590E00306D45B462146179A4C
:102AA000059800F0B3F90544002706E001A85A464E
:102AB000C05D179990476D1C7F1C4745F6DBE0030E
:102AC0000CD55B462146179A059800F09FF90544FE
:102AD00004E030205A46179990476D1C0099481E13
:102AE00000900029F5DC08E0029802995A46007827
:102AF000491C0291179990476D1CBAF10001AAF187
:102B0000010AF1DC65E100000928010030313233AF
:102B10003435363738396162636465660000000019
:102B20003031323334353637383941424344454603
:102B30000000000000F058F90544761C30780028A9
:102B40007FF4ECAD19B02846BDE8F08F620700D4E1
:102B5000062709F1070222F0070CFCE80223E146F0
:102B600003F000485FEA080C02D00FF2702C0DE071
:102B70005FEA045C02D50FF2682C07E05FEAC47CD0
:102B800002D00FF2602C01E0AFF2700C4FF0FF3872
:102B900023F00043CDF850C065280CD006DC452852
:102BA00009D046281DD047283DD13DE0662818D0E1
:102BB00067287ED138E00021112F01DB112000E0D1
:102BC000781CCDE9000106A90EA8FFF7EDFCDDE9B0
:102BD0000F010E9A03910021009207F1010A04915E
:102BE0004DE04FF000400097CDE9011006A90EA876
:102BF000FFF7DAFCDDE90F0203920E9B1199002228
:102C0000DDF80CA00093049211B9791C00EB010AC5
:102C1000B7EB0A0004D4C0F1FF3007F1010A0490B9
:102C2000AAEB0700019044E0012F00DA0127002100
:102C3000112F01DD112000E03846CDE9000106A981
:102C40000EA8FFF7B1FCDDE90F010E9A03910021F8
:102C500004910092BA4621070CD40399514500DA39
:102C60008A46BAF1010F05DD009AAAF10101515C13
:102C7000302908D0B84202DA10F1040F06DA012137
:102C8000CDE9011015E0AAF10101E9E7002805DC12
:102C9000049901440491AAEB000102E0411C514552
:102CA00000DD8A460499401A401C01904FF0004014
:102CB0000290200704D40198504501DBCDF8048030
:102CC00000208DF84F0002980DF14F07B0F1004F32
:102CD00025D02B200E9002984FF0020800280CDA25
:102CE000404202902D200E9007E00A210298FDF745
:102CF0007BFA3031029007F8011DB8F10001A8F10C
:102D00000108F2DC02980028EFD1791E0E980870B5
:102D1000307800F0200040F0450007F8020D12A8BE
:102D2000C01B00F107081498007800B1012000EBE7
:102D30000A01019801EBE07105984144401A401ED8
:102D40000590E00306D45B462146179A059800F0EB
:102D50005DF805441498007818B15A4617999047C1
:102D60006D1CE00324D55B462146179A059800F0B8
:102D70004DF805441CE00498002807DBDDE9030159
:102D8000884203DD0098405C179901E017993020D4
:102D90005A469047049805F10105401C049001989B
:102DA000401E019004D12E205A46179990476D1C61
:102DB000BAF10001AAF1010ADDDC05E017F8010B08
:102DC0005A46179990476D1CB8F10001A8F1010807
:102DD000F4DC5B462146179A0598ABE62D0000000F
:102DE0002B000000200000002DE9F04104460025E2
:102DF0001E461746880404D405E039462020B04713
:102E00006D1C641EF9D52846BDE8F0812DE9F0411E
:102E1000044600251E469046C80301D5302700E031
:102E20002027880404D505E041463846B0476D1C8C
:102E3000641EF9D52846BDE8F081000013B54FF6B1
:102E4000FF73012269460248FEF751FF00981CBD3E
:102E50006C00002008B5FEF74DF9FFF77FF8FEF78C
:102E6000E7FFFEF7C7FFFEF799FFFFF727F8FFF729
:102E700047F8FFF7BDF82048016820A0FFF774FB72
:102E80003820FEF784F9032222492348FDF794FEF7
:102E9000012269462148FEF7D5FE0022082120487C
:102EA000FEF714F91B4C083C6068FFF74DF9002051
:102EB000FDF768FD1BA0FFF757FB9FED260B27A032
:102EC00053EC102BFFF750FB0C2126A0FFF74CFB17
:102ED00000F08AF90F4D00266078012805D1AB88F3
:102EE0006A88298821A0FFF73FFBA0780128F3D149
:102EF000A67000F00FF9EFE71C00002053797374FF
:102F0000656D436F7265436C6F636B203D20256474
:102F10000D0A00000C000020041900206C000020A5
:102F2000000402400D0A2D2D2D2D2D2D2053696DED
:102F3000706C654F7363696C6C6F67726170682049
:102F4000466F722053544D3332202D2D2D2D2D2DB3
:102F50000D0A00006666666666660A4056433A25B4
:102F6000660D0A0041443A25640D0A0043313A25B2
:102F7000640D0A43323A25640D0A43333A25640D41
:102F80000A00000010B5012208210C48FEF79EF847
:102F90000B48417800290FD1C17839B1C078042895
:102FA00008D00120BDE81040FDF7ECBCBDE81040A2
:102FB00000F01AB90020F5E710BD0000000402403F
:102FC000040000202DE9F84301788DF800104178C5
:102FD0008DF8011000258DF80250C0783AA13038E4
:102FE000C4B26846FDF7F2F8D8B138A16846FDF7DB
:102FF000EDF8374F012670B336A16846FDF7E6F8C5
:10300000DFF8D480DFF8D490B0B335A16846FDF77F
:10301000DDF890B333A16846FDF7D8F8F0B1BDE80C
:10302000F8833148FEF718FC30493148072C15D297
:10303000DFE804F004060C0F12080800642001E029
:103040004FF47A700860FFF77FF807E042F21070E3
:10305000F8E72848F6E704E02748F3E700F0C4F86B
:10306000DDE7264804703E70052CD8D2DFE804F076
:103070000306080D0F00F1E70DE01AE0204800E01C
:103080002048FDF767FC012002E01F48F9E7002017
:10309000FDF778FCC3E788F80040012CDED1002062
:1030A000FDF770FC3E70A9F8005018A0FFF75CFA1D
:1030B000B5E798F800000028B1D10B48FEF7CCFB2B
:1030C0003E70A9F80050AAE746530000544D000096
:1030D00004000020534D00000500002012000020D5
:1030E0004142000054470000240000200800002056
:1030F00020A10700A086010090D003000700002057
:1031000000001110000021100000311046533A3029
:103110000D0A00002DE9F0479FED1F0B002453EC32
:10312000102B1FA0FFF720FA0C211FA0FFF71CFA9D
:103130001F4D69681FA0FFF717FA4FF480663146EC
:103140001EA0FFF711FA00202870B1461D4E06F5AB
:10315000006706F5805800BF36F814101AA0FFF774
:1031600003FA37F814101AA0FFF7FEF938F8141014
:1031700019A0FFF7F9F9641CA4B24C4504D22878D1
:1031800010B968780028E7D015A0FFF7EDF9BDE881
:10319000F047FFF7F7BE00006666666666660A409F
:1031A00056433A25660D0A0041443A25640D0A004B
:1031B0000400002046533A25640D0A004E4D3A257E
:1031C000640D0A000401002043313A25640D0A0011
:1031D00043323A25640D0A0043333A25640D0A0050
:1031E000464E3A4F4B0D0A000E4910B501200870AB
:1031F0000D48002101800D490A880D4B1A804A882C
:103200000C4B1A8089880C4A11800188491C018066
:103210000A48FEF715FB0022BDE8104008210848C7
:10322000FDF754BF04000020120000200C00002015
:1032300004010020040900200411002024000020C3
:1032400000040240000610160006101600000000E0
:10325000010203040102030406070809000000003C
:103260000000000001020304060708098C32000870
:10327000000000202400000088250008B03200086B
:1032800024000020841D0000982500080000000094
:1032900000000000A0860100000000000000000007
:1032A00000000000000000000024F4000000000006
:040000050800019559
:00000001FF
