:020000040800F2
:10000000980D0020C5000008E91D00086F1C0008BD
:1000100000000000000000000000000000000000E0
:10002000000000000000000000000000D1000008F7
:100030000000000000000000D3000008311E00088E
:10004000D700000800000000D7000008D700000813
:10005000D7000008B3070008D7000008D700000841
:10006000000000007507000885070008D700000899
:10007000D7000008D7000008D700000800000000E3
:10008000D70000080000000000000000D7000008B2
:1000900000000000651F0008D7000008D700000816
:1000A00000000000D7000008000000003524000810
:1000B0000348854600F040FA00480047792D0008C3
:1000C000980D00200448804704480047FEE7FEE7FB
:1000D000FEE7FEE7FEE7FEE7091F0008B1000008A3
:1000E00030B50B46014600202022012409E00D46D0
:1000F000D5409D4205D31D469540491B2546954058
:1001000040191546521E002DF1DC30BD10B5202AD5
:1001100004DB0846203AD040002110BD0B46D340F6
:10012000D0402024A21A91400843194610BD10B5B2
:10013000002200E0521C835C8C5CA34201D1002BA6
:10014000F8D1D8B2E1B2401A10BDF0B51FB40646DE
:10015000002082B005464024019100901BE00199E7
:1001600022460F463046FFF7D1FF049A059B801ABE
:10017000994110D310461946224600F0EFF9361A7D
:100180008F410197224601200021009F00F0E6F9EF
:1001900038184D4100902046641E0028DFDC019B8A
:1001A00000982946324607B0F0BD0000F0B507467A
:1001B0000846584087B0C00F049048000E465900CA
:1001C00040084908BC1A884105D2384631461E46C7
:1001D00017460B4602465800400810434CD0300DDD
:1001E000039040055900400D490D0590401A0290BA
:1001F000402872DA18030121000B09050843019019
:1002000004980092002805D00199524200208841AC
:1002100000920190029840210A1A0199009800F07A
:100220009DF905460C466B4607CB00F0A7F9C019AF
:100230007141039A0E0D0023D71756401A467A4093
:10024000164344D0049A002A2DD0029A012A039A18
:1002500015DC1205C01A914101263605001C7141BA
:10026000D20F059ED2070093019202962A4623469A
:1002700000F0A4F907B0F0BD38463146FAE716059C
:10028000224A0F46B218C01AB74101210905001CC5
:100290004F4100187F41114618187941E20F104371
:1002A0006D19644113E0E2076D0815436408C20745
:1002B0001443039A01261205C01A91413605001C09
:1002C0007141CE07400830434908C01851412A46C1
:1002D000234600F066F9CDE7FFE7049801224000CD
:1002E000C117121A00238B4104983146C417381ADB
:1002F000A141EEE730B40124E407634030BC55E788
:1003000030B40124E407614030BC4FE70000E0FF57
:10031000F0B51FB488B00B9909980024484009999A
:10032000C00F490049080991C0070B990090490086
:1003300049080B9109990898A64608431CD00B99C7
:100340000A98084318D0099801244000420D48003B
:10035000410D099824050003000B204309900B98D8
:100360000003000B20430B9050181C49401800223A
:1003700001901446104605E0002001460DB0F0BD86
:10038000032801DA034600E003239C46C11A0AAEA3
:100390000AE05F0008ADED5B4F00F75B7D4300278F
:1003A000AA187C41491C5B1E6145F2DD410004AB8B
:1003B0005A522104120C0A43240C401C0828DFDB8B
:1003C000019802900099704601910090059B049A53
:1003D0000799069800F0F2F8D0E700000DFCFFFF47
:1003E000F0B50C465C4085B0E40FE40703944C0084
:1003F00000266408590094464908024602962243A2
:1004000021D062460A431ED06200570D4A000E03F7
:100410002303550D012402462C492405781B1B0B90
:10042000360B401823432643614600901C46501A61
:10043000B44103D30098401C009002E09218009849
:100440005B41002803DA0020014605B0F0BD002022
:10045000012109050746864611E064461D46141B26
:10046000B54106D36546521BB341744607430C435E
:10047000A646CD0740084908284392185B41054627
:100480000D43EAD11046184313D060461946504038
:100490007140084306D06046101AB34106D20122CB
:1004A000002306E000220123DB0702E00122D24301
:1004B0005310009874460105381C6141029C039D4D
:1004C0000019694100F06DF8BFE70000FD0300006E
:1004D0004A0009030123090B1B0519430A4B10B5F8
:1004E000520D9A4202DA0020014610BD064B343309
:1004F0009A4203DC9A1AFFF709FE10BD034BD2188B
:1005000000F02CF810BD0000FF030000CDFBFFFF42
:1005100010B5002904DB0124E40740428C41214648
:10052000002B04DB1C460123DB075242A341994206
:1005300000D1904210BD0000064C0125064E05E09A
:10054000E36807CC2B430C3C98471034B442F7D3F4
:10055000FFF7B2FD1C3100083C31000810B5202A1D
:1005600004DB0146203A9140002010BD9140202339
:100570009C1A0346E3401943904010BD10B5202A51
:1005800006DBCB170846203A1041C1170B4306E0A3
:100590000B461341D0402024A21A9140084319462B
:1005A00010BD10B5002B08DA0024401C61419218E0
:1005B0005B411A4301D14008400010BDF0B51FB4A3
:1005C00082B005460C0003D0084601F04BFF02E064
:1005D00001F048FF20300246009021462846FFF7F0
:1005E000BDFF049B059A04460F4618431143084378
:1005F00014D0184610431BD0009840210A1A184600
:100600000599FFF783FD05460E46009A0599049863
:10061000FFF7A4FF084305D0012004E02046394637
:1006200007B0F0BD0020C11705430E432C433743EC
:1006300000990E986305401A7905E40A00220C43DC
:10064000FD0A0A3002D500200146E9E7010510192C
:1006500069410C9C0D9D00196941FFF7A2FFDFE77E
:1006600010B50146406A426C50231A420AD1416CCF
:1006700001225202114341640168CA681205920FB7
:1006800005D020E0C06B026B0846904710BD026A9F
:10069000002A18D10A68120715D58A685307012263
:1006A000002B09DB4B680C24A3434B60416C130205
:1006B00099431143416406E0416C2023194341648E
:1006C000816C1143816400F025F910BD10B5406ABA
:1006D000416C402211434164816C042211438164C6
:1006E00000F01AF910BD10B5406A00F014F910BD01
:1006F000F8B5044600200090206881688907890FBA
:10070000012905D10168C9072CD1C168090429D480
:100710008168154A102611400125002915D18168EC
:1007200029438160124811490068FFF7D9FC00E0B5
:10073000401E00900028FBD100F02EFC07460CE084
:1007400000F02AFCC01B022807D9606C30436064AB
:10075000A06C2843A0640120F8BD20680068C04355
:10076000C007EDD10020F8BD1700008040420F0007
:100770001C00002010B5024800F012FA10BD000065
:100780002409002010B5024800F00AFA10BD00004C
:10079000A008002010B5046863604368102B03684C
:1007A00003D099600068C26010BD9A600068C160A3
:1007B00010BD10B5022000F039FB10BD10B586B099
:1007C00004460220009000200290019469460548EA
:1007D00000F038FB052000F021FC0348046006B05F
:1007E00010BD0000000400481000002010B50128D2
:1007F00003D0052000F012FC10BD052000F018FC0D
:1008000010BD0000F8B5002504464034009522785C
:10081000012A39D00122227003689E68760767D4C6
:10082000384F4E68BE424DD09E6A0F78BA4016438C
:100830009E620123826B1B079A421FD0012A1DD0A2
:10084000022A1BD0032A19D0042A17D0052A15D052
:10085000062A13D0072A11D002688B6856697607DA
:10086000760FB3420AD05369DB08DB00536100689E
:1008700042690B7A5B075B0F1A4342610A68102AD0
:1008800004D0112A02D038E00220F8BD1E48836847
:10089000102A07D0012292051343836008681028AC
:1008A00003D02AE00122D205F6E71948174900686B
:1008B000FFF716FC0A21484300E0401E0090002884
:1008C000FBD11AE0986A0E78B240904398620968AA
:1008D000102901D0112910D10B488268102904D0A9
:1008E000012189058A43826007E00121C905F9E7F2
:1008F000416C2022114341640125002020702846CC
:10090000F8BD0000011000000027014040420F0028
:100910001C0000207047704770470000F8B50025A4
:100920000446002803D0606C002802D008E00120B3
:10093000F8BD0020A06440210855204600F0A8F82A
:10094000606C1022104270D12068816849076CD415
:10095000616C13019943022319436164816889071B
:10096000890F012905D10168C9070FD1C1680904A0
:100970000CD4C1681826B143A6683143C160206811
:100980000169666889008908314301612068C1688E
:100990003D4E3140C160A069E1698003C90308434D
:1009A000216A4E033043666B012E02D001263603C6
:1009B00000E000263043E66830432669022E08D066
:1009C00000263043266B76003043666A012E02D043
:1009D0000BE00426F5E7002928D0616C202631437E
:1009E0006164A16C01263143A164A16A0E46FF3EF9
:1009F000C23E02D0E66A314308432168CE6806430E
:100A0000CE600126A16B3607B14213D0012911D067
:100A100002290FD003290DD004290BD0052909D0B4
:100A2000062907D0072905D010E028E00121090494
:100A30000843DAE721684E69F608F6004E6121683E
:100A40004E69278F7F077F0F3E434E612168C9683B
:100A50000E4E3140814207D10020A064606C8008B6
:100A60008000401C606408E0606C98431043606440
:100A7000A06C01210843A06401252846F8BD606CE4
:100A800010436064F8E700001902FEFFE7FF3F83B0
:100A900070B505460068164986B0884225D11548CC
:100AA000826941150A4382618069002608400590E9
:100AB0000720009003200190092069460296C00695
:100AC00000F0C0F90C480D4C41C4802026606060E5
:100AD0004000A0608000E06020206661206107483F
:100AE000083C00F04BF9EC63656206B070BD000095
:100AF00000240140001002400800024024090020A8
:100B0000F7B5044600680025806840073DD42646B6
:100B10004036307801280AD001273770E069012873
:100B200007D02046FFF7E4FD050002D02EE00220AA
:100B3000FEBD606C16490840FF2101310843606426
:100B40000020A0643070E16B12488862E16B1248AB
:100B5000C862E16B1148086321681C2008602068A6
:100B600041681022114341602068C1683943C16067
:100B70002168E06B4031029B019A00F029F920685E
:100B8000816804221143816000E002252846FEBDF1
:100B9000FEF1FFFF61060008E7060008CD06000829
:100BA000F8B5044674480168734A734E724F0832B0
:100BB0002068D3141C363037904201D1082210E04F
:100BC000B04201D180220CE0B84201D11A4608E0BF
:100BD000694A4432904202D10122D20301E001224B
:100BE000D20425461140203500292ED00168C94382
:100BF00009072AD401680822914301605E492068F0
:100C00000831884201D1082010E0B04201D1802093
:100C10000CE0B84201D1184608E0574944318842F7
:100C200002D10120C00301E00120C0045249486004
:100C3000606B012108436063042068700020287005
:100C4000216B002901D0204688474B4802684A4959
:100C5000206808310B15884201D1042110E0B04210
:100C600001D140210CE0B84201D1194608E04249C7
:100C70004431884202D10121890301E00121890424
:100C80000A422BD00168C943490727D40168890665
:100C900003D4026804218A4302603749206808317E
:100CA000884201D1042010E0B04201D140200CE084
:100CB000B84201D1184608E02F494431884202D198
:100CC0000120800301E0012080042B4948601120AD
:100CD0006870E16A002901D02046884726480268EA
:100CE000254920680831884201D1022311E0B04231
:100CF00001D120230DE0B84202D101235B0208E0BC
:100D00001D4B4433984202D101235B0301E00123D0
:100D10005B041A422ED00268D24392072AD402689A
:100D2000920603D4026802239A4302602068884234
:100D300001D1022011E0B04201D120200DE0B842E3
:100D400002D10120400208E00B494431884202D11F
:100D50000120400301E00120400407494860606B26
:100D600060630120687000202870A16A002901D00A
:100D700020468847F8BD000000000240F0B500287A
:100D800006D0014620314A780024002A02D002E031
:100D90000120F0BD0C7002224A7005682B680B4AD6
:100DA00086681340426807693243C6683E4332434F
:100DB0004669324386693243C66932431A432A6020
:100DC0004463012048700020F0BD00000FC0FFFF09
:100DD000F8B5044620300578012D1ED00125057098
:100DE0000226467020680768AF4307602046FFF779
:100DF000D1FC206801683143016020680168042249
:100E000011430160206801680822114301602068D5
:100E10000168294301600020F8BD0220F8BD10B52B
:100E20000020FFF7E3FC02F047F910BD10B50449BC
:100E30004A69024202D04861FFF7F1FF10BD00008D
:100E400000040140F8B500238DE001249C40A44635
:100E500022407DD04C68022C01D0122C0CD1DC0831
:100E6000A40027183C6A5D07ED0E0F26AE40B44380
:100E70000E69AE4026433E6205685E000324B4401E
:100E80000F79A543BF07BF0FB7402F4307604D68D9
:100E9000012D05D0022D03D0112D01D0122D0ED120
:100EA0008568CF68A543B7402F438760476865468C
:100EB000AF430D79ED06ED0F9D403D434560C5689C
:100EC000A5438C68B4402C43C4604C68E40049D509
:100ED000284CA56901263543A561A4699D083440C5
:100EE0000094254CAD002F19BC689D072E0F0F25CF
:100EF000B540AC430925ED06A84201D100250FE01D
:100F00001E4DA84201D101250AE01D4DA84201D184
:100F1000022505E01B4DA84201D1032500E005256F
:100F2000B5402543BD60184C25684E689543F603CF
:100F300000D51543256065684E689543B60300D516
:100F400015436560A5684E689543F60202D500E03A
:100F500008E01543A560E5684E689543B60200D5E4
:100F60001543E5605B1C0A681446DC4000D06CE762
:100F7000F8BD0000001002400000014000040048DD
:100F800000080048000C004800040140002A01D07D
:100F900081617047816270470148006870470000B6
:100FA0001800002002480168491C016070470000D9
:100FB0001800002010B50648016810221143016096
:100FC000032000F007F800F017F8002010BD000023
:100FD0000020024010B5044600F022F97D21C9002E
:100FE000FFF77EF800F04EFB00222146501E00F075
:100FF00029F8002010BD000008B5074881690122CA
:101000001143816180690321104000900022081F74
:1010100000F018F808BD000000100240C106C90E1B
:1010200001208840014908607047000080E100E02D
:10103000C106C90E012088400149086070470000C0
:1010400000E100E010B500F0D1FE10BDF8B5054696
:1010500000682C4CC00340D5E16920040143E161E4
:10106000E169294E014000913068A11508433060C4
:10107000FFF792FF074604E0FFF78EFFC01B6428CE
:1010800021D83068C005F7D5206A03263602696882
:1010900030403140884220D0206A226AB04301218A
:1010A00009040A432262226A8A432262206280077C
:1010B0000ED5FFF771FF074607E0FFF76DFFC11B75
:1010C0001248814201D90320F8BD206A8007F4D577
:1010D000206A6968B043084320622878C00705D0B9
:1010E000206BA96880088000084320632878800668
:1010F00005D5206B10218843E96808432063002050
:10110000F8BD00000010024000700040881300008D
:10111000F8B505463F480E460068C007C00FB0420C
:101120000AD23C480168490849003143016000681F
:10113000C007C00FB0425CD12878374C800705D576
:101140006068F0218843A968084360602878C00778
:101150003FD06868012813D02168022813D089077E
:10116000002946DA61688908890001436160FFF758
:1011700013FF6968074601290DD0022917D024E022
:1011800021688903ECE78901EAE7FFF705FFC11B46
:101190002248814217D860680007800F0128F4D1E7
:1011A00017E0FFF7F9FEC11B1C4881420BD86068AD
:1011B0000007800F0228F4D10BE0FFF7EDFEC11B02
:1011C0001648814201D90320F8BD60680007800FEE
:1011D000F3D110480168C907C90FB1420BD90168A2
:1011E00049084900314301600068C007C00FB042A0
:1011F00001D00120F8BD2878400706D56068072196
:1012000009028843E968084360600320FFF7E2FEB3
:101210000020F8BD002002400010024088130000AA
:1012200010B500F021F805494968054A0906090F7B
:10123000515CC8400349086010BD00000010024026
:10124000FC3000081C00002010B5FFF7E9FF04493E
:101250004968044A4905490F515CC84010BD000067
:1012600000100240FC30000810B512A30FCB88B06C
:101270006C460FC413A30FCB0FC416494A680C2049
:10128000134603401448042B0FD0082B0DD19302B2
:101290001B0F6C46E45CC96A04AB0907090F595C73
:1012A000D20304D5FEF71CFF604308B010BD0B4805
:1012B0006043FAE702030405060708090A0B0C0D50
:1012C0000E0F10100102030405060708090A0B0C93
:1012D0000D0E0F100010024000127A0000093D00B0
:1012E000F8B504460078DD4DC0075CD0686800079B
:1012F000800F012807D068680007800F022809D1F5
:101300006868C00306D5286880034CD5606800284B
:101310007BD048E0286801263604B043286028685E
:10132000B700B8432860FFF737FE009005E0FFF7ED
:1013300033FE0099401A642868D828688003F6D4E0
:10134000606801280AD0002801D0052808D0296843
:101350002846B14329602968B94307E0284603E0DD
:101360002968284639432960016831430160606873
:1013700000280CD0FFF710FE064604E0FFF70CFE35
:10138000801B6428D8D828688003F7D50BE0FFF7C6
:1013900003FE064604E0FFF7FFFD801B6428CBD860
:1013A00028688003F7D420780127800700283DDAD9
:1013B00068680007800F07D068680007800F022860
:1013C00009D16868C00306D42868800715D5E0688D
:1013D00001281AD111E0E0680028286817D03843A6
:1013E0002860FFF7D9FD064604E0FFF7D5FD801B16
:1013F0000228A1D828688007F7D52868F8218843F3
:101400002169C9000843286010E025E1CCE04008CC
:1014100040002860FFF7C0FD064604E0FFF7BCFD72
:10142000801B022888D828688007F7D42078000716
:1014300021D5206A0028686A0ED038436862FFF719
:10144000ABFD064604E0FFF7A7FD801B022899D8F4
:10145000686A8007F7D50EE0400840006862FFF731
:101460009BFD064604E0FFF797FD801B022889D804
:10147000686A8007F7D4207804264007002866DAD7
:10148000E969B0060143E961E969014074480091E6
:101490000168821511430160FFF77EFD009005E0B1
:1014A000FFF77AFD0099401A64287DD86C480068DF
:1014B000C005F5D5286A400840002862286AB04374
:1014C0002862FFF769FD009006E0FFF765FD0099CF
:1014D000411A6448814267D8286A8007F5D4A06819
:1014E00001280BD0002801D0052809D0296A2846F8
:1014F000490849002962296AB14307E0284603E008
:10150000296A284631432962016A39430162A06889
:1015100000280ED0FFF740FD009006E0FFF73CFDED
:101520000099411A4F4881423ED8286A8007F5D574
:101530000DE0FFF731FD009006E0FFF72DFD00996B
:10154000411A484881422FD8286A8007F5D420786C
:10155000C00635D5606901280CD0401D686B24D0C9
:1015600030436863686B400840006863FFF714FD10
:10157000064622E0686B30436863686B38436863F3
:10158000FFF70AFD064604E0FFF706FD801B022870
:101590005BD8686B8007F7D5686BF8218843A16931
:1015A000C900084368630BE04FE0B0436863F3E7AA
:1015B000FFF7F2FC801B022847D8686B8007F7D43E
:1015C000606A002846D069680907890F022943D05C
:1015D000012636060228286805D0B0432860FFF7A8
:1015E000DBFC044633E0B0432860FFF7D5FC074638
:1015F00004E0FFF7D1FCC01B022826D82868800130
:10160000F7D4E86A216B000900010843E862A16A87
:10161000E06A084369683D22120491430843686008
:10162000286830432860FFF7B7FC044604E0FFF762
:10163000B3FC001B022808D828688001F7D509E010
:10164000FFF7AAFC001B022801D90320F8BD286877
:101650008001F5D40020F8BD0120F8BD0010024043
:10166000007000408813000004220449042808691F
:1016700002D09043086170471043FBE700E000E0B0
:1016800070470000094910B5401E884201D9012069
:1016900010BD074C60610321081F00F0A7FB00206C
:1016A000A06107202061002010BD0000FFFFFF00A7
:1016B00000E000E010B5FFF7E3FF10BD7047704792
:1016C00070B5040005D025462035687E002802D07C
:1016D00006E0012070BD00202876204600F00AF8C0
:1016E00002206876211D206800F044FC0120687605
:1016F000002070BD08B500680A49884210D10A4828
:101700008269012149040A438261806900220840FC
:10171000009002211520FFF795FC1520FFF788FCAB
:1017200008BD000000440140001002400268D36878
:1017300001210B43D360006802680A430260002065
:10174000704700000168CA6852085200CA60006809
:10175000016A064A114207D1016A9210114203D16F
:10176000016849084900016000207047111100001C
:10177000704770B50446006801690025C9438907B0
:10178000002915DBC168C943890711D4E91E01612D
:1017900001202076206880698007204602D0FFF76C
:1017A000E7FF04E000F096F8204600F094F8257674
:1017B00020680169C943490717D4C168C94349076B
:1017C00013D40421C9430161022020762068806976
:1017D0008005800F204602D0FFF7CAFF04E000F02A
:1017E00079F8204600F077F8257620680169C9432A
:1017F000090716D4C168C943090712D40821C9438F
:101800000161042020762068C0698007204602D04C
:10181000FFF7AEFF04E000F05DF8204600F05BF853
:10182000257620680169C943C90617D4C168C94330
:10183000C90613D41021C94301610820207620680D
:10184000C0698005800F204602D0FFF791FF04E0B9
:1018500000F040F8204600F03EF825762068016947
:10186000C943C90708D1C168C943C90704D1891E42
:101870000161204600F030F820680169C94309067B
:1018800009D4C168C943090605D48021C94301614F
:101890002046FFF713FF20680169C943490609D4B0
:1018A000C168C943490605D44021C94301612046A6
:1018B00000F042F820680169C943890609D4C1686B
:1018C000C943890605D42021C94301612046FFF799
:1018D000F6FE70BD70477047114910B588421BD1A4
:1018E00010480088104C2188104A49005052208826
:1018F000411C21800E4988420DD10948FFF722FF83
:10190000002020800B490120087002460920102188
:10191000C006FFF73BFB10BDFFF744FB10BD000006
:101920005C090020080000200E0000202400002098
:10193000FF030000020000207047704770B5026886
:101940000446D0690121C30720466030002B07D030
:101950001368DB0504D51162E26E0A43E266417248
:101960002268D36902259E070423002E07DA9668B1
:10197000F60704D01562E26E1A43E26641722268ED
:10198000D669760707D59668F60704D01362E26E2B
:101990002A43E26641722268D36908251B07002B9F
:1019A00007DA9368DB0704D01562E26E2A43E26629
:1019B0004172E06E002802D02046FFF7BEFF20688B
:1019C000C169890609D50068800606D5204600F061
:1019D000D8FB20688169294381612068C1690906B3
:1019E00005D50068000602D5204600F095FC206869
:1019F000C169490605D50068400602D5204600F0B9
:101A0000ADFB70BD70B5040005D025466035687A21
:101A1000002802D006E0012070BD00202872204678
:101A200000F026F802206872206801684908490021
:101A30000160204600F0ECFB0128EDD0606A002830
:101A400002D0204600F0ECFA206841680122D20260
:101A50009143416020688168082291438160206839
:101A60000168012211430160204600F03EFB70BD79
:101A700030B5054600681C4987B0884231D11B4803
:101A80008269012189030A438261806908400590C7
:101A900003204002009002200190012103200390C6
:101AA0000291049109206946C006FFF7CBF910485E
:101AB000104C002103C42160A1608020E1606060BF
:101AC0002020616120610B48083CFFF757F96C66E4
:101AD000002211461B206562FFF7B4FA1B20FFF7B6
:101AE000A7FA07B030BD00000038014000100240E6
:101AF00030000240A0080020F8B5054604466035D5
:101B0000687A012802D0687A12282FD1002929D0BA
:101B1000002A27D0287A012828D0012028725820AE
:101B2000616502530026E666687A12281CD02220DE
:101B30006872636E0E489862636E0E48D862636E78
:101B40000D481863134627680A4639462431606EEB
:101B5000FFF73EF9206881684022114381602E72B0
:101B60000020F8BD0120F8BD3220E1E70220F8BDD9
:101B70001D21000853210008FB20000810B5006853
:101B8000808C0A4BC2B20848427001785A54491CF2
:101B9000C9B20170202A05D100225A540270184699
:101BA00001F098F910BD0000140000202408002066
:101BB0007047FFB5054604466035687A81B00E4629
:101BC000012802D0687A22284ED1002E1DD0002A8A
:101BD0001BD0287A012847D0012028720020E06617
:101BE000687A222814D012206872274640373A8239
:101BF0007A82788A0022401E788280212046049BC7
:101C000000F0C1FB00281CD104E0012005B0F0BDAC
:101C10003220E9E70120A1680003814202D1206956
:101C2000002810D0216830780885761C788A002832
:101C3000DFD1002240212046049B00F0A4FB0028B5
:101C400008D00320E2E730882168C005C00D088570
:101C5000B61CEBE7687A322804D0012068720020B5
:101C60002872D3E72220F9E70220CFE77047FEE78A
:101C70003EB51648144901600024846001250561C1
:101C80004905C46041608461C46144620562C46204
:101C90000563042144634161FEF740FE280301907F
:101CA00007200290009469460848FEF7ABFD69469C
:101CB00006480095FEF7A6FD0220009069460348FD
:101CC000FEF7A0FD3EBD000000240140D808002022
:101CD00008B50C4841690122114341614069032163
:101CE0001040009000220920FFF7ACF90920FFF70F
:101CF0009FF9002203210A20FFF7A4F90A20FFF729
:101D000097F908BD0010024030B51F4887B04269FE
:101D1000012189050A43426142690A4005924269EC
:101D200049110A43426142690A40059242694900E9
:101D30000A434261406909250840ED0605900022EA
:101D400010212846FFF722F9102000900120019071
:101D5000032000240390029469462846FFF772F896
:101D60000220009009480190694602940848FFF754
:101D700069F8002201210520FFF764F90520FFF72B
:101D800057F907B030BD00000010024000001110EC
:101D90000004004810B50748054901602F21416043
:101DA00000218160C16001614161FFF789FC10BDC4
:101DB000004401405C09002010B50A480849016050
:101DC000E121C902416000218160C160016181613E
:101DD000C1610C22016242614162FFF713FE10BD36
:101DE0000038014030080020704700008307FF22C0
:101DF000DB0E9A408907090E994000280BDA00078C
:101E0000000F0838830808489B001818C3699343DB
:101E10000B43C3617047830804489B001B18186874
:101E2000904308431860704700ED00E000E400E0D4
:101E300010B5FFF7B7F8FFF73DFC10BD70B596B0D1
:101E40000125009528040A9001950001022600242E
:101E50000B9009960C946846FFF742FA07200D9004
:101E60000F9401210E9610940DA8FFF751F911A8B7
:101E700011951394FFF7EAF8FFF7D2F97D21C90015
:101E8000FEF72EF9FFF7FEFB0420FFF7EDFB032121
:101E90000022081FFFF7D6F816B070BD70B5154EBA
:101EA00071680C2001401448144C03D0042901D05F
:101EB000082901D0206014E07168726801231B04B6
:101EC0001A4089020D0FF16AAD1C0907090F491C60
:101ED0009A4203D1FEF704F96843EBE7084845430B
:101EE0002560706807490006000F085C2168C14042
:101EF000216070BD0010024000127A001C0000201A
:101F000000093D000C31000813480168012211430B
:101F100001604168114A114041600168104A114056
:101F200001600168012292049143016041683F22EF
:101F3000120491434160C16A09090901C162016B40
:101F4000FF22143291430163416B49084900416308
:101F50000021816070470000001002400CB8FF08AB
:101F6000FFFFF6FE10B50248FFF703FC10BD0000AE
:101F70005C09002070B50268164B174D984201D0DD
:101F8000A84204D1144670264A68B4432243134C35
:101F9000134E984208D0A84206D0124DA84203D052
:101FA000A04201D0B04204D103252D02AA43CD683E
:101FB0002A4302608A68C2620A688262984203D039
:101FC000A04201D0B04201D1096901630121416100
:101FD00070BD0000002C014000040040004401409E
:101FE000004801400020004070B50B4C09492160B9
:101FF00000252F21A560616001460848FEF770F8B2
:10200000401E256180B26561E0602046FFF758FB05
:1020100070BD0000004401405C09002040420F00F8
:1020200010B5818CC90707D001684A6801235B0499
:102030009A43836A1A434A60818C890707D50168ED
:102040004A6801231B049A43C36A1A434A60818C7D
:10205000490707D501684A6801239B049A43036B2B
:102060001A434A60818C090707D501684A68012331
:10207000DB039A43436B1A434A60818CC90607D538
:102080000268916801231B039943836B1943916094
:10209000818C890607D501688A6801235B039A430E
:1020A000C36B1A438A60818C490612D503685A684B
:1020B00001210905046C8A4322435A60026C8A425A
:1020C00007D10268516803235B059943436C1943A8
:1020D0005160818C090607D501684A680123DB0439
:1020E000806C9A4302434A6010BD0021C166012200
:1020F0006030427201720846704710B5406A002293
:10210000014640314A834A82012269210A54C16E44
:1021100010221143C166FFF710FC10BD10B5014637
:102120000968406A096889060ED400225A210A52B9
:1021300001688A6840239A438A60014660314A7A7E
:10214000322A04D001224A72FFF718FD10BD122274
:10215000F9E710B5406AFFF72BFD10BD10B5016817
:102160000A6840239A430A60014660314A7A322A5B
:1021700005D001224A72FFF779FD002010BD22220E
:10218000F8E770B501464031034660338A8B5C7ACC
:10219000222C04D05C7A322C01D0022070BD0125A3
:1021A00084682D03AC4202D10469002C0DD0046870
:1021B000A48C1440426D551C456514704A8B521E08
:1021C0001204120C4A8309D01EE00568446DAD8CE0
:1021D00015402580426D921C4265EFE701680A6850
:1021E0002024A2430A60597A32290FD001680A6874
:1021F000E400A2430A6001688A68520852008A60BB
:1022000001215972FFF7BAFC002070BD1221F8E7D6
:10221000F8B504462369A268E6691A436369102188
:102220003343002026681A4333680546364F3B4047
:102230001343336023685A6803263603B243E668C3
:1022400032435A60236AA26926681A43B3680B278F
:102250003F02BB431343B3602C4A126B9207920FA9
:1022600006D0012A08D0022A08D0032A07D101E0AB
:10227000002104E0022102E0042100E00821012203
:10228000E369D203934220D100290CD002290DD05A
:10229000042911D0082914D00125010909010007DA
:1022A000400F08432DE0FEF7CFFF07E018486168B4
:1022B000FDF716FF80B2F0E7FEF7D6FF4000616839
:1022C000F6E7012000046168F2E7002908D002293E
:1022D00009D004290DD008290FD001252846F8BDC2
:1022E000FEF7B2FF07E00B486168FDF7F9FE80B228
:1022F00007E0FEF7B9FF6168F7E710466168FDF790
:10230000EFFE2168C860E9E7F369FFFF00100240B3
:102310000024F40000127A00014660314A7A122A41
:1023200004D0497A322901D0022070470146403159
:102330004A8A002A12D0012382681B039A4202D1E2
:102340000269002A15D0C26C531CC364006812785D
:102350000285488A401E48820020704701680A684A
:1023600080239A430A60006801684022114301609B
:10237000F2E7C26C03681288D205D20D1A85C26CCE
:10238000921CC264E5E7F8B51D4616460F460446A2
:10239000FEF702FE3146264660360090002916D030
:1023A00041E0681C13D0002D06D0FEF7F5FD014674
:1023B0000098081AA8420AD920680168802291432F
:1023C0000160206801682022914301601AE02068C2
:1023D000C16938468843E4D12AE0681C23D0002D27
:1023E00006D0FEF7D9FD01460098081AA8421AD96E
:1023F00020680168802291430160206802682021E2
:102400008A43026020680168FF2201329143016023
:1024100020688168490849008160012070720020AD
:1024200030720320F8BD2068C16938468843D4D093
:102430000020F8BD10B50248FFF780FA10BD00007B
:10244000300800200FB410B503A9044B044A0298C9
:1024500000F0E8F810BC08BC04B018475D2D000877
:10246000200000202021020C01D010211046020A79
:1024700001D010460839020901D01046091F820810
:1024800001D01046891E420801D0881E7047081AE4
:10249000704730B47446641E2578641CAB4200D289
:1024A0001D46635D5B00E31830BC184702E008C8B6
:1024B000121F08C1002AFAD170477047002001E0BE
:1024C00001C1121F002AFBD170470000F0B51FB4F4
:1024D00084B007980699020D014314D04A484B492D
:1024E0001018484305140F9801280E981CD0281A7C
:1024F000401C0024464E4749009401910290002858
:1025000014DA474227E00F98012443A3012808D09A
:10251000002104980F9A84600360C260416009B092
:10252000F0BD0E98C143F4E74042E2E7074612E0EF
:10253000F80707D02246334601990098FDF7E8FED8
:10254000019100902246334610461946FDF7E0FE01
:1025500004460E467F10002FEAD10298019B002806
:10256000009A0799069802DAFDF7D2FE01E0FDF71E
:1025700037FF04460E460022284BFDF7C9FF03D85B
:102580000020C043014607E00022254B204631468B
:10259000FDF70CFEFDF79CFF102409E0002C0ADB80
:1025A0000A220023FDF7D1FD059B30321A55641E27
:1025B00002460A43F2D11122641C059B121B1C190E
:1025C0000F9B012B03D0012308430ED10AE00843DF
:1025D00004D011200E9000200F9084E70E98151A59
:1025E0006D1E0BE00E98824202DD00236D1C03E09D
:1025F000824201DA00236D1E002BEED004980F9961
:102600008260C16030C08AE701FCFFFF104D00000E
:10261000000024400000F03F300000000000F043C4
:102620000000E03FFFB597B00646002518E22528D8
:1026300077D100242746FD49049400E00443761C2A
:1026400032780120203A90400842F7D130782A2889
:102650000ED00222307801463039092916D8049963
:102660000A235943303940181443761C0490F1E78B
:10267000189802C804911890002904DA0120400338
:1026800004434842049002200443761C30782E28EC
:1026900014D1042004437078761C2A2809D1189894
:1026A000761C80C8189009E00A214F43303FC719B3
:1026B000761C3078014630390929F5D930786C28F4
:1026C00010D006DC4C281AD068280ED06A2817D102
:1026D00004E0742813D07A2812D110E001204005BC
:1026E00004430CE00121090501E0032109050C4325
:1026F0007178814203D1012000052418761C761CD4
:102700003078119066280BD013DC58287DD009DC76
:1027100000287BD04528F6D04628F4D047281AD187
:10272000A5E118E0632835D0642870D0652812D15F
:102730009DE170286CD008DC6728F1D069287BD037
:102740006E280DD06F2806D1BAE073282ED07528D8
:1027500071D0782859D01A9A199990476D1C7EE14A
:102760006002400F022809D003280DD004281898D1
:1027700001680DD00D60001D189070E11898EA17DF
:1027800001680D604A60F6E7189801680D80F2E76D
:102790000D70F0E718986A4601781172001D1890C4
:1027A0000020507202A80090012005E0189802C88D
:1027B000189000200091C04361070DD5002101E071
:1027C0000199491C0191B94212DA8142F8DB009A61
:1027D000515C0029F4D10BE0002101E00199491C72
:1027E00001918142FADB019A0099895C0029F5D1B7
:1027F000019904981A9B471A21463846199A00F005
:1028000097FA0199401945180BE04FE02CE113E0CD
:102810004EE0009800990078491C00911A9A199985
:1028200090470198401E0190401CF2D12146384645
:102830001A9B199A10E137E00A20002100900191BB
:102840006002410F022907D0189A01CA1892C217D4
:102850009446032908D00AE01898C01DC108C90091
:1028600005C91891944607E000B2C217944604299E
:1028700002D140B2C1178C4600226146944506DA67
:102880000A460021404291418C462D2102E021055B
:1028900004D52B216A461173012103E0E10701D021
:1028A0002021F7E7029155E00A200AE0102008E015
:1028B000102000900021042004430191082703E028
:1028C00008200021019100906002410F022907D0E9
:1028D000189A01CA189200229446032908D008E0E9
:1028E0001898C01DC108C90005C91891944603E095
:1028F00080B2042900D1C0B200210291210729D55C
:102900001199702906D0009A1021019B4A401A4360
:1029100005D00EE040216A461173012108E06146AE
:10292000014306D030216A46117311995173022177
:102930000291009A0821019B4A401A430AD161463C
:10294000014301D1610705D530216A461173012188
:102950007F1E02911199582904D035A10E910DA91D
:102960000D910DE037A1F9E76146019B009AFDF753
:10297000ECFB0E9B8C469B5C0D9A521E0D921370C5
:1029800061460143F0D10D9805A9081A2030019045
:10299000600703D501200004844300E0012701986B
:1029A000874201DD381A00E00020019900904118AB
:1029B000029809180498401A0490E00306D42146AE
:1029C0001A9B199A049800F0B3F94519002706E0FC
:1029D00003A81A9AC05D199990476D1C7F1C029834
:1029E0008742F5DBE0030CD521461A9B199A04981F
:1029F00000F09EF9451904E01A9A30201999904781
:102A00006D1C0099481E00900029F5DC08E00D9827
:102A10000D990078491C0D911A9A199990476D1CCF
:102A20000199481E01900029F1DC63E109280100A9
:102A30003031323334353637383961626364656634
:102A400000000000303132333435363738394142F6
:102A5000434445460000000000F05AF94519761C31
:102A60003078002800D0E2E528461BB0F0BD6007B2
:102A700000D406271898C01DC108C90048680A6814
:102A80000831C30FDB071891190001D09CA108E0A1
:102A9000210501D59BA104E0E10701D09AA100E046
:102AA0009AA1430011985B08109165280CD006DCB0
:102AB000452809D046281DD0472841D141E0662845
:102AC00018D067283CD13CE00021112F01DB1120F8
:102AD00000E0781C0191009008A911A8FFF7F6FC0E
:102AE000139905910021119A15927F1C1298019754
:102AF000009150E00120C00703900120019008A937
:102B0000009711A8FFF7E2FC139A1499059200228E
:102B1000119B009212981593059A0192002901D0F9
:102B2000104602E0791C40180190381A01D501982E
:102B300004E04042401E0090781C0190C01B0290AF
:102B400043E0012F00DA01270021112F01DD1120C0
:102B500000E038460191009008A911A8FFF7B6FCE3
:102B600013990591119A00211298159200910197DD
:102B700021070CD40599B94201DB019900E00191CC
:102B8000012904DD159A491E515C302906D0B8424E
:102B900001DA011D05DA0121029115E00199491EB2
:102BA000EDE7002805DC0099411800910199091A08
:102BB00003E0019A411C914200DD01910099401A05
:102BC000401C02900120C0070390200706D4029900
:102BD0000198814202DB0020C04302900020694638
:102BE000C87707AF012103980337C907884224D06B
:102BF000022011902B201290039800280CDA4042FA
:102C000003902D20129007E00A210398FDF768FA3F
:102C100030317F1E039039701199481E11900029A0
:102C2000F2DC03980028EFD1791E129808703078F2
:102C3000202108404530BF1E387006A8C01BC01DAB
:102C4000039010980078002800D0012001994118C5
:102C50000298C0170918039809180498401A401ED2
:102C60000490E00306D421461A9B199A049800F0B8
:102C70005FF8451910980078002803D01A9A19991E
:102C800090476D1CE00324D521461A9B199A04989D
:102C900000F04EF845191CE00098002807DB009969
:102CA0000598884203DD1598405C199901E019994F
:102CB00030201A9A904700986D1C401C0090029892
:102CC000401E0290002804D11A9A2E20199990478C
:102CD0006D1C0199481E01900029DDDC05E0387863
:102CE0001A9A7F1C199990476D1C0399481E0390EE
:102CF0000029F4DC21461A9B199A0498ACE60000DE
:102D00002D0000002B00000020000000000000004B
:102D1000F8B5044600251E461746880404D405E08D
:102D200039462020B0476D1C641EF9D52846F8BDF1
:102D3000FFB50446002581B01E46C80301D53027E3
:102D400000E02027880404D505E038460399B04701
:102D50006D1C641EF9D5284605B0F0BD13B5044BB3
:102D6000012269460348FEF724FF00981CBD0000BD
:102D7000FFFF00003008002008B5FEF71BF9FFF741
:102D80005DF8FEF7C1FFFEF7A3FFFFF715F8FEF7AA
:102D90006FFFFEF7FFFFFFF781F81E4801681EA0D6
:102DA000FFF750FB032222492248FDF7A9FE01222A
:102DB00069462148FEF7A0FE092000221021C00626
:102DC000FEF7E4F81A4C083C6068FFF70DF90020A4
:102DD000FDF70CFD19A0FFF735FB244A244B25A075
:102DE000FFF730FB0C2125A0FFF72CFB00F064F966
:102DF0000F4D00266078012805D1AB886A882988A4
:102E000020A0FFF71FFBA0780128F3D1A67000F0E7
:102E100005F9EFE71C00002053797374656D436F6B
:102E20007265436C6F636B203D2025640D0A0000C2
:102E300008000020D8080020300800200D0A2D2DA1
:102E40002D2D2D2D2053696D706C654F7363696C4A
:102E50006C6F677261706820466F722053544D33F7
:102E600032202D2D2D2D2D2D0D0A00006666666653
:102E700066660A4056433A25660D0A0041443A25E3
:102E8000640D0A0043313A25640D0A43323A256441
:102E90000D0A43333A25640D0A00000010B50920DD
:102EA00001221021C006FEF771F809484178002977
:102EB00008D1C178002906D0C078042806D00120A6
:102EC000FDF794FC10BD00F0F7F810BD0020F7E707
:102ED00000000020F8B5027869460A7042784A700E
:102EE00000258D70C07839A13038C4B26846FDF72E
:102EF0001EF900281AD036A16846FDF718F90126F8
:102F0000344F002830D034A16846FDF710F900286E
:102F100043D032A16846FDF70AF900284BD030A112
:102F20006846FDF704F900281BD0F8BD2D48FEF7D0
:102F300009FC2D492D482300FFF7ABFA0705070DC3
:102F40000F1109091300642001E07D20C000086012
:102F5000FFF74AF805E02648F9E72648F7E726484C
:102F6000F5E700F0A9F8F8BD244804703E7023008E
:102F7000FFF78FFA050506080D0F0400F3E7F0E7E9
:102F80001F4800E01F48FDF719FC012002E01E4821
:102F9000F9E70020FDF72AFCF8BD1C48012C04705D
:102FA000DFD10020FDF722FC19483E70058019A0F2
:102FB000FFF748FAF8BD154800780028FAD109480B
:102FC000FEF7C0FB12483E700580F8BD4653000076
:102FD000544D000000000020534D0000414200000D
:102FE000544700005C0900200400002020A10700D5
:102FF00010270000A086010090D0030003000020ED
:10300000000011100000211000003110010000200C
:103010000E00002046533A300D0A0000F8B5002497
:10302000154A164B16A0FFF70DFA0C2116A0FFF754
:1030300009FA174D696817A0FFF704FA0126B602CE
:10304000314616A0FFF7FEF900202870154F6000EA
:10305000395A15A0FFF7F6F9641CA4B2B44205D2A0
:103060002878002802D168780028F0D010A0FFF757
:10307000E9F9FFF713FFF8BD6666666666660A4003
:1030800056433A25660D0A0041443A25640D0A006C
:103090000000002046533A25640D0A004E4D3A25A3
:1030A000640D0A002400002043313A25640D0A0013
:1030B000464E3A4F4B0D0A0010B50B4901200870DF
:1030C0000A48002101800A4909880A4A11800188BA
:1030D000491C01800848FEF729FB09200022102125
:1030E000C006FDF753FF10BD000000200E000020B9
:1030F00008000020240000205C09002000000000DF
:10310000010203040102030406070809000000008D
:103110000000000001020304060708093C31000812
:103120000000002024000000AC24000860310008EA
:1031300024000020740D0000BC24000800000000E2
:10314000A086010000000000000000000000000058
:10315000000000000000000000127A0000000000E3
:04000005080000B13E
:00000001FF
