:100BD2007DA57C06ED1D70011C144C70F7EF1F7093
:060BE200011E144E70EA32
:010BE80022EA
:10060000EFD3940540037F01221203E2FED394034B
:1006100040037F0222EF7041EE700B900001120345
:10062000FBF4529352941203E2B4010B90000112B6
:1006300003FB4293F452941203E2FEB4020A9000C8
:10064000011203FB42934294EEB4030D9000011299
:1006500003FBFEF45293EE4294EF640170431203E5
:10066000E2FE700B9000011203FBF452915292EEE5
:10067000B4010B9000011203FB4291F45292120359
:10068000E2B4020A9000011203FB4291429212036B
:10069000E2B4030D9000011203FBFEF45291EE420E
:1006A00092EF640270431203E2FE700B900001129D
:1006B00003FBF452955296EEB4010B900001120325
:1006C000FB4295F452961203E2B4020A9000011222
:1006D00003FB429542961203E2B4030D900001120F
:1006E00003FBFEF45295EE4296EF6403704312034F
:1006F000E2FE700B9000011203FBF452B152B2EE15
:10070000B4010B9000011203FB42B1F452B2120388
:10071000E2B4020A9000011203FB42B142B212039A
:10072000E2B4030D9000011203FBFEF452B1EE425D
:10073000B2EF640470431203E2FE700B90000112EA
:1007400003FBF452B352B4EEB4010B900001120358
:10075000FB42B3F452B41203E2B4020A9000011255
:1007600003FB42B342B41203E2B4030D9000011242
:1007700003FBFEF452B3EE42B4EF64057043120380
:10078000E2FF700B9000011203FBF452C952CAEF52
:10079000B4010B9000011203FB42C9F452CA1203C8
:1007A000E2B4020A9000011203FB42C942CA1203DA
:1007B000E2B4030D9000011203FBFFF452C9EF42B3
:0407C000CA7F0022CA
:06095F008B158A168917B2
:10096500EF64016003020AF6752201F523F524F50B
:1009750025F526F527F5287F287851E4F608DFFCCC
:100985007F287829E4F608DFFCAB15AA16A917120B
:1009950003E2D394C040037F012290000A1203FBB7
:1009A500B40104D2BC8002C2BC1203E2FFE5985434
:1009B5003F4FF598EF64C06008EF64406003020A9A
:1009C5007A9000021205527F007E607D547C0012F1
:1009D500049C8F1B8E1A8D198C18E4FFFE7D01FC7B
:1009E500AB1BAA1AA919A818C312052E40037F022A
:1009F50022C3E4951BF51BE4951AF51A74019519A4
:100A0500F519E49518F518AB15AA16A91790000164
:100A15001203FBFB6401702CC28E538EFE5389BFFB
:100A25005389CF438E40AF1BAE1AAD19AC18780869
:100A350012053F8F8D851B8BC2AB5389BF538FFD2D
:100A4500D28E8065EB64027029538EEF438E01537D
:100A55008EF7438E04AF1BAE1AAD19AC1878081289
:100A6500053F8FD6851BD753AFFB538EF7438E10AB
:100A750080377F0222AB15AA16A9171203E2FF7071
:100A8500139000081203FBB40105438E20801A530E
:100A95008EDF8015EFB480119000081203FBB401BE
:100AA50005438780800353877FAB15AA16A9179046
:100AB50000091203FBB40104D2AC8002C2AC900061
:100AC500071203FBB40104D29C8002C29C90000B68
:100AD5001203FB54C0FFE5A2543F4FF5A290000C52
:100AE5001203FBB4010543971080035397EF7F0072
:030AF500227F035A
:010AF80022DB
:1000660074512524F8A6070524E524C394284003E3
:0D007600E4F524E5257005752501D29922D9
:03002300020AF9D5
:100AF900C0E0C0D075D000C000C00730981DC298B2
:100B0900E5287017E526C394284003752600AF260B
:100B1900052674292FF8A699752705309921C299B8
:100B2900E5236524601674512523F8E6F599052314
:100B3900E523C3942840087523008003752500D058
:080B490007D000D0D0D0E0324B
:1007C400AD07EDD3940240037F0122ED60030208DC
:1007D40058C28C9000021203FBB40104D2A9800217
:1007E400C2A99000011203FBB40104D2B98002C271
:1007F400B91203E2FED3940340037F0222E5895435
:10080400FC4EF5899000031203FBFFB40103538EE1
:100814007FEF7003438E80EFB402054389048003A5
:100824005389FB9000041203FBB40105438F01803C
:1008340003538FFE900005120428E5F0F58C900018
:1008440005120428F58A9000071203FBB40102D2B2
:100854008C7F0022ED640160030208E3C28E9000E5
:10086400021203FBB40104D2AB8002C2AB900001BC
:100874001203FBB40104D2BB8002C2BB1203E2FE2A
:10088400C3940340037F0222E58954CF4EF5899037
:1008940000031203FBFFB40103538EBFEF70034345
:1008A4008E40EFB4020543894080035389BF900012
:1008B400041203FBB40105438F028003538FFD90A0
:1008C4000005120428E5F0F58D900005120428F5C2
:1008D4008B9000071203FBB40102D28E7F0022ED3D
:1008E40064027074538EEF9000021203FBB401058E
:1008F40043AF04800353AFFB9000031203FBFED30A
:10090400940240037F0222EEB40103538EFB900055
:10091400031203FB7003438E049000031203FBB421
:100924000205438E088003538EF79000041203FBE4
:10093400B40105438F048003538FFB900005120418
:1009440028FDACF0ECF5D68DD79000071203FBB46C
:0B0954000103438E107F00227F02226F
:0C0BE90073746172742E2E2E2E0D0A0003
:100BB500120B8E120026D2AF120B517F017E00124E
:0D0BC5000BD27BFF7A0B79E91200E880FE6D
:100B5100E4F508F509750A01F50BF50C750DF77546
:100B61000E5D750F01FB7A007908FF1207C4E4F5E9
:100B710008F509750A01F50BF50C750DD4750ECD47
:0D0B8100750F01FB7A0079087F020207C49E
:03000300020009EF
:0100090032C4
:0300130002000ADE
:01000A0032C3
:0300530002001197
:0100110032BC
:03005B000200128E
:0100120032BB
:0300830002001662
:0100160032B7
:03000B00020006EA
:03000600B2B5325E
:03001B00020017C9
:0100170032B6
:0300630002000E8A
:03000E00B2B43257
:10002600750840750902750D00750CC2750B0175D2
:100036000A00750F01E4F510751101F512F513F5B7
:0B00460014FB7A0079087F0102095FBB
:080C01008F1C120066AF1C22DB
:100B8E007509FF7508037B007A0079087F0112064C
:100B9E00007B007A0079087F031206007B007A0042
:070BAE0079087F0502060033
:03000000020BF5FB
:0C0BF500787FE4F6D8FD758178020BB51E
:1003E200BB010689828A83E0225002E722BBFE0219
:0903F200E32289828A83E493224C
:1003FB00BB010CE58229F582E5833AF583E02250B7
:10040B0006E92582F8E622BBFE06E92582F8E22200
:0D041B00E58229F582E5833AF583E493221A
:10042800BB0110E58229F582E5833AF583E0F5F012
:10043800A3E0225009E92582F886F008E622BBFEEF
:100448000AE92582F8E2F5F008E222E5832AF58335
:08045800E993F5F0A3E99322FA
:1004600075F008758200EF2FFFEE33FECD33CDCC53
:1004700033CCC58233C5829BED9AEC99E5829840D6
:100480000CF582EE9BFEED9AFDEC99FC0FD5F0D6B3
:10049000E4CEFBE4CDFAE4CCF9A88222B800C1B9DD
:1004A0000059BA002DEC8BF084CFCECDFCE5F0CB1B
:1004B000F97818EF2FFFEE33FEED33FDEC33FCEB54
:1004C00033FB10D703994004EB99FB0FD8E5E4F90F
:1004D000FA227818EF2FFFEE33FEED33FDEC33FCFC
:1004E000C933C910D7059BE99A4007EC9BFCE99AF0
:1004F000F90FD8E0E4C9FAE4CCFB2275F010EF2F35
:10050000FFEE33FEED33FDCC33CCC833C810D70734
:100510009BEC9AE899400AED9BFDEC9AFCE899F86F
:0E0520000FD5F0DAE4CDFBE4CCFAE4C8F92202
:10052E00EB9FF5F0EA9E42F0E99D42F0E89C45F023
:01053E00229A
:10053F00E8600FECC313FCED13FDEE13FEEF13FF9A
:03054F00D8F122BE
:10055200BB010DE58229F582E5833AF5830205A107
:100562005007E92582F8020594BBFE07E92582F8C7
:100572000205ADE58229F582E5833AF5830205BAE3
:10008600E517240BF8E60517227808300702780BE7
:10009600E475F0011205CA0203E22000EB7F2ED2BE
:1000A600008018EF540F2490D43440D4FF30040B52
:1000B600EF24BFB41A0050032461FFE5186002154F
:1000C60018051BE51B7002051A30070D7808E47544
:1000D600F0011205CAEF020582020C017403D20771
:1000E6008003E4C207F5178B088A09890AE4F51824
:1000F600F51AF51BE51860077F201200C180F5751B
:1001060019FFC201C200C202C203C205C206C2086A
:1001160012008FFF700D3007057F001200D2AF1B53
:10012600AE1A22B4255FC2D5C20412008FFF24D0B6
:10013600B40A00501A75F00A781830D50508B6FFCB
:100146000106C6A426F620D5047002D20380D9245F
:10015600CFB41A00EF5004C2E5D2040202D2D20193
:1001660080C6D20080C0D20280BCD2D580BAD20569
:1001760080B47F201200C12002077401B518004028
:10018600F1120086FF1200C10200FAD208D20680E0
:1001960095120086FB120086FA120086F94A4B7009
:1001A6000679A37A037BFF20022EE518602A7E00DB
:1001B6008E827583001203FB60060EEE651970F0E1
:1001C600C2D5EBC0E0EAC0E0E9C0E0EE120319D008
:1001D600E0F9D0E0FAD0E0FB1203E2FF60AAEBC040
:1001E600E0EAC0E0E9C0E01200C1D0E02401F9D0A5
:1001F600E03400FAD0E0FBE5190460DCD519D980BB
:10020600877BFF7A037915D202809C791080027968
:1002160008C206C2088008D2D5790A8004790AC2C3
:10022600D5E519047002F519E4FAFDFEFF12008601
:10023600FC7B08200113120086FD7B1030000A1299
:100246000086FE120086FF7B20EC3382D592D550C5
:1002560013C3E43000069FFFE49EFEE42001039DE5
:10026600FDE49CFCE4CBF8C201EC700CCFCECDCC07
:10027600E824F8F870F38017C3EF33FFEE33FEED92
:1002860033FDEC33FCEB33FB994002FB0FD8E9EB73
:10029600300105F8D0E0C448B201C0E00AEC4D4E8A
:1002A6004F78207B0070C2EAB5190040BCC0E0124E
:1002B600031BD0F0D0E0200104C4C0E0C4B201C0EA
:1002C600F01200AAD0F0D5F0EB0200FA1205DA011E
:1002D600975302115801684C01644202154F021DE2
:0F02E60044021D49017D430223550207460207CA
:1002F5004502074703C350016C2D01702E01932B56
:1003050001742301912003AC2A012C480000018BC4
:100315003F3F3F00790AA2D5200314300509B910E3
:10032500020404B9080104A2D520060250010420E4
:1003350002689202B518005034C0E07F20300319DE
:100345007F30A20272067205500F120372C202C2FA
:1003550006C205C2087F30800F300503E9C0E012F0
:1003650000C1300503D0E0F9D0E0B518CC30051751
:100375007F30B9100C1200C17F583004077F788098
:1003850003B908031200C13002057F2D0200C17FA9
:10039500202008F87F2B2006F322920280CF286EBA
:1003A500756C6C2900D2011200863001F8C2017803
:1003B5001830D50108F602012C2D5043495812007A
:1003C500862403B405004001E49003BE931200B2F5
:0D03D500743A1200B2D2037518040202112E
:10058200BB010689828A83F0225002F722BBFE0158
:02059200F32252
:0D059400E6FB08E6F908E6FA08E6CBF822D7
:0C05A100E0F8A3E0F9A3E0FAA3E0FB22DD
:0D05AD00E2FB08E2F908E2FA08E2CBF822CE
:1005BA00E493F8740193F9740293FA740393FB2297
:1005CA00FAE6FB0808E6F925F0F618E6CA3AF62232
:1005DA00D083D082F8E4937012740193700DA3A3B0
:1005EA0093F8740193F5828883E4737402936860C4
:0605FA00EFA3A3A380DFC4
:00000001FF
